S00B00006173702E73726563D5
S31508008000E8B80020D98100082D8200082D820008D2
S315080080102D8200082D8200082D8200082D82000876
S315080080200000000000000000000000001D8300089A
S315080080302D820008000000006B820008B1C100080C
S31508008040B1C10008B1C10008B1C10008B1C100083A
S31508008050B1C10008B1C10008B1C10008B1C100082A
S31508008060B1C10008B1C10008B1C10008B1C100081A
S31508008070B1C10008B1C10008B1C10008B1C100080A
S31508008080B1C10008B1C10008B1C10008B1C10008FA
S31508008090B1C10008B1C10008B1C10008B1C10008EA
S315080080A0B1C10008B1C10008B1C10008B1C10008DA
S315080080B0B1C10008B1C10008B1C10008B1C10008CA
S315080080C0B1C10008B1C10008B1C10008B1C10008BA
S315080080D0B1C10008B1C10008B1C10008B1C10008AA
S315080080E0B1C10008B1C10008B1C10008B1C100089A
S315080080F0B1C10008B1C10008B1C10008B1C100088A
S31508008100B1C10008B1C10008B1C10008B1C1000879
S31508008110B1C10008B1C10008B1C10008B1C1000869
S31508008120B1C10008B1C10008B1C10008B1C1000859
S31508008130B1C10008B1C10008B1C10008B1C1000849
S31508008140B1C10008B1C10008B1C10008B1C1000839
S31508008150B1C10008B1C10008B1C10008B1C1000829
S31508008160B1C10008B1C10008B1C10008B1C1000819
S31508008170B1C10008B1C10008B1C10008B1C1000809
S31508008180B1C10008B1C10008B1C10008B1C10008F9
S31508008190B1C10008B1C10008B1C10008B1C10008E9
S315080081A0B1C10008B1C10008B1C10008B1C10008D9
S315080081B0B1C10008B1C10008B1C10008B1C10008C9
S315080081C0B1C10008B1C10008B1C10008B1C10008B9
S315080081D0B1C10008B1C1000871B603F081F90020E9
S315080081E00D490E4A914203D2086004319142FBD3ED
S315080081F00B490C4A914206D20B4B086818600431A9
S3150800820004339142F9D300F005F804F005F8FEE7C7
S31508008210704700BF7047000000100020F48E012050
S3150800822020970208889F020800000020EFF31181BA
S31508008230EFF3108251EA02211EF0040F05D0EFF386
S31508008240098020E9024002B501E002B56846744A91
S3150800825013680CB4EFF30583724951F8232090474D
S315080082600FBC016082F311881847102080F311882B
S315080082706D49086858B1EFF309821EF0100F01D155
S3150800828022ED108A22E9F00F8261C0F81CE06748E7
S3150800829000680860A0B1C16911F07F42B2F17F4F52
S315080082A01AD18269B2E8F00F11F0100F01D1B2ECC1
S315080082B0108A82F30988002071B680F3118808476E
S315080082C0EFF309805A495FF0807220E906001838F2
S315080082D080F30988DFF840F0426A4AB1554A5FF0F0
S315080082E080738069B0E8F00F20E90E00143807E0C3
S315080082F08069B0E8F00F5FF0807220E90600183850
S3150800830080F30988464801210160BFF34F8FDFF8E3
S3150800831008F0BDEC108A7047FDFFFFFF40480021BA
S315080083200160002080F31188A0692900B0E8F00FE9
S3150800833011F0100F01D1B0EC108A80F309880847B4
S315080083403D48016881F30888022080F31488BFF34A
S315080083506F8F3A49D1F814D034490968324A61B660
S315080083601BE0022383F31488BFF36F8F2F49096834
S315080083702D4A12E0EFF3148313F0040306D02DED13
S31508008380108A022383F31488BFF36F8F43622DE9A3
S31508008390F00FC0F81CE0C0F818D0116089B1CA699E
S315080083A012F07F40B0F17F4F02D10C00150000DFBC
S315080083B0D1F818D0BDE8F00F4B6A0BB1BDEC108AA6
S315080083C01047174800210160BFF34F8F002080F344
S315080083D01188BFF34F8F30BFFBE700BF104800215D
S315080083E00160BFF34F8F002080F311880E480168A3
S315080083F08A685068DFF848E0D2F808F0002181F36F
S315080084001488BFF36F8F03F033BF00BFA0F153008A
S31508008410002800DC7047A0F131000028FBDC70471B
S31508008420042B01204C5E0208182B01201C2B01206E
S31508008430C28300081283000854610208BC6102085E
S31508008440B9C7000881F0004102E000BF83F000438D
S3150800845030B54FEA41044FEA430594EA050F08BFD1
S3150800846090EA020F1FBF54EA000C55EA020C7FEA95
S31508008470645C7FEA655C00F0E2804FEA5454D4EB12
S315080084805555B8BF6D420CDD2C4480EA020281EADC
S31508008490030382EA000083EA010180EA020281EA14
S315080084A00303362D88BF30BD11F0004F4FEA013166
S315080084B04FF4801C4CEA113102D0404261EB410175
S315080084C013F0004F4FEA03334CEA133302D05242FB
S315080084D063EB430394EA050F00F0A780A4F10104B7
S315080084E0D5F1200E0DDB02FA0EFC22FA05F28018F1
S315080084F041F1000103FA0EF2801843FA05F35941D7
S315080085000EE0A5F120050EF1200E012A03FA0EFC55
S3150800851028BF4CF0020C43FA05F3C01851EBE3717F
S3150800852001F0004507D54FF0000EDCF1000C7EEB9C
S3150800853000006EEB0101B1F5801F1BD3B1F5001FDA
S315080085400CD349085FEA30004FEA3C0C04F10104F9
S315080085504FEA445212F5800F80F09A80BCF1004F22
S3150800856008BF5FEA500C50F1000041EB045141EAA4
S31508008570050130BD5FEA4C0C404141EB0101013C6D
S3150800858028BFB1F5801FE9D291F0000F04BF01465C
S315080085900020B1FA81F308BF2033A3F10B03B3F12E
S315080085A020020CDA0C3208DD02F1140CC2F10C02BE
S315080085B001FA0CF021FA02F10CE002F11402D8BF1C
S315080085C0C2F1200C01FA02F120FA0CFCDCBF41EAE8
S315080085D00C019040E41AA2BF01EB0451294330BDB7
S315080085E06FEA04041F3C1CDA0C340EDC04F1140494
S315080085F0C4F1200220FA04F001FA02F340EA03006B
S3150800860021FA04F345EA030130BDC4F10C04C4F1B0
S31508008610200220FA02F001FA04F340EA0300294690
S3150800862030BD21FA04F0294630BD94F0000F83F4DA
S31508008630801306BF81F480110134013D4EE77FEABD
S31508008640645C18BF7FEA655C29D094EA050F08BF09
S3150800865090EA020F05D054EA000C04BF19461046EA
S3150800866030BD91EA030F1EBF0021002030BD5FEA2E
S31508008670545C05D14000494128BF41F0004130BD56
S3150800868014F580043CBF01F5801130BD01F00045AA
S3150800869045F0FE4141F470014FF0000030BD7FEA1D
S315080086A0645C1ABF194610467FEA655C1CBF0B4618
S315080086B0024650EA013406BF52EA033591EA030F2F
S315080086C041F4002130BD00BF90F0000F04BF002127
S315080086D0704730B54FF4806404F132044FF000055A
S315080086E04FF0000150E700BF90F0000F04BF0021D3
S315080086F0704730B54FF4806404F1320410F0004539
S3150800870048BF40424FF000013EE700BF42004FEA33
S31508008710E2014FEA31014FEA02701FBF12F07F43B0
S3150800872093F07F4F81F06051704732F07F4208BF67
S31508008730704793F07F4F04BF41F40021704730B56E
S315080087404FF4607401F0004521F000411CE700BFBA
S3150800875050EA010208BF704730B54FF000050AE03D
S3150800876050EA010208BF704730B511F0004502D53E
S31508008770404261EB41014FF4806404F132045FEA40
S31508008780915C3FF4D8AE4FF003025FEADC0C18BFE9
S3150800879003325FEADC0C18BF033202EBDC02C2F1DB
S315080087A0200300FA03FC20FA02F001FA03FE40EA6D
S315080087B00E0021FA02F11444BDE600BF70B54FF071
S315080087C0FF0C4CF4E06C1CEA11541DBF1CEA13554F
S315080087D094EA0C0F95EA0C0F00F0DEF82C4481EAB7
S315080087E0030621EA4C5123EA4C5350EA013518BFD7
S315080087F052EA033541F4801143F4801338D0A0FBC4
S3150800880002CE4FF00005E1FB02E506F00042E0FB70
S3150800881003E54FF00006E1FB03569CF0000F18BF76
S315080088204EF0010EA4F1FF04B6F5007F64F540741E
S3150800883004D25FEA4E0E6D4146EB060642EAC621B1
S3150800884041EA55514FEAC52040EA5E504FEACE2E1E
S31508008850B4F1FD0C88BFBCF5E06F1ED8BEF1004F21
S3150800886008BF5FEA500E50F1000041EB045170BD9D
S3150800887006F0004646EA010140EA020081EA0301E1
S31508008880B4EB5C04C2BFD4EB0C0541EA045170BDDD
S3150800889041F480114FF0000E013C00F3AB8014F157
S315080088A0360FDEBF002001F0004170BDC4F10004A0
S315080088B0203C35DA0C341BDC04F11404C4F1200521
S315080088C000FA05F320FA04F001FA05F240EA02007C
S315080088D001F0004221F0004110EBD37021FA04F6B2
S315080088E042EB06015EEA430E08BF20EAD37070BD6C
S315080088F0C4F10C04C4F1200500FA04F320FA05F0CB
S3150800890001FA04F240EA020001F0004110EBD370CC
S3150800891041F100015EEA430E08BF20EAD37070BD3C
S31508008920C4F1200500FA05F24EEA020E20FA04F315
S3150800893001FA05F243EA020321FA04F001F00041C4
S3150800894021FA04F220EA020000EBD3705EEA430E35
S3150800895008BF20EAD37070BD94F0000F0FD101F064
S315080089600046400041EB010111F4801F08BF013C9D
S31508008970F7D041EA060195F0000F18BF704703F0DB
S315080089800046520043EB030313F4801F08BF013D62
S31508008990F7D043EA0603704794EA0C0F0CEA13551E
S315080089A018BF95EA0C0F0CD050EA410618BF52EAD8
S315080089B04306D1D181EA030101F000414FF00000DE
S315080089C070BD50EA410606BF1046194652EA4306EC
S315080089D019D094EA0C0F02D150EA013613D195EA60
S315080089E00C0F05D152EA03361CBF104619460AD1A8
S315080089F081EA030101F0004141F0FE4141F47001B2
S31508008A004FF0000070BD41F0FE4141F4780170BDA1
S31508008A1070B54FF0FF0C4CF4E06C1CEA11541DBF06
S31508008A201CEA135594EA0C0F95EA0C0F00F0A7F808
S31508008A30A4EB050481EA030E52EA03354FEA013135
S31508008A4000F088804FEA03334FF0805545EA131348
S31508008A5043EA12634FEA022245EA111545EA106510
S31508008A604FEA00260EF000419D4208BF964244F1A7
S31508008A70FD0404F5407402D25B084FEA3202B61AC6
S31508008A8065EB03055B084FEA32024FF480104FF49A
S31508008A90002CB6EB020E75EB030E22BFB61A75460E
S31508008AA040EA0C005B084FEA3202B6EB020E75EBA1
S31508008AB0030E22BFB61A754640EA5C005B084FEA09
S31508008AC03202B6EB020E75EB030E22BFB61A7546D6
S31508008AD040EA9C005B084FEA3202B6EB020E75EBE1
S31508008AE0030E22BFB61A754640EADC0055EA060EA2
S31508008AF018D04FEA051545EA16754FEA06164FEAE5
S31508008B00C30343EA52734FEAC2025FEA1C1CC0D190
S31508008B1011F4801F0BD141EA00014FF000004FF01D
S31508008B20004CB6E711F4801F04BF01430020B4F1DE
S31508008B30FD0C88BFBCF5E06F3FF6AFAEB5EB030C96
S31508008B4004BFB6EB020C5FEA500C50F1000041EB93
S31508008B50045170BD0EF0004E4EEA113114EB5C0460
S31508008B60C2BFD4EB0C0541EA045170BD41F4801133
S31508008B704FF0000E013C90E645EA060E8DE60CEA3B
S31508008B80135594EA0C0F08BF95EA0C0F3FF43BAF58
S31508008B9094EA0C0F0AD150EA01347FF434AF95EA0F
S31508008BA00C0F7FF425AF104619462CE795EA0C0FF3
S31508008BB006D152EA03353FF4FDAE1046194622E7C0
S31508008BC050EA410618BF52EA43067FF4C5AE50EA9A
S31508008BD041047FF40DAF52EA43057FF4EBAE12E78A
S31508008BE04A0011D212F5001211D20DD56FF478731E
S31508008BF0B3EB62520ED44FEAC12343F0004343EA73
S31508008C00505323FA02F070474FF00000704750EABD
S31508008C10013002D14FF0FF3070474FF00000704727
S31508008C207BB972B90029BEBF00204FF0004106E0AB
S31508008C3008BF00281CBF6FF000414FF0FF3001F05D
S31508008C4011B9ADF1080C6DE904CE002909DB002B3A
S31508008C501ADB00F035F8DDF804E0DDE9022304B09C
S31508008C607047404261EB4101002B1BDB00F028F8FE
S31508008C70DDF804E0DDE9022304B0404261EB41017E
S31508008C80524263EB43037047524263EB430300F0DF
S31508008C9017F8DDF804E0DDE9022304B0404261EB91
S31508008CA041017047524263EB430300F009F8DDF8CF
S31508008CB004E0DDE9022304B0524263EB4303704744
S31508008CC02DE9F047089D04468E46002B4DD18A4271
S31508008CD0944669D9B2FA82F252B101FA02F3C2F1A4
S31508008CE0200120FA01F10CFA02FC41EA030E944035
S31508008CF04FEA1C48210CBEFBF8F61FFA8CF708FB56
S31508008D0016E341EA034306FB07F199420AD91CEB2D
S31508008D10030306F1FF3080F01F81994240F21C815F
S31508008D20023E63445B1AA4B2B3FBF8F008FB1033A7
S31508008D3044EA034400FB07F7A7420AD91CEB0404DC
S31508008D4000F1FF3380F00A81A74240F207816444AC
S31508008D50023840EA0640E41B00261DB1D440002331
S31508008D60C5E900433146BDE8F0878B4209D9002D95
S31508008D7000F0EF800026C5E9000130463146BDE81F
S31508008D80F087B3FA83F6002E4AD18B4202D3824289
S31508008D9000F2F980841A61EB030301209E46002D38
S31508008DA0E0D0C5E9004EDDE702B9FFDEB2FA82F28D
S31508008DB0002A40F09280A1EB0C014FEA1C471FFAEB
S31508008DC08CFE0126200CB1FBF7F307FB131140EAD2
S31508008DD001410EFB03F0884208D91CEB010103F19F
S31508008DE0FF3802D2884200F2CB804346091AA4B261
S31508008DF0B1FBF7F007FB101144EA01440EFB00FE35
S31508008E00A64508D91CEB040400F1FF3102D2A64599
S31508008E1000F2BB800846A4EB0E0440EA03409CE738
S31508008E20C6F12007B34022FA07FC4CEA030C20FAE5
S31508008E3007F401FA06F31C43F9404FEA1C4900FA05
S31508008E4006F3B1FBF9F8200C1FFA8CFE09FB181182
S31508008E5040EA014108FB0EF0884202FA06F20BD9F5
S31508008E601CEB010108F1FF3A80F08880884240F245
S31508008E708580A8F102086144091AA4B2B1FBF9F089
S31508008E8009FB101144EA014100FB0EFE8E4508D984
S31508008E901CEB010100F1FF346CD28E456AD9023809
S31508008EA0614440EA0840A0FB0294A1EB0E01A142EE
S31508008EB0C846A64656D353D05DB1B3EB080261EB5C
S31508008EC00E0101FA07F722FA06F3F1401F43C5E936
S31508008ED0007100263146BDE8F087C2F12003D8406C
S31508008EE00CFA02FC21FA03F3914001434FEA1C47AE
S31508008EF01FFA8CFEB3FBF7F007FB10360B0C43EAA0
S31508008F00064300FB0EF69E4204FA02F408D91CEB4F
S31508008F10030300F1FF382FD29E422DD9023863444D
S31508008F209B1B89B2B3FBF7F607FB163341EA0341ED
S31508008F3006FB0EF38B4208D91CEB010106F1FF383C
S31508008F4016D28B4214D9023E6144C91A46EA004633
S31508008F5038E72E46284605E70646E3E61846F8E6C5
S31508008F604B45A9D2B9EB020864EB0C0E0138A3E70E
S31508008F704646EAE7204694E74046D1E7D0467BE7EF
S31508008F80023B614432E7304609E76444023842E767
S31508008F9003685A004CBF43F0004323F000431844CB
S31508008FA0704700BF2DE9F84329B34F1E04461546FE
S31508008FB03E464FF0000808EB060101EBD171491057
S31508008FC004EBC1094846FFF7E3FF0346C80008302B
S31508008FD08F42204409D0AB4209D8FFF7D9FF0138A0
S31508008FE0A8420AD201F10108E5E7AB4205D988454E
S31508008FF001D04E1EDFE74FF000094846BDE8F8836A
S31508009000012807D0022807D0044B00280CBF1846B1
S31508009010002070470248704702487047D9960008F2
S31508009020DD960008E196000830B5234B83B0044668
S315080090308D1E3BB301A92846AFF30080E8B101991C
S315080090402A46FFF7AFFF0146B8B1FFF7A1FF4B6805
S31508009050A064012B2CD0002B01F1040024DBFFF7C0
S3150800906097FF0023C4E913030368002B11DBFFF7FE
S315080090708FFF2061002003B030BD00230920236143
S3150800908003B030BD0D4B0E49C91AC91018460191D7
S31508009090D6E7C3F30360FFF7B3FF0028206114BFC8
S315080090A00020092003B030BD0123C4E91303DBE720
S315080090B0002323610520DEE7000000004896020829
S315080090C0209702080368DA0710B5044606D49B07FA
S315080090D000F1480009D500F05BFC2368590709D55B
S315080090E01A070ED5DB0613D510BD00F049FC236818
S315080090F05907F5D404F1D00000F052FC23681A078A
S31508009100F0D404F5A87000F053FC2368DB06EBD412
S3150800911004F5E870BDE8104000F08EBC09207047E1
S315080091200346006800B11844704700BF704700BF87
S3150800913070B504460E46316C2046FFF775FF0546A6
S3150800914088B9326C62612369324621460120984704
S315080091500828F0D0072806D12846316CFFF7E6FF25
S31508009160301D00F001FC1BF01DFD00BF2DE9F04786
S315080091700D1DD0F80C80D0F81890074614460FCD70
S31508009180ADF5727D0DF10C0CACE80F000FCDACE817
S315080091900F000FCDACE80F0095E80F0002AE4FF0B8
S315080091A0000E8CE80F00C6F800E020E0336C7B6107
S315080091B04FF4F07231467AA800F0F4FE3B697AAAB9
S315080091C0394650469847889B73642146CDE900691D
S315080091D005463B463A460120C0470446E0B94FF4E7
S315080091E0F0727AA9304600F0DDFE082D1AD1316CEE
S315080091F03846FFF719FF09345FFA84FA054600284E
S31508009200D4D0B36B73643A46CDE900693B464AF05D
S3150800921010010120C04700B1092528460DF5727DC9
S31508009220BDE8F087072DF7D12046316CFFF77EFFA2
S3150800923003A800F099FB00BF406C7047F0B5CB6BF4
S315080092400B6401F1040C0E460546BCE80F00F9B0A4
S3150800925001AC0FC4BCE80F000FC4BCE80F000FC474
S315080092609CE80F004FF0FF3784E80F00009706E0F0
S315080092702B696A46294698470828044608D1109952
S315080092802846FFF7D1FE0028F2D0092079B0F0BDB4
S315080092906846FFF717FF062CF7D131462846FFF731
S315080092A047FF00BFC160D96B826119640022194665
S315080092B05CE700BF70B5C66843690B64AEB903695D
S315080092C00A4604460D46014602209847072805D057
S315080092D008280FD129462046FFF72AFF3046296C71
S315080092E0FFF724FF281D00F03FFB0122FFF73EFF92
S315080092F01BF058FC1BF056FCC2681AB1CA6B0A640C
S31508009300002233E79AE700BF704700BF836801462B
S315080093100BB1012018477047012912D009D873B933
S315080093200F2A0CD800EB820218465368009A13607D
S3150800933070470339012994BF012002207047022093
S3150800934070470846704700BF00B585B00A46002337
S3150800935003A900911946FFF7DFFF039805B05DF8EA
S3150800936004FB00BF012912D009D873B90F2A0CD8FB
S3150800937000EB8200009A126842601846704703396B
S31508009380012994BF01200220704702207047084631
S31508009390704700BF10B584B0002303AC0392009455
S315080093A00A461946FFF7DEFF04B010BD70B5D36B49
S315080093B0136402F1040C05460C46BCE80F00ADF533
S315080093C00E7D0DF15C0EAEE80F00BCE80F00AEE8AE
S315080093D00F00BCE80F00AEE80F009CE80F004FF046
S315080093E0FF368EE80F00169610E0FFF7D3FF2146EA
S315080093F016A8A847034616AA6946082083B9049BF7
S315080094009847052806460CD0092809D026996846A3
S31508009410FFF70AFE03466A460C2116A8002BE4D07D
S31508009420092616A8FFF74EFE30460DF50E7D70BDCF
S315080094302DE9F04FCC6C89B01E4654F8043B0694CF
S315080094400D46174600F00308002E79D01A0C1B04A7
S3150800945005938DF81D200223D2B204EB82048DF801
S315080094601C302B6DB8F1020F08BFAC6B13F001036B
S315080094700CD005A9384600F079FB18B9082009B0C0
S31508009480BDE8F08F092009B0BDE8F08FD4F800A038
S31508009490BAF1000FEDD0019300F008030293022EF3
S315080094A04AD0B4F800A0B4F802900434AB6C29F0A2
S315080094B0010B0F2138469B44FFF746FF834539D8F1
S315080094C02AF001039B44834594BF002001204FEAFC
S315080094D0490303F002030AF0010A43EA0A03012BCF
S315080094E049D0022B32D0002BCCD1B8F1000F02D0D4
S315080094F0002840F0CD800434D4F800A0BAF1000F5B
S31508009500CDD105A9384600F031FB0028BAD1019B18
S31508009510002BB3D00F213846FFF716FF0E2102465F
S315080095203846FFF737FF38466A4A0F21FFF732FFFA
S315080095300720A8E70020CAE7D4F804900834B5E75E
S315080095401B0205930323ADF81C308AE7236823F032
S31508009550004BB8F1000F45D128B1029A002A5CD019
S31508009560BBF1000F74D0002B00DA04340BF1010BA9
S3150800957004EB8B04C0E7B8F1000F19D1B0B16368EA
S315080095802268991C4FEAD2723FF47CAF05F1580164
S315080095900133049100F09080201DFFF7C1FD04AB54
S315080095A001462846AFF3008000285BD10834A3E7BC
S315080095B00D213846D5F82090FFF7C6FE8145F5D12E
S315080095C0AB6A9C42F2D12046FFF7E2FC0F21024625
S315080095D03846FFF7DFFE38462A460021FFF7DAFE4F
S315080095E0072050E70D213846D5F82090FFF7ACFE46
S315080095F0814501D02368B6E7AB6A9C42FAD10423B9
S315080096000022C5E90B23E318C5F828B06B63236865
S31508009610002B59DB01230193A8E705F15803CDF880
S315080096200C8004F1040AB04691461E460EE05046E8
S315080096300496FFF775FD0022014604AB284609F19A
S3150800964001090AF1040AAFF30080E0B9D945EED161
S315080096500D213846FFF778FE049BAC62C5E908037E
S31508009660062010E781460D213846FFF76DFEB9F151
S31508009670020F286225D12B46049A43F82C2F6B62D9
S31508009680AC620620FFE646462368DDF80C806AE7EA
S315080096902046FFF77DFC04340246AC632846144690
S315080096A0AFF3008000283FF4EDAE384622460F217E
S315080096B0FFF770FE0720E6E60D213846FFF744FE61
S315080096C02862049B6B62DBE70BF1010004EB800068
S315080096D07AE700BF000000000023A9E60123A7E6F9
S315080096E00223A5E62DE9F0430646C3B015461C46F7
S315080096F0042900F2BF80DFE801F09E57BD2D030064
S31508009700002C40F0B780102A00F2B4800368D8060F
S3150800971000F1F98020AF384600F098F9B46B394665
S3150800972000234FF0010C0CFA03F22A42204603F1FB
S31508009730010303D050F8042B0A600446042B01F1F8
S315080097400401F0D13846B46300F076F9002043B03E
S31508009750BDE8F083032C40F08D8094B204EB1243ED
S31508009760102B4FEA124500F2858003681F0700F1A7
S31508009770D28020AF384600F03DF9B26B07EBC50141
S3150800978054B10B46D01A01EBC401E4001D5843F846
S31508009790045B8B42FAD122443846B26300F008F9DA
S315080097A0002043B0BDE8F083012C4FEA124895B279
S315080097B05CD0052C5ED108EB0509B9F1200F59D804
S315080097C0B8F10F0F79D9A946002D40F08A80B36BFE
S315080097D06DB320AF4FF0000907EBC807043F03EB52
S315080097E0C50553F8041B47F8041FAB42F9D1B9F174
S315080097F0000F0FD06F464146102938BF102107EBDE
S31508009800C101843903EBC90553F8040B41F8040F69
S31508009810AB42F9D1012C00F08680B8F10F0FB56381
S3150800982047D9B9F1000F02D0684600F0B9F8002010
S3150800983043B0BDE8F083ECB9806B23461FFA82FC7F
S315080098400124371D04FA03F212EA0C0F014604D06C
S3150800985051F8042B47F8232008460133102BF1D181
S3150800986015F40055E3D1B063284604E008EB050378
S31508009870102B03D9022043B0BDE8F083B8F10F0FCF
S31508009880F8D83368DA0706D5304623F0030340F8DC
S31508009890483B00F079F820AF384600F075F8B36B0E
S315080098A0002D97D11D460435B563384600F068F893
S315080098B0BDE720A800F06CF8B3E7B9F1100F40D95E
S315080098C0A9F110093368D90708D523F001033046F2
S315080098D043F0020340F8483B00F05EF8B9F1000F88
S315080098E032D033685A0720D4B8F10F0F25D96F46FE
S315080098F03846C8F1100500F057F8002DB36B7FF70E
S315080099007AAF20AF68E723F01003336006F5E870F6
S3150800991000F09CF8FEE623F00803036000F5A87043
S3150800992000F068F825E720AFBDE7304623F00403CA
S3150800993040F8D03B00F038F8D6E720A800F02CF81D
S31508009940D5E74FF00009BDE7B8F10F0F3FF63FAF77
S3150800995020AF384600F020F8B36B002D7FF43AAFFD
S31508009960384600F015F862E700F1340191E838004E
S315080099709C46A6464CF8045D90E8FF0FE54600BDF8
S3150800998090EC210B704700BF80EC210B704700BF9D
S3150800999090EC200B704700BF80EC200B704700BF8F
S315080099A0D0EC200B704700BFC0EC200B704700BFFF
S315080099B0F0EC0201F0EC0211F0EC0221F0EC0231BD
S315080099C0F0EC0241F0EC0251F0EC0261F0EC0271AD
S315080099D0F0EC0281F0EC0291F0EC02A1F0EC02B19D
S315080099E0F0EC02C1F0EC02D1F0EC02E1F0EC02F18D
S315080099F0704700BFE0EC0201E0EC0211E0EC022146
S31508009A00E0EC0231E0EC0241E0EC0251E0EC0261EC
S31508009A10E0EC0271E0EC0281E0EC0291E0EC02A1DC
S31508009A20E0EC02B1E0EC02C1E0EC02D1E0EC02E1CC
S31508009A30E0EC02F1704700BFB0FC0181B0FC019177
S31508009A40B0FC01A1B0FC01B1704700BFA0FC0181C8
S31508009A50A0FC0191A0FC01A1A0FC01B1704700BFC8
S31508009A60EC4600B52DE900502DE9FF1F4FF0000325
S31508009A702DE90C0001A9FFF7E1FBDDF840E012B083
S31508009A80704700BFEC4600B52DE900502DE9FF1FD1
S31508009A904FF000032DE90C0001A9FFF70BFCDDF8D8
S31508009AA040E012B0704700BFEC4600B52DE9005003
S31508009AB02DE9FF1F4FF000032DE90C0001A9FFF760
S31508009AC01BFCDDF840E012B0704700BFEC4600B55D
S31508009AD02DE900502DE9FF1F4FF000032DE90C007A
S31508009AE001ABFFF7DFFBDDF840E012B0704700BFBF
S31508009AF0EC4600B52DE900502DE9FF1F4FF0000395
S31508009B002DE90C0001AAFFF751FCDDF840E012B080
S31508009B10704700BF027A03467AB9427AA2B1416811
S31508009B20013A10B44272086803220C1D1A72020226
S31508009B305C60000E10BC1A6070470068013A1A7221
S31508009B4002021A60000E7047B020704700B585B053
S31508009B50002303AA009219460C22FFF7DDFB03989F
S31508009B6005B05DF804FB00BFF0E700BF2DE9F04340
S31508009B70054685B00E464FF000083046FFF7CAFF87
S31508009B80B028044600F0BA80070620D500F0F00396
S31508009B90802B4DD0902B36D0A02B60D0B02B74D014
S31508009BA0C02B00F08B8000F0F803D02B0BD100F00F
S31508009BB007020132052342F4002201212846FFF755
S31508009BC091FD0028D9D0092005B0BDE8F0838300AF
S31508009BD0DBB21F1D0DF10C0900231946CDF80090C4
S31508009BE00D222846FFF798FB039BCDF800906006E8
S31508009BF04CBFDF1BFF1800230D2219462846039782
S31508009C00FFF7B0FBB9E700F00D030D2BDBD003AF70
S31508009C10002300F00F02194600972846FFF77CFB41
S31508009C20002300970D2219462846FFF79BFBA4E759
S31508009C303046FFF76FFF24022043B0F5004FC2D02D
S31508009C4004010023A2B219462846FFF74BFD002857
S31508009C50B9D114F4004F18BF4FF001088DE7C2437D
S31508009C6002F007034FF47F621A41010702F47F628C
S31508009C704FF0000348BF42F4804219462846FFF7D2
S31508009C8031FD00283FF479AF9DE7B1283BD0B228D3
S31508009C9000F09380B32841D000F0FC03B42B92D097
S31508009CA000F007020132012342F400221946284631
S31508009CB0FFF718FD00283FF460AF84E7C6284AD0AE
S31508009CC0C72854D000F0F803C02B63D0C82868D042
S31508009CD0C9287FF478AF3046FFF71CFF020300F06F
S31508009CE00F0002F4702201300243012105232846A1
S31508009CF0FFF7F8FC00283FF440AF64E7B8F1000F1F
S31508009D0018D0002060E73046FFF704FF0246002817
S31508009D103FF459AF10F0F003C8D054E73046FFF7C8
S31508009D20F9FE020300F00F03013302F470221A430E
S31508009D300123BBE703AC43460E224146009428465E
S31508009D40FFF7EAFA009443460F2241462846FFF7F2
S31508009D5009FB404638E73046FFF7DCFE020300F011
S31508009D600F03013302F470221A4303239EE7304699
S31508009D70FFF7D0FE024600283FF425AF10F0F003A7
S31508009D807FF421AF04212846FFF7ACFC00283FF4F6
S31508009D90F4AE18E700F00F020132032342F4202242
S31508009DA084E73046FFF7B6FE00F0F00200F00F0336
S31508009DB01032013343EA023297E700230DF10C090A
S31508009DC00D221946CDF800902846FFF7A5FA304629
S31508009DD0FFF7A0FE02064FF002040CD5039B00F025
S31508009DE07F00A040184403903046FFF793FE030611
S31508009DF004F10704F2D4039BCDF8009000F07F022B
S31508009E00A24003F501731A440023039219460D2252
S31508009E102846FFF7A7FAB0E610B5C26C536884B0B7
S31508009E204FF0030C08321C0208461B0E01A90194C8
S31508009E3002928DF80CC08DF80D30FFF797FE04B02E
S31508009E4010BD00BF08B5FFF78FFE806C08BD00BFC8
S31508009E5008B5FFF789FEC06CC379023300EB8300AF
S31508009E6008BD00BF704700BF4FF0FF3C06E000BFCB
S31508009E704FF0010C02E000BF4FF0010C4DF804CD85
S31508009E804FEA410C7FEA6C5C4FEA430C18BF7FEA45
S31508009E906C5C1BD001B050EA410C0CBF52EA430C73
S31508009EA091EA030F02BF90EA020F0020704710F1F3
S31508009EB0000F91EA030F58BF994208BF90422CBF82
S31508009EC0D8176FEAE37040F0010070474FEA410C7B
S31508009ED07FEA6C5C02D150EA013C07D14FEA430C99
S31508009EE07FEA6C5CD6D152EA033CD3D05DF8040B0A
S31508009EF0704700BF8446104662468C46194663463C
S31508009F0000E000BF01B5FFF7B7FF002848BF10F112
S31508009F10000F01BD4DF808EDFFF7F4FF0CBF012057
S31508009F2000205DF808FB00BF4DF808EDFFF7EAFFD3
S31508009F3034BF012000205DF808FB00BF4DF808ED8E
S31508009F40FFF7E0FF94BF012000205DF808FB00BF83
S31508009F504DF808EDFFF7CEFF94BF012000205DF80D
S31508009F6008FB00BF4DF808EDFFF7C4FF34BF01201A
S31508009F7000205DF808FB00BF4FEA410C7FEA6C5CE5
S31508009F8002D150EA013C0AD14FEA430C7FEA6C5CE5
S31508009F9002D152EA033C02D14FF0000070474FF05D
S31508009FA001007047844641EA000313F003036DD1AC
S31508009FB0403A41D351F8043B40F8043B51F8043B7E
S31508009FC040F8043B51F8043B40F8043B51F8043B85
S31508009FD040F8043B51F8043B40F8043B51F8043B75
S31508009FE040F8043B51F8043B40F8043B51F8043B65
S31508009FF040F8043B51F8043B40F8043B51F8043B55
S3150800A00040F8043B51F8043B40F8043B51F8043B44
S3150800A01040F8043B51F8043B40F8043B51F8043B34
S3150800A02040F8043B51F8043B40F8043B51F8043B24
S3150800A03040F8043B403ABDD2303211D351F8043BC4
S3150800A04040F8043B51F8043B40F8043B51F8043B04
S3150800A05040F8043B51F8043B40F8043B103AEDD273
S3150800A0600C3205D351F8043B40F8043B043AF9D2C4
S3150800A070043208D0D2071CBF11F8013B00F8013B97
S3150800A08001D30B8803806046704700BF082A13D3A4
S3150800A0908B078DD010F003038AD0C3F10403D21ABC
S3150800A0A0DB071CBF11F8013B00F8013B80D331F8F0
S3150800A0B0023B20F8023B7BE7043AD9D3013A11F870
S3150800A0C0013B00F8013BF9D20B7803704B784370DB
S3150800A0D08B7883706046704700000000000000001F
S3150800A0E00000000000000000000000000000000062
S3150800A0F00000000000000000000000000000000052
S3150800A10090F800F06DE9024520F007016FF0000CA9
S3150800A11010F0070491F820F040F049804FF0000451
S3150800A1206FF00700D1E9002391F840F000F108002C
S3150800A13082FA4CF2A4FA8CF283FA4CF3A2FA8CF364
S3150800A1404BBBD1E9022382FA4CF200F10800A4FACB
S3150800A1508CF283FA4CF3A2FA8CF3E3B9D1E904231F
S3150800A16082FA4CF200F10800A4FA8CF283FA4CF356
S3150800A170A2FA8CF37BB9D1E9062301F1200182FA10
S3150800A1804CF200F10800A4FA8CF283FA4CF3A2FA16
S3150800A1908CF3002BC6D0002A04BF04301A4612BA24
S3150800A1A0B2FA82F2FDE8024500EBD2007047D1E927
S3150800A1B0002304F00305C4F100004FEAC50514F0B6
S3150800A1C0040F91F840F00CFA05F562EA05021CBF87
S3150800A1D063EA050362464FF00004A9E700000000A1
S3150800A1E001F0FF01102A2BDB10F0070F08D010F83A
S3150800A1F0013B013A8B422DD010F0070F42B3F6D13E
S3150800A200F0B441EA012141EA014122F007047FF056
S3150800A21000070023F0E80256083C85EA010586EAAD
S3150800A220010685FA47F5A3FA87F586FA47F6A5FAE9
S3150800A23087F68EB9EED1F0BC01F0FF0102F00702F5
S3150800A24032B110F8013B013A83EA010313B1F8D1A0
S3150800A2500020704701387047002D06BF3546033881
S3150800A260073815F0010F07D1013015F4807F02BFBA
S3150800A270013015F4C03F0130F0BC0138704700BF0B
S3150800A2802DE9F04FB0FBF1FC1D4601FB1C0385B020
S3150800A290D35CDDF838808DF8043001AFDDE90F9620
S3150800A2A0BE46012400E09C46814260460AD8BCFBB3
S3150800A2B0F1F301FB13CC013412F80CC00EF801CFF0
S3150800A2C00B2CF0D1B8F1000F2AD005B1013DB9F138
S3150800A2D0000F01D02D20B047AC421BD2B9F1000FB8
S3150800A2E014BF4FF0300B4FF0200BA24658460AF128
S3150800A2F0010AB047AA45F9D3B8F1000F0AD1013CC3
S3150800A3003C442078B047BC4204F1FF34F9D105B08B
S3150800A310BDE8F08FB9F1000FF1D12D20B047EEE777
S3150800A320AC42DBD3EBE700BF2DE9F04F834682460C
S3150800A3301BF8010B85B0002859D0DFF88091DFF8AB
S3150800A34080815D4F0E461446002507E0A047DA4691
S3150800A3500BF1010B9AF80000002848D02528F5D102
S3150800A360042DF3D89AF80120302A46D00AF1020AB9
S3150800A3700020A2F13003092B4FF000030BD803EBA2
S3150800A380830302EB43031AF8012BA2F130010929D2
S3150800A390A3F13003F3D96C2A2CD002F0DF0154293B
S3150800A3A028D0782A1DD8572A15D9583A202A18D8D5
S3150800A3B0DFE802F056171717171717171717176436
S3150800A3C06B17171717171717171717172917173789
S3150800A3D0174817172900002A6AD0252A01D11046DE
S3150800A3E0A0470AF1010B9AF800000028B6D105B07B
S3150800A3F0BDE8F08F1AF8012BD3E79AF8022001205E
S3150800A4000AF1030AB5E7CDE901040022009256F8DD
S3150800A410250042461021FFF733FF01350AF1010BEB
S3150800A42098E756F825B01BF8010B01350028D8D057
S3150800A430A0479BF800000BF1010B0028F8D10AF1A0
S3150800A440010BD0E7CDE901040022009256F8250059
S3150800A4503A460A21FFF714FF01350AF1010B79E79D
S3150800A460CDE901040022009256F825004A4610213B
S3150800A470FFF706FF01350AF1010B6BE716F8250011
S3150800A480A04701350AF1010B64E756F82520002A92
S3150800A490CDE90104ABBF10465042002201220092CA
S3150800A4A00A213A46FFF7ECFE01350AF1010B9AE755
S3150800A4B0D3460AF1FF3A4DE7F0590208DC5902087B
S3150800A4C0FC5902080268012A10B503460C4602D058
S3150800A4D0022A0BD010BD80680A4603F10C01FFF76B
S3150800A4E023FF23460A20BDE8104018470A460248BB
S3150800A4F003F10801F3E700BFA459020810B582B0BA
S3150800A50003460A460C460448019301A9FFF70CFFC7
S3150800A5100A20A04702B010BDC459020830B501236D
S3150800A520036081600C789E4644B1BEF1050F05D8DC
S3150800A530252C04D011F8014F002CF6D130BD4B78EC
S3150800A54001F1020CA3F13001092905D81CF8013BD9
S3150800A550A3F130010929F9D96C2B5BD003F0DF018F
S3150800A56054291DD0002B00F0B480583BD9B22029BD
S3150800A57000F2B580202B00F2B280DFE803F040B08D
S3150800A580B0B0B0B0B0B0B0B0B04040B0B0B0B0B09D
S3150800A590B0B0B0B0B0B030B0B030B040B0B040003D
S3150800A5A0614611F8014B002C00F09780583CE5B243
S3150800A5B0202D7FD8202C7DD8DFE804F01C7C7C7CFD
S3150800A5C07C7C7C7C7C7C7C227F7C7C7C7C7C7C7C14
S3150800A5D07C7C7C7C127C7C127C1C7C7C1C0061460E
S3150800A5E00EF1020352F8044B40F823400EF1010E17
S3150800A5F00C7899E7742B03D0542B64D08C466146AB
S3150800A60052F8044B0EF102030EF1010E40F82340F6
S3150800A6100C7889E7614611F8014B002C5DD0583C4F
S3150800A620E3B2202B46D8202C44D801A353F824F0B3
S3150800A63001A60008B5A60008B5A60008B5A6000834
S3150800A640B5A60008B5A60008B5A60008B5A6000870
S3150800A650B5A60008B5A60008B5A6000801A6000814
S3150800A66001A60008B5A60008B5A60008B5A6000804
S3150800A670B5A60008B5A60008B5A60008B5A6000840
S3150800A680B5A60008B5A60008B5A60008B5A6000830
S3150800A690E1A50008B5A60008B5A60008E1A50008CA
S3150800A6A0B5A6000801A60008B5A60008B5A60008C4
S3150800A6B001A600089CF8014036E76C2BA0D0742B45
S3150800A6C09ED0542B9CD1073222F0070252F8084B31
S3150800A6D098E71CF8014C0CF1FF3C614624E79CF80E
S3150800A6E00040614620E700BF10B513481AF0FEFB8C
S3150800A6F012481AF0FBFB10481AF0F8FB442001F048
S3150800A700A7F8044601E001F0FFFF204601F0C2F871
S3150800A710034642F21070002BF5D045224121422013
S3150800A72000F010F806481AF0E1FB022002F0DAF908
S3150800A730BDE8104002F040B8105A0208345A020820
S3150800A740585A020870B5054610460C4601F036F808
S3150800A7500D4B0E4E024628461A6001F0B1F8034624
S3150800A7602046336001F0ACF8094C01220346114635
S3150800A7703068236001F0C6F820680122BDE8704001
S3150800A780002101F0BFB800BF08100020001000200B
S3150800A79004100020114B10B5186801F039F8C0F103
S3150800A7A02D0307EE903A9FED0E7A0E4BF8EEE77AF8
S3150800A7B0186867EE877AFDEEE77A17EE903A1CB2CC
S3150800A7C004F13C0101F0ACF8074BC4F13C011868F0
S3150800A7D001F0A6F8BDE8104001F0EEBF0810002011
S3150800A7E0CDCCCC3E001000200410002008B500F0A7
S3150800A7F05BFFFEE74FF0FF30704700BF03380428C1
S3150800A80004D84FF400534B6000207047024B0922CE
S3150800A8101A604FF0FF307047F08E01200120704714
S3150800A820024B16221A604FF0FF307047F08E012057
S3150800A830002070470338042805D9044B09221A60FA
S3150800A8404FF0FF3070470120704700BFF08E01209F
S3150800A85008B5C31E042B05D8023800F05FF940EA94
S3150800A860E07008BD024B09221A604FF0FF3008BDA0
S3150800A870F08E012008B5C31E042B05D8023800F057
S3150800A8802BF940EAE07008BD024B09221A604FF026
S3150800A890FF3008BDF08E012010B50C4888B04FF483
S3150800A8A0004101F0FDF90A4A106008B108B010BD70
S3150800A8B00849094B0291C02202246946CDE90323BF
S3150800A8C0009400F0E9F900F031FEFEE700200020D0
S3150800A8D000A000206C5A0208AC5A020810B582B0D3
S3150800A8E00120019102F026F8054B0199186801F03C
S3150800A8F0FDF90446012001F0BBFF204602B010BD59
S3150800A90000A0002010B5012082B0CDE9002102F098
S3150800A91011F8064BDDE90021186801F083FA0446B0
S3150800A920012001F0A5FF204602B010BD00A00020BE
S3150800A93000B583B00120019101F0FCFF054B019998
S3150800A940186801F00BFA012003B05DF804EB01F07A
S3150800A9508FBF00BF00A000200EB410B58BB00DAAA3
S3150800A960044652F8041B019202A8FFF7D7FD02A974
S3150800A970204600F091F90BB0BDE8104003B07047CF
S3150800A98008B504490620FFF7E7FF04F05BFF02F06D
S3150800A99014FFFEE7C05A020801F004BE012001F0C8
S3150800A9A04BBE00BF10B582B00C461A460449009447
S3150800A9B003460020FFF7D0FF00F0B8FDFEE700BF12
S3150800A9C0DC5A0208704700BF704700BF704700BFD7
S3150800A9D0704700BF704700BF10B4074B074C0022F2
S3150800A9E03F201F21C3E90042C3E90222C3E904202C
S3150800A9F05DF8044B9961704704A00020345B020897
S3150800AA00704700BF704700BF704700BF406800F03E
S3150800AA1047BA00BF406800F08BBA00BF406800F034
S3150800AA2067BB00BF406800F0C7BA00BF406800F0C7
S3150800AA300FBC00BF406800F021BC00BF0849094BA5
S3150800AA4010B4002201F11C0401F13800C3E90A42DE
S3150800AA50C3E90012C3E914025DF8044B704700BF4E
S3150800AA60A05B020820A4002000F098BC00F098BC67
S3150800AA7000F098BC084600F097BC00BF084600F0F6
S3150800AA8095BC00BF704700BF00F0A4BC00F0B4BC82
S3150800AA9000F0B4BC084600F0B3BC00BF084600F09E
S3150800AAA0BFBC00BF704700BF704700BF00F0DEBCE8
S3150800AAB000F0DEBC00F0DEBC084600F0DDBC00BFDE
S3150800AAC0084600F0DBBC00BF704700BF00F0F8B8CE
S3150800AAD000F05CB900F022B970B504460D4616467A
S3150800AAE002F01CF9A8B9002C10DD0B4B5A68A242DB
S3150800AAF00CDB04F180441B68013C324653F8240001
S3150800AB00036829469B68BDE8704018476FF0110036
S3150800AB1070BD6FF0180070BD2C5B020870B5044656
S3150800AB200D46164602F0FAF8A8B9002C10DD0B4BB4
S3150800AB305A68A2420CDB04F180441B68013C324689
S3150800AB4053F8240003682946DB68BDE870401847B7
S3150800AB506FF0110070BD6FF0180070BD2C5B020815
S3150800AB6000F082BC2DE9F04F0D4689B0EFF310874F
S3150800AB7072B6264C0126636986401E4223D0244AB3
S3150800AB80E368D2F800908E46D16803F1010801EB1C
S3150800AB90431A204BD3F800B0BEE80F00D446ACE801
S3150800ABA00F009EE80F00C8458CE80F0028BF002359
S3150800ABB0CAF804B0C4F80C8028BFE36063689945F6
S3150800ABC00BD901336360A3691E420ED1012F00D051
S3150800ABD062B6002009B0BDE8F08FE368A360236978
S3150800ABE001332361A3691E42F0D00A4B2C461E6826
S3150800ABF00FCC6D460FC594E80F0085E80F0006498F
S3150800AC0001966846FFF75EFCE0E700BF04A0002057
S3150800AC10345B0208002B012061AB0008F0B583B055
S3150800AC20EFF3108272B6012A29D0194C65680026FE
S3150800AC3005B3184AA168D36803EB411E136801934C
S3150800AC404F1C8446BEE80F00ACE80F009EE80F00D4
S3150800AC508CE80F00019B20699F4228BF002305F15D
S3150800AC60FF35C4E9015728BFA360002323611EB13D
S3150800AC7003B0F0BD6FF0280062B603B0F0BD044C17
S3150800AC8065681646002DD4D16FF02800F0E700BF9E
S3150800AC9004A00020345B0208FFF764BF00B583B048
S3150800ACA0034601220DF1070103488DF8073000F02D
S3150800ACB083F903B05DF804FB20A4002000F0D4BBA0
S3150800ACC030B51248124D134C89B000F0E9F8124B12
S3150800ACD002930122694605200092FFF7DDFF6846C8
S3150800ACE0FFF79CFF002809DB0CD121466846FFF7D1
S3150800ACF0E9FB6846FFF792FF0028F5DA286801F0B5
S3150800AD0003FDECE72146FFF7F9FBEEE720A4002058
S3150800AD10445B02089DAC0008605C0208F0B5184D5B
S3150800AD208BB003E09DF8070000F09EFB0DF10701CC
S3150800AD30284600F019FB04460028F3D102A8FFF7BD
S3150800AD406DFF051E0F4E104F0CDB6CB19DB93146D9
S3150800AD5002A8FFF7B7FB02A8FFF760FF051E4FF032
S3150800AD600104F2DA0BB0F0BD214632463846FFF749
S3150800AD70DBFA002DEBD031462846FFF7BFFBE6E7A6
S3150800AD8020A40020BDAC0008805C020810B50B4B5F
S3150800AD900B4988B0D3E90023029101240320072137
S3150800ADA0CDE903010094694600240520CDE9054252
S3150800ADB00793FFF771FF08B010BD00BF805B02085C
S3150800ADC09C5C02080EB400B58AB00CAA02A8064913
S3150800ADD00192FFF7A3FB02A90020FFF75DFF0AB067
S3150800ADE05DF804EB03B07047F85D02080A2970B5F0
S3150800ADF00E46044602D1C368DB0626D401F0F0FEEF
S3150800AE00002846DB2268236A9269D6542268236A98
S3150800AE101569616A0133AB4201F101012362A5EBB1
S3150800AE20010504BF00232362B5FA85F5012961628D
S3150800AE304FEA551503D110680368DB68984701F097
S3150800AE40E3FE002825DB284670BD0D21FFF7CEFF5F
S3150800AE50051EF8DBD2D0636A23B123681868036835
S3150800AE609B68984723685B68186801F063FD051EB0
S3150800AE70C4DA0A492A460020FFF7A4FF05F135037C
S3150800AE80DBB2042B05D8012202FA03F313F0150FDF
S3150800AE90D9D10123A3606FF00405D4E7F85D020851
S3150800AEA070B5044601F03AFF00283ED123681868B9
S3150800AEB003681B68984701F0B9FE002830DB65680F
S3150800AEC03DB16FF0280501F0DDFE002828DB284695
S3150800AED070BD40F21153C4E90335C4E90555C4E908
S3150800AEE00755656201F07CFE002816DB23681868A2
S3150800AEF0036801211B6998472368186803680221BB
S3150800AF00DB6801269847C4E9016501F07DFE002843
S3150800AF10D9DAA6606FF00405D5E76FF00405D2E725
S3150800AF200123A3606FF00405D1E76FF01805CEE79B
S3150800AF3070B5044601F0F2FE002835D1054601F049
S3150800AF4075FE002833DB63683BB96FF0280601F00D
S3150800AF5099FE00282BDB304670BD01F041FE2368C0
S3150800AF600646186803685B689847656001F04CFEFA
S3150800AF7023685B6800281868ACBFF60F012601F045
S3150800AF8033FD23689B680028186806DB01F02CFD52
S3150800AF90002804DB002EDAD001E001F025FD0123AC
S3150800AFA0A3606FF00406D2E76FF01806D3E7012313
S3150800AFB0A3606FF00406CEE72DE9F04105460F467B
S3150800AFC0904601F0ABFE002840F089806B68002BA4
S3150800AFD000F08880AE68002E7ED12B685B68186802
S3150800AFE001F0A8FC041E51DBB8F1000F63D017F876
S3150800AFF0011B2846FFF7FAFE041E32DB0136B04570
S3150800B00025D0002CF3D06B6A23B12B681868036827
S3150800B0109B6898472B685B68186801F08BFC041ED0
S3150800B020E5DA002031492246FFF7CCFE04F1350067
S3150800B030C0B2042805D8012303FA00F010F0150F52
S3150800B04001D10123AB6034462046BDE8F0816B6A26
S3150800B05063B12B68186803689B689847002C33D03F
S3150800B0600024002EEFD12046BDE8F081002CEAD15D
S3150800B0702B685B68186801F0FBFB0028E3DA0123FC
S3150800B080AB606FF00404002EEDD0DCE717492246CA
S3150800B0903046FFF797FE04F13503DBB2042B05D8DB
S3150800B0A0012202FA03F313F0150FCDD10123AB6089
S3150800B0B06FF00404C8E76E6A2B68002ED9D01868AA
S3150800B0C003689B68464698472B685B68186801F0D2
S3150800B0D0CFFB0028C4DAD2E76FF00404B4E76FF0B8
S3150800B0E01804B1E76FF02804AEE700BFF85D020860
S3150800B0F02DE9F04F83B004468846914601F00EFECE
S3150800B100002840F099806368002B00F09B80A568B2
S3150800B110002D40F09480B9F1000F31D02F4601265A
S3150800B120AA4636B123689B68186801F003FC051E19
S3150800B1304CDB01F055FD002858DB21682269CE68F2
S3150800B140A5694869531CB34214BF19465146013DC7
S3150800B15010F802B0A561216101F056FDB5FA85F631
S3150800B16000284FEA561641DB08F801BBE368DB07FF
S3150800B17007F1010708D4B945D3D1002D40D13D4682
S3150800B180284603B0BDE8F08F23685B68186801F0AD
S3150800B190D1FB021E3DDB59462046FFF727FE002855
S3150800B1A0EDDB08D0636A002BE5D0236818680368CE
S3150800B1B09B689847DFE723685B68186801F058FBC7
S3150800B1C00028EFDA0123A3603D46D9E71F492A463E
S3150800B1D00020FFF7F7FD05F13503DBB2042B05D890
S3150800B1E0012202FA03F313F0150F03D10123A3601A
S3150800B1F06FF00405002FC2D1284603B0BDE8F08FD2
S3150800B20023689B68186801F033FB0028DADB3D46A3
S3150800B210B6E70E4901920020FFF7D4FD019A02F124
S3150800B2203503DBB2042BCDD8012202FA03F313F05F
S3150800B230150FC7D03D46A3E76FF01805A0E76FF0D6
S3150800B24004059DE76FF028059AE700BFF85D020838
S3150800B25038B504460D4601F061FD28B9636833B177
S3150800B260A06838B9E56038BD6FF0180038BD6FF0D2
S3150800B270280038BD6FF0040038BD00BF38B5044655
S3150800B2800D4601F04BFD40B963684BB1A06850B953
S3150800B290A269636AC5E9002338BD6FF0180038BD96
S3150800B2A06FF0280038BD6FF0040038BD406A70475B
S3150800B2B038B5456A0446B5B10268C3699269D35C74
S3150800B2C00B700168C3690A6901339342C36104BFFD
S3150800B2D00023C361436A9A420DD0013B636201258C
S3150800B2E00BB1284638BD23681868036801211B6915
S3150800B2F09847284638BD4B68186801F0B9FA0028FF
S3150800B30001DB636AE9E70123A3606FF00405E8E758
S3150800B310036810B5DA680446806990421CD05A69F9
S3150800B3206369D15422686369D16801338B426361CA
S3150800B33004BF00236361A3691BB10133A361012024
S3150800B34010BD9368186801F093FA002806DBA36914
S3150800B3500133A3610120F3E7002010BD0123A36098
S3150800B3606FF0040010BD00BF43680BB1436A0BB908
S3150800B370184670470268C3699269D35C0B70026805
S3150800B380C369126901339342426AC36104BF002349
S3150800B390C361013A0123426218467047704700BFED
S3150800B3A0704700BF704700BF704700BF704700BFB7
S3150800B3B00148FFF77BBF00BF20A4002001460148D3
S3150800B3C0FFF776BF20A4002001460148FFF7A0BF7B
S3150800B3D020A4002010B500F06BF9064C01E001F03E
S3150800B3E093F9022003F076F903462046002BF6D09F
S3150800B3F010BD00BF40420F00704700BF06F0DCBF1B
S3150800B400012806D0022803D1034B01221A6070478F
S3150800B4107047024B18607047B0A80020B4A80020F7
S3150800B420012806D0022803D1044B00221A6070476F
S3150800B4307047034B00221A60704700BFB0A800206F
S3150800B440B4A800200148FFF731BF00BF48A4002078
S3150800B45001460148FFF72CBF48A4002001460148D1
S3150800B460FFF756BF48A40020704700BF704700BFCB
S3150800B470704700BF704700BF704700BF704700BFE6
S3150800B48008B5FFF79FFAFFF79FFAFFF79FFAFFF74E
S3150800B4909FFAFFF79FFAFFF79FFAFFF7B1FAFFF750
S3150800B4A0B1FAFFF7B1FAFFF7C9FAFFF7EBFAFFF7B8
S3150800B4B0F9FAFFF7F9FABDE80840FFF705BB00BF40
S3150800B4C001F00AB808B500F0E9FE01F0B9F901F093
S3150800B4D0D3FA01F037FCBDE8084001F047BC00BFCD
S3150800B4E008B500F057F8024A024B12681A6008BD00
S3150800B4F0506102080000002008B500F08FFD0A4BD5
S3150800B5001A6842F400721A601A6842F480621A6075
S3150800B5101A6842F480721A6000F076F8BDE80840AE
S3150800B520002000F041B800BF003C024008B5EFF328
S3150800B5300883EFF309836B4600F0E8FDFEE700BFDA
S3150800B54008B500F0E3FDFEE700B5002083B000F083
S3150800B5502BF800240194019BB3F5801F06DA019BA2
S3150800B56001330193019BB3F5801FF8DB002000F03F
S3150800B57043F8EFE700207047034A044B1068A3FB23
S3150800B58000308009704700BFAC2B0120D34D6210F4
S3150800B590704700BF034AD2F8883043F47003C2F8F4
S3150800B5A08830704700ED00E070B5044686B050B9A3
S3150800B5B00F4B00901A6B42F001021A631B6B03F0E3
S3150800B5C001030093009B0B4E012356F82400202507
S3150800B5D0022201A9CDE90332CDE9015302F01AF995
S3150800B5E056F824000022294602F0FCF906B070BD80
S3150800B5F00038024004000020024B202153F82000A6
S3150800B60002F0F5B90400002030B595B00023244AAD
S3150800B6100093116C234841F080511164126C02F0BA
S3150800B62080520092009A0193026822F4404242F442
S3150800B63000420260026802F440420221012401929B
S3150800B6404FF480004FF48032CDE90742CDE9093343
S3150800B650CDE90C31082460220E90042307A8CDE911
S3150800B6600F42CDE91113019D139102F0D1F980B96A
S3150800B67002200F240023CDE902404FF48052052111
S3150800B68002A8CDE90432069302F098FB20B915B05A
S3150800B69030BDFFF759FFEBE7FFF756FF15B030BD92
S3150800B6A0003802400070004008B501F073FBFEE761
S3150800B6B008B501F095FA054A054B106801221A707B
S3150800B6C002F07EFD01F0A0FA002008BDB4000020BB
S3150800B6D06C2A012010B50388B3F5806F18BFC3F331
S3150800B6E08702438882B008BFFF22B3F5806F8DF8C2
S3150800B6F0042018BFC3F38702838808BFFF220C46BD
S3150800B700B3F5806F14BFC3F38703FF2301A88DF831
S3150800B71005208DF8063004F01BF9E078032820D9B7
S3150800B720A378032B21D9B4F800C0BCF1270F25D97B
S3150800B730214AC3F1C80103FB01F182FB0123CA17A1
S3150800B740C2EB6312D2B2C0F1C8031B49A27000FB58
S3150800B75003F381FB0301DB17C3EB6113E37002B04C
S3150800B76010BD002200212180EDE7C3F1C80203FBCA
S3150800B77002F26423B2FBF3F2D2B2F3E7ACF114029D
S3150800B7801421120292FBF1F2D2B24FF0640E02FBC0
S3150800B79002F20EFB02F10914C1F1C801C3F1C80295
S3150800B7A00CFB01F103FB02F2B1FBFEF192FBFEF288
S3150800B7B089B2D2B2D7E700BF1F85EB5170B53D21DC
S3150800B7C088B001F003FC04AA0521064601F064FCD2
S3150800B7D060B9DDE90402069BADF8080001A902A8D4
S3150800B7E0ADF80A20ADF80C30FFF774FF064C074D8C
S3150800B7F0062344F8043B0FCD0FC495E8030084E8FC
S3150800B8000300304608B070BD702A012008000020E9
S3150800B81000B585B06A46052101F03EFC98B9DDE918
S3150800B8200023029913440B446422A0F1553002FB0D
S3150800B83003F300F1004080FB0312D817C0EB622027
S3150800B84005B05DF804FB002005B05DF804FB00BFF9
S3150800B85010B53F218AB001F0B9FB02AA06210446B9
S3150800B86001F01AFC0499089A094B0398DA60914288
S3150800B870C3E9001007DA01AA0421204601F00CFCEE
S3150800B88020460AB010BD002420460AB010BD00BFED
S3150800B890EC2A012000B583B001AA042101F0FCFBC3
S3150800B8A050B90198054B1B6804338342ACBF00208E
S3150800B8B0012003B05DF804FB4042F3E7EC2A0120BF
S3150800B8C070B582B0002401210646019401F0B6FC49
S3150800B8D0C82520B111E000F017FF013D0CD001A9E1
S3150800B8E0304605F067F80446082C4CF25030F2D082
S3150800B8F014B9019802B070BD204604F05BFB002025
S3150800B90002B070BD10B513464FF47A7205F07EF892
S3150800B910044608B9204610BD04F04CFB204610BD6D
S3150800B92010B5006801F03EFA044608B9204610BD75
S3150800B93004F040FB204610BD38B5084C084DAC4213
S3150800B94004D254F8043B9847AC42FAD3054B01227B
S3150800B9501A70BDE8384000F02FBF00BF30960208C5
S3150800B96030960208FC2A0120024A1378002BFCD0E4
S3150800B970704700BFFC2A01204B6823F003037F2B86
S3150800B98010B526D89B10002203EB421C00EB8C0C4A
S3150800B990DCF8744074B3C1E90240E16001F10B04BC
S3150800B9A024F0030401F1080EA64502D0FFF7BEFDF8
S3150800B9B0FEE7CCF87410012101FA02F401FA03F348
S3150800B9C0016900EB82022143016151690B4353610E
S3150800B9D010BDB3FA83F2C2F11A04E34083F02003E0
S3150800B9E0C2F1190203EB421C00EB8C0CDCF8744024
S3150800B9F0002CD0D1FFF79AFDFEE700BF70B5D1E95C
S3150800BA000245FDB10CB3E560AC6003EB421500EBF3
S3150800BA1085056E6F8E4200D070BDA0426C67FBD163
S3150800BA2000EB82050124696904FA03F321EA03039A
S3150800BA306B61002BF0D1036904FA02F223EA0202D1
S3150800BA40026170BDFFF772FDFEE7FFF76FFDFEE7C7
S3150800BA5038B551B37F291AD88B10002200EB82041F
S3150800BA6065694FF0FF3404FA03F32B4020D10369CC
S3150800BA70013294401C4019D094FAA4F2B2FA82F228
S3150800BA8000EB82035B699BB9FFF750FDFEE7B1FA4D
S3150800BA9081F3C3F11A0201239340013B0B44B3FA25
S3150800BAA083F4012CC4F1190219D10024204638BDAB
S3150800BAB0002B93FAA3F3B3FA83F308BF4FF0FF33CF
S3150800BAC003EB421400EB8404646F002CEED0656827
S3150800BAD025F00305A94208D9FFF728FDFEE7C4F1BA
S3150800BAE01A04E34083F02003B8E72146FFF786FFF0
S3150800BAF0DCE700BF421802F10F0302F10C0C23F039
S3150800BB0003039C4510B502D0FFF710FDFEE7436816
S3150800BB1023F00303A3EB010E01EB0E049C42AEF1E6
S3150800BB20040E02D0FFF702FDFEE7936803F0030355
S3150800BB3043EA0E03936023F003030B2B02F104027E
S3150800BB4016D9436803F0030319434160536833F079
S3150800BB50030310D06344104643F8042C53F8041921
S3150800BB6041F002015960536843F00103536010BD68
S3150800BB70FFF7DCFCFEE7FFF7D9FCFEE738B54B68B4
S3150800BB80DC071CD50C4623F0030302F110018B4297
S3150800BB9000D238BD054611462046FFF7ABFF63685D
S3150800BBA033F003030ED04268234442F002025C607D
S3150800BBB0014642602846BDE83840FFF7DDBEFFF77C
S3150800BBC0B5FCFEE7FFF7B2FCFEE700BF4B6833F0B3
S3150800BBD0030370B526D001F1080633441C1F0D4631
S3150800BBE023D06368DA071BD523F003037F2B1FD8FE
S3150800BBF09B1000222146FFF701FF6A6832F0030313
S3150800BC0002D1FFF793FCFEE76368043223F00303CF
S3150800BC1013446B6033F0030314D01E4446F8045CE7
S3150800BC20284670BDFFF782FCFEE7FFF77FFCFEE7BC
S3150800BC30B3FA83F2C2F11A01CB4083F02003C2F1B2
S3150800BC401902D7E7FFF772FCFEE700BF38B511F017
S3150800BC50030521D1083A22F00303104A0C46A3F142
S3150800BC600C01914213D8254643F0010355F80429DF
S3150800BC706B602946FFF780FE6B6833F0030308D034
S3150800BC80221D1344022243E90152204638BD2846A4
S3150800BC9038BDFFF74BFCFEE7002038BDF4FFFF3F39
S3150800BCA070B50E4610F0030104461CD1C0E9020027
S3150800BCB001616022143019F079F804F1700304F573
S3150800BCC0476003F1800243F8044F9342FBD1984240
S3150800BCD0F7D12546A6F6744204F674412846FFF7BE
S3150800BCE0B5FF284670BD0025F4E700BF30B5044609
S3150800BCF083B039B900212046FFF7AAFE40B3FFF703
S3150800BD0015FCFEE7CA1C22F00302B2F1804FF1D2FD
S3150800BD100C2A38BF0C2211460192FFF799FE019AA8
S3150800BD200546A8B101462046FFF728FF6B6833F0A1
S3150800BD30030310D005F10800034453F8042922F040
S3150800BD4002025A606B6823F001036B6003B030BDD2
S3150800BD50002003B030BDFFF7E9FBFEE7A9B351F8B1
S3150800BD60043C13F0010270B50C462BD133F00303E3
S3150800BD7042D00546081FA1F10806C6500344586874
S3150800BD8040F00200586051F8043C43F0010398075C
S3150800BD9041F8043C26D551F8086C002E3CD073684F
S3150800BDA0D9072CD523F003037F2B2BD89B103146BC
S3150800BDB02846FFF723FE726832F0030306D1FFF721
S3150800BDC0B5FBFEE7FFF7B2FBFEE7704754F8043C05
S3150800BDD023F0030313440433736033F003031ED0C4
S3150800BDE033445E6031462846FFF7F0FE0146284692
S3150800BDF0BDE87040FFF7C0BDFFF798FBFEE7FFF709
S3150800BE0095FBFEE7B3FA83F2C2F11A00C34083F04A
S3150800BE102003C2F11902CAE7FFF788FBFEE7FFF71E
S3150800BE2085FBFEE7002942D02DE9F04383B0002ABE
S3150800BE3062D051F8043C33F003070C462ED0D11CCF
S3150800BE4021F00301B1F1804F0546A4F1080828D274
S3150800BE500C2938BF0C21DB070E4625D48F422AD27F
S3150800BE60E359D907A4F1040905D523F00303391DBD
S3150800BE700B44B34228D2114628460192FFF736FFF3
S3150800BE800646E8B1019ABA42214628BF3A46FEF765
S3150800BE9089F821462846FFF761FF11E0FFF746FBC0
S3150800BEA0FEE713F0010305D0FFF740FBFEE7114656
S3150800BEB0FFF71CBF1E4606F110039F4228D22646EE
S3150800BEC0304603B0BDE8F0834146FFF77FFE54F8DD
S3150800BED0043C33F0030318D09944D9F8043023F00E
S3150800BEE00203C9F8043054F8047C27F0010344F827
S3150800BEF0043C27F00307DEE70192FFF72FFF019ABC
S3150800BF001646304603B0BDE8F083FFF70FFBFEE7A1
S3150800BF1031464046FFF7EEFD436823F0020301462B
S3150800BF2043602846FFF752FE014628462646FFF795
S3150800BF3023FDC5E74FF0E02307491A69074822F0B1
S3150800BF4001021A61596199611A69002142F00502D4
S3150800BF501A610160704700BFFF760100002B0120BF
S3150800BF604FF0E02300221A61704700BF034A1368A6
S3150800BF7003F57A73136000F03BBA00BF002B01206B
S3150800BF80031F0B2B11D80E4B820853F822301A6860
S3150800BF9000F00300C0004FF0FF0C0CFA00FC22EA88
S3150800BFA00C028140114319607047A0F11003652BFC
S3150800BFB0FAD823F0030303F1604303F56443E6E785
S3150800BFC098620208043803280BD8DFE800F01D142D
S3150800BFD00B024FF0E022D2F8243D43F40023C2F8C6
S3150800BFE0243D70474FF0E022D2F8243D43F48023E5
S3150800BFF0C2F8243D70474FF0E022D2F8243D43F4BE
S3150800C0000033C2F8243D70474FF0E022D2F8243DB1
S3150800C01043F48033C2F8243D704700BF10B41023A0
S3150800C02083F311883348344A0023012103601160E1
S3150800C030BFF34F8F4FF0E0223049C2F8081DD2F8FF
S3150800C040181D2F4821F0FF01C2F8181DD2F8181D37
S3150800C050006821F47F41C2F8181DD2F8181D21F492
S3150800C0607F01C2F8181DD2F81C1D21F07F41C2F8C5
S3150800C0701C1DD2F8201D21F0FF01C2F8201DD2F8A0
S3150800C080201D21F47F0141F47001C2F8201DD2F869
S3150800C090241D41F48031C2F8241DD2F8241D41F430
S3150800C0A00031C2F8241DD2F8241D41F48021C2F8BB
S3150800C0B0241DD2F8141D21F40071C2F8141DD2F8FB
S3150800C0C0881D4FF0404441F47001C2F8881DC2F83B
S3150800C0D0344F60B100EB80000A4A0B4C40001169EE
S3150800C0E044F823100A33834202F11802F7D15DF8A7
S3150800C0F0044B7047082B0120042B01200080000800
S3150800C10054620208BC6102087829012082B0044BF7
S3150800C1100193019B13B1019B02B0184702B0704707
S3150800C12091B50008A0F10F0CBCF1660F70B520D8C8
S3150800C1300C4602F110010F2918D80F2822D05342B5
S3150800C140DBB2A0F11001C3F110034FEA511C01F054
S3150800C1501F0201261901154B964043F82C604FEA39
S3150800C1608C05FFF70DFFE30706D470BDFFF7DEF970
S3150800C170FEE7FFF7DBF9FEE705F1604505F56145E2
S3150800C1802E6070BD4FF0E02553422A69DBB222F0DB
S3150800C1900202C3F110032A611901FFF7F1FEE20753
S3150800C1A0E3D52B6943F002032B6170BD80E100E003
S3150800C1B010B5EFF31184EFF30582054B53F82230DF
S3150800C1C09847044B00221A6084F3118810BD00BFFB
S3150800C1D04C5E0208042B0120EFF30583C3F3080322
S3150800C1E0032B0FD0052B07D1084B9A6A9A6A1204BB
S3150800C1F006D59B6BFFF79AB9062B04BF034B9B6AC0
S3150800C200FFF794B9014BDB6AFFF790B900ED00E040
S3150800C210EFF30583FFF78AB9F8B5FFF731F9FFF7AA
S3150800C2206BF900F0B9F8FFF74DF90C4B1D6855B1DD
S3150800C2300B4E0024371F57F8343056F834000134B3
S3150800C2409847AC42F7D1074A074B12681A6000F0C4
S3150800C250CDF8064B01221A60FCF772F860620208F4
S3150800C26028600208002B0120AC2B01200C2B012092
S3150800C270F8B5084B1D6855B1074E0024371F57F807
S3150800C280343056F8340001349847AC42F7D1FFF7FA
S3150800C29057F900BF64620208B06102082DE9F04749
S3150800C2A0234D244C24482549254B00222A60226028
S3150800C2B0012202600A6003F18002C3E900330833F1
S3150800C2C09342FAD11F4A204B15684FF0000AA3F88B
S3150800C2D000A05DB31D4CDFF87C801D4F564601E07B
S3150800C2E0AA4523D054F8043B013B03EB830908EB2A
S3150800C2F0C90903EB430399F80F2007EBC3036FF350
S3150800C3000002C9F80830484689F80F2000F024F8DA
S3150800C310D9F80830C9F814601B68DB070AF1010A66
S3150800C320DED5484600F026F8AA45DBD1BDE8F087F9
S3150800C330182B01201C2B0120142B0120102B012067
S3150800C340242B012054620208202B0120686202086F
S3150800C350BC61020858290120C37B82680021017349
S3150800C36023F01E03127B427343F008038273C373E0
S3150800C370704700BF82685269203A10B40021054C04
S3150800C38082610122C46141625DF8044B027300F0C8
S3150800C390C7BF00BFDD8300089FED0B7B0C4B0D4923
S3150800C3A00D4A0E4810B483ED007B0D4C00230B603C
S3150800C3B00C4923600C4C04600B605DF8044B12605A
S3150800C3C0704700BFAFF300800000000000000000C7
S3150800C3D0B82B0120A82B0120482A0120A42B0120D4
S3150800C3E0B02B0120B42B0120003E14F4704700BF87
S3150800C3F02DE9F84FEFF314839B0702D5FFF796F85C
S3150800C400FEE7DFF8C4A0DAF80030002B55D1EFF3C9
S3150800C4101182102383F31288DFF8B0800123C8F84D
S3150800C4200020CAF80030BFF34F8FDFF8A490DFF87A
S3150800C430A4B0234E234DC9F800300BF1040401F0D3
S3150800C440F9F8DBF80010A14228D34FF0000C08E0F9
S3150800C450D7E902309847DBF80010A1424FF0010CEB
S3150800C460EDD3DBF8047030683A682B68121A1B1A89
S3150800C4709A42A1F104000ED8A042CBF80000E7D3F7
S3150800C4800B682046196801F09DF8DBF800305B68F8
S3150800C49003605860DCE7BCF1000FD0D1FFF7A6FFB8
S3150800C4A00023C9F80030CAF80030BFF34F8FD8F818
S3150800C4B0003083F31188BDE8F88FFFF737F8FEE7F9
S3150800C4C0A42B0120A82B0120042B0120082B0120D6
S3150800C4D0B02B0120482A012070B52C4C2568002D68
S3150800C4E050D1002826D042DD294B1B6883423EDB0B
S3150800C4F0284B013800EB800003EBC000EFF31183F3
S3150800C500102282F31288244E336001232360BFF37E
S3150800C5104F8F037BE3B183681B68990711D56FF0CA
S3150800C5202A0500232360BFF34F8F336883F31188EE
S3150800C530284670BDEFF314839A0718D5174B186869
S3150800C540DCE7C37BDA07EAD443F00103C373E8E701
S3150800C550FFF710FF114A124B106819688842E0D09D
S3150800C560EFF314839B0706D5FBF704FFD9E76FF0B3
S3150800C5701105284670BD4FF0E0234FF08052C3F8EE
S3150800C580042DCEE76FF01805D2E700BF042B012073
S3150800C5905462020858290120082B0120182B012073
S3150800C5A01C2B012070B582B0EFF31483980719D5B8
S3150800C5B01C4D2C68B4B91C4B1B689BB1102383F324
S3150800C5C011881A4A012314602B60BFF34F8F184E47
S3150800C5D03068C37B59070AD49A0713D564F3410315
S3150800C5E0C37306E06FF01804204602B070BD6FF002
S3150800C5F0340400232B60BFF34F8F83F31188204642
S3150800C60002B070BD0423037300F0B2FE30680194D3
S3150800C61001AB0361074B32461968FBF7ABFE019C79
S3150800C620E7E700BF042B0120102B0120082B01206F
S3150800C630182B01201C2B012070B52D4C2568002DC8
S3150800C64053D1002822D033DD2A4B1B6883422FDBC7
S3150800C650294B013800EB800003EBC000EFF3118390
S3150800C660102282F31288254E336001232360BFF31C
S3150800C6704F8F037B8BB96FF0280500232360BFF328
S3150800C6804F8F336883F31188284670BDEFF3148300
S3150800C6909A070DD51A4B1868E0E723F00203042B16
S3150800C6A00DD0C37B9A0707D443F00203C373E4E7AC
S3150800C6B06FF01105284670BD6FF02A05DDE700F01A
S3150800C6C0C9FE0F4A0F4B106819688842D5D0EFF398
S3150800C6D014839B0702D5FBF74DFECEE74FF0E02308
S3150800C6E04FF08052C3F8042DC7E76FF01805CBE763
S3150800C6F0042B01205462020858290120082B012026
S3150800C700182B01201C2B0120EFF314839A0725D53B
S3150800C71070B5224D2B6886B0002B39D1204A126895
S3150800C720002A35D01F4A9042044634D8102282F394
S3150800C73011881D4901220B602A60BFF34F8F1B4EDB
S3150800C7403068C37B5B070CD56FF0340000232B6081
S3150800C750BFF34F8F83F3118806B070BD6FF01800D2
S3150800C76070470823037300F003FE3368059301AA94
S3150800C7701A6102A80E4B01902146049300F094FF1B
S3150800C7800C4B306819683246FBF7F4FD0198DDE773
S3150800C7906FF01800E0E76FF01000DDE7042B0120CA
S3150800C7A0102B012000286BEE082B0120182B0120E6
S3150800C7B091D400081C2B012008B5EFF314839B07BE
S3150800C7C019D5194B1A68CAB1184B1A686AB9184AA2
S3150800C7D0116809B90121116016490A68F2B90122DE
S3150800C7E01A6000F079FD144B1860144B186800F0B5
S3150800C7F001FEFBF7B6FD6FF0180008BDEFF31180D8
S3150800C800102282F312880B49012208601A60BFF3CE
S3150800C8104F8F064B1A68002AE7D1D8E71209102A63
S3150800C8201CBF00220A60DAE7042B0120102B012026
S3150800C830142B0120082B01201C2B0120182B01206A
S3150800C840084B186868B1084B084A03EB0010516892
S3150800C850D960C3E901321B601033834202F10C022E
S3150800C860F5D1704750620208E8B8002058610208FE
S3150800C870F8B52A4C2568002D4DD1002848DD284BEF
S3150800C8801B68834244DB0138EFF31183102282F3DD
S3150800C8901288244E336001232360BFF34F8F224A48
S3150800C8A0010102EB00138858834219D007688F509C
S3150800C8B07B6000F0CFFD1D4A1D4B10681968884241
S3150800C8C005D0EFF314839B0710D5FBF753FD002320
S3150800C8D02360BFF34F8F336883F311882846F8BD6A
S3150800C8E05A68934209D0FEF721FEFEE74FF0E0238F
S3150800C8F04FF08052C3F8042DE9E7D3E9021289689C
S3150800C9008A4202D20132DA60E1E76FF02A05DEE7F1
S3150800C9106FF01105E2E76FF01805DFE7042B012039
S3150800C92050620208082B0120E8B80020182B0120C5
S3150800C9301C2B0120EFF314839A0726D530B5234C18
S3150800C940226883B0002A3BD1214B1B68002B37D0C5
S3150800C950002838DD1F4B1B68834234DB102383F322
S3150800C96011881D4901230A602360BFF34F8F1B4DB1
S3150800C9702B68DB7B5B070CD41949431E01EB0310BC
S3150800C980C3688BB1013BC36005E06FF0180210461F
S3150800C99070476FF0340200232360BFF34F8F83F391
S3150800C9A01188104603B030BD6A46402100F0AEFD3E
S3150800C9B00C4B286819682A46FBF7DCFC009AEAE75C
S3150800C9C06FF01802EDE76FF01102EAE7042B012079
S3150800C9D0102B012050620208082B0120182B012079
S3150800C9E0E8B800201C2B0120F8B5EFF314839B0749
S3150800C9F02ED51B4E35685DBB00282DDD194B1B68EF
S3150800CA00834229DB0138EFF31183102282F312885F
S3150800CA10154F3B6001233360BFF34F8F134C04EB74
S3150800CA200014204600F09EFDA368114A5B68E36087
S3150800CA30104B10681968884201D0FBF79BFC00234D
S3150800CA403360BFF34F8F3B6883F311882846F8BDE0
S3150800CA506FF018052846F8BD6FF01105FAE700BF14
S3150800CA60042B012050620208082B0120E8B8002098
S3150800CA70182B01201C2B01202DE9F843154B1F68A4
S3150800CA802FB3154D154CDFF8589000264FF00108C6
S3150800CA9007E00136BE42636005F1140504F1180487
S3150800CAA015D02B68256013F00203C4E90494F0D06E
S3150800CAB020462B69C4F80480013640F8083F00F088
S3150800CAC0E5FDBE4205F1140504F11804E9D1BDE8F7
S3150800CAD0F88300BF4C620208245E0208B8A800204A
S3150800CAE091CB00082DE9F04383B0EFF314839B073D
S3150800CAF036D5234E35689DBB00283EDD214B1B6885
S3150800CB0083423ADB441EEFF31183102282F3128824
S3150800CB10DFF874800121C8F800303160BFF34F8F09
S3150800CB20DFF8689004EB440009EBC00204FA01F749
S3150800CB305368C000D3B90830516048443C4459F89A
S3150800CB403430196900F0B0FD00233360BFF34F8F0E
S3150800CB50D8F8003083F31188284603B0BDE8F0837F
S3150800CB606FF01805284603B0BDE8F083083048443E
S3150800CB70019000F0BDFD0198E0E76FF01105F1E7BF
S3150800CB80042B01204C620208082B0120B8A80020BB
S3150800CB9002688368D268134470B5044640F8083FB3
S3150800CBA000F074FD0C4D00232B60BFF34F8F0B4E26
S3150800CBB0336883F311882368D3E9010290472B6809
S3150800CBC04BB9EFF31182102383F3128801233260E5
S3150800CBD02B60BFF34F8F70BD042B0120082B01205B
S3150800CBE0074B1A6852B9EFF31180102282F31288A4
S3150800CBF00449012208601A60BFF34F8F002070476E
S3150800CC00042B0120082B0120064B1A683AB1002292
S3150800CC101A60BFF34F8F044B1B6883F311880020FB
S3150800CC20704700BF042B0120082B0120EFF3148363
S3150800CC309B071BD50F4B1868C0B910B4EFF31184C6
S3150800CC40102282F312880C4A012114601960BFF37E
S3150800CC504F8F0A4C0A49206008601860BFF34F8F4F
S3150800CC60136883F311885DF8044B70476FF018005A
S3150800CC70704700BF042B0120082B0120142B01202C
S3150800CC80102B012070B5EFF314839B071DD51D4D9E
S3150800CC902C68D4B9EFF31182102383F312881A4E45
S3150800CCA0012332602B60BFF34F8F184A1360336835
S3150800CCB07BB11B09102B0CD000232B60BFF34F8FC1
S3150800CCC0336883F31188204670BD6FF01804204638
S3150800CCD070BD0F4B01221A6000F0FEFA0D4B0E4A8A
S3150800CCE0186001461068C37B03F00C030C2B04D0B4
S3150800CCF08842E1D0FBF73EFBDEE700F07BFBFBF763
S3150800CD0030FB00BF042B0120082B0120142B012027
S3150800CD10102B01201C2B0120182B0120EFF3148364
S3150800CD209B0702D5054B1B680BB101207047044BC6
S3150800CD301868B0FA80F04009704700BF042B01203C
S3150800CD40102B0120074B70B51E6856B1064C0025FE
S3150800CD50D4E90112013554F80C0BFFF7E3F9B54293
S3150800CD60F6D170BD586202083C600208074B70B5E0
S3150800CD701D6855B1064E05EB4505002456F82400F6
S3150800CD800334FFF71FF9AC42F8D170BD5C620208A4
S3150800CD908059020808B5082005F06CFEBDE8084071
S3150800CDA0FDF7FCBD10B5044682B0084602F0BEFD8C
S3150800CDB0002102460190204603F0E6F8019A08B9D8
S3150800CDC002B010BD0021204602B0BDE8104003F0B5
S3150800CDD0DBB800BF10B5054C206803F0E5FA00B9CA
S3150800CDE010BD2068BDE8104003F0DEBAD800002068
S3150800CDF010B50A490A4C203882B000EB800001447D
S3150800CE002068019103F0ECFA019908B902B010BD47
S3150800CE10206802B0BDE8104003F0E2BAA862020832
S3150800CE20D800002000000000214A1178814236D03F
S3150800CE3008B51070FBF758FC1E4B0022FBF7E8FDFF
S3150800CE409FED170B41EC110B16F00AFE1A4B51EC2D
S3150800CE50100B0022FBF7FAFA184B0022FBF7D8FD55
S3150800CE6011A3D3E90023FBF7A9FCFBF7B9FE82B2AD
S3150800CE70134BC2F5FF417F3189B203F1800023F8D5
S3150800CE80021F8342FBD10F4B02F5FF427F3292B25B
S3150800CE9003F1800123F8022F8B42FBD108BD7047AE
S3150800CEA0000000000000244000000000C0FFDF4032
S3150800CEB0C02C0120000059400000F03F000022402D
S3150800CEC0BE2B01203E2C012045F6C052904228BFB9
S3150800CED010464028024638BF402210B509480C467D
S3150800CEE09201802102F020F8002C09DB4FF47A70B9
S3150800CEF004FB00F0FFF708FCBDE8104002F038B864
S3150800CF0010BD00BFC02B012070B504460E4601E0D7
S3150800CF10FFF7FAFB3146204603F0EDF908280546E7
S3150800CF204FF47A70F4D02DB3237A582B40D064206E
S3150800CF30FFF77AFF244D207AFFF75AFF4FF4FA716C
S3150800CF404FF47070FFF7C0FFFFF744FF2846FFF75E
S3150800CF50DBFB207AFFF74CFF4FF4FA7140F2023000
S3150800CF60FFF7B2FFFFF736FF2846FFF7CDFBE2E7EC
S3150800CF70FFF7CAFB204603F0D0F9082803464FF40A
S3150800CF807A70F5D063B1204603F0CDF901E0FFF7DA
S3150800CF90BBFB204603F0C1F908284FF47A70F6D097
S3150800CFA023681B783D2B0BD03E2B03D0252B07D0AF
S3150800CFB0284670BD4CF25030FFF7A6FB284670BDD8
S3150800CFC047F23050F8E700BFF049020030B5044692
S3150800CFD083B00D4601E0FFF797FB01A9204601F053
S3150800CFE0D9FE082803464CF25030F4D013B3582C17
S3150800CFF04AD06420FFF718FF264D2046FFF7F8FEB3
S3150800D0004FF4FA714FF47070FFF75EFFFFF7E2FE18
S3150800D0102846FFF779FB2046FFF7EAFE4FF4FA7138
S3150800D02040F20230FFF750FFFFF7D4FE2846FFF71D
S3150800D0306BFBE2E7019802681278AA4225D05C2DBC
S3150800D04023D0582C23D06420FFF7EEFE114D20463E
S3150800D050FFF7CEFE4FF4FA714FF47070FFF734FF06
S3150800D060FFF7B8FE2846FFF74FFB2046FFF7C0FE3E
S3150800D0704FF4FA7140F20230FFF726FFFFF7AAFED7
S3150800D0802846FFF741FBE2E7002003B030BD18460B
S3150800D090FBE700BFF0490200F0B590F809C08C45DF
S3150800D0A083B00446164627D00D46FFF72DFF18B362
S3150800D0B0237A582B77D06420FFF7B6FE5E4D207A88
S3150800D0C0FFF796FE4FF4FA714FF47070FFF7FCFE07
S3150800D0D0FFF780FE2846FFF717FB207AFFF788FE42
S3150800D0E04FF4FA7140F20230FFF7EEFEFFF772FED8
S3150800D0F02846FFF709FBE2E701A9204603F0F2F804
S3150800D10020B3237A582B00F086806420FFF78CFE24
S3150800D110494D207AFFF76CFE4FF4FA714FF47070A0
S3150800D120FFF7D2FEFFF756FE2846FFF7EDFA207AFC
S3150800D130FFF75EFE4FF4FA7140F20230FFF7C4FEC5
S3150800D140FFF748FE2846FFF7DFFAE2E7617A0DF1B6
S3150800D15003030DF10202204603F0AEF880B3237AEA
S3150800D160582B5FD06420FFF75FFE334D207AFFF718
S3150800D1703FFE4FF4FA714FF47070FFF7A5FEFFF704
S3150800D18029FE2846FFF7C0FA207AFFF731FE4FF44A
S3150800D190FA7140F20230FFF797FEFFF71BFE2846AA
S3150800D1A0FFF7B2FAE2E7637AAB4206D02946204691
S3150800D1B003B0BDE8F040FFF7A7BE002003B0F0BDFE
S3150800D1C09DF8025065B3019F9DF80300791C013D47
S3150800D1D000F00300334651FA85F53A463C4610E01E
S3150800D1E0012814BF97F90060B4F900601E60A942CF
S3150800D1F003F1040304F1020402F104020F46DCD031
S3150800D2000131022804D00328EAD116681E60EEE729
S3150800D21016681E60EBE701A9204603F063F8CDE720
S3150800D2200320CBE7617A0DF103030DF102022046D4
S3150800D23003F042F8C2E700BFF049020030B50446E1
S3150800D24083B001E0FFF760FA01A9204601F0A2FDCC
S3150800D250082805464CF25030F4D015B3582C31D076
S3150800D2606420FFF7E1FD1B4D2046FFF7C1FD4FF493
S3150800D270FA714FF47070FFF727FEFFF7ABFD2846EB
S3150800D280FFF742FA2046FFF7B3FD4FF4FA7140F272
S3150800D2900230FFF719FEFFF79DFD2846FFF734FA1F
S3150800D2A0E2E7019803685B78DC070ED55A0709D5CB
S3150800D2B013F0080F437A14BF042102218B4201D0D0
S3150800D2C0FFF722FE284603B030BD0525284603B0E1
S3150800D2D030BD00BFF04902000E4B1B8810B5ABB13C
S3150800D2E0DAB282B1002113F00F000B4A0B4C08BFCB
S3150800D2F0C3F30310024408BF043112F8013C0B447F
S3150800D30054F8330010BD1B0A0821ECE7FEF70EF9A6
S3150800D310FEE700BF202B012084640208242B01208D
S3150800D32090F80EC00E4B0F4A03EBCC0110B44C68B4
S3150800D33044600160206048600B491488096801232D
S3150800D34003FA0CF32343138031B1084A136813B167
S3150800D3509B7B634500D910605DF8044B704700BF9E
S3150800D360242B0120202B0120102B01201C2B01200F
S3150800D37038B5D0E90014827B1A4B21604C6053F80B
S3150800D380321003EBC204A14209D0174B1A68824235
S3150800D39000D038BD154A12683AB1196038BD6368BD
S3150800D3A0994205D0FEF7C2F8FEE7FEF7BFF8FEE79A
S3150800D3B00F4C0D4D2388012101FA02F223EA0203DC
S3150800D3C02A6823808242E4D1084A12681AB12BB926
S3150800D3D01846286038BDFEF7A9F8FEE7FFF77CFF78
S3150800D3E0F7E700BF242B01201C2B0120102B01205E
S3150800D3F0202B012010B5037BD90704461DD413F052
S3150800D4007C0F0CD163691BB1114B20461B689847EA
S3150800D4102046FEF7A1FFE37BDA0711D410BD13F00F
S3150800D420600F03D0D0E9003213605A602369186888
S3150800D4300028E7D000F05CF9E4E7FFF799FFE1E799
S3150800D4406FF30003E3732046BDE81040FEF792BF72
S3150800D450C42C0120036910B50446186810B100F001
S3150800D46047F9236900221A60237B13F07C0F0BD03F
S3150800D4709B0702D50223237310BD0123237320467D
S3150800D480BDE81040FFF74CBFFEF750F8FEE700BFB7
S3150800D49008B5026900211160027B12F07C0F29D0C1
S3150800D4A0920722D502220273144A154B12681B688A
S3150800D4B09A4205D04FF0E0234FF08052C3F8042D6E
S3150800D4C0104B00221A60BFF34F8F0F4A116881F381
S3150800D4D0118800BFEFF31180102181F31288012112
S3150800D4E010601960BFF34F8F08BD01220273FFF762
S3150800D4F017FFD9E7FEF71AF8FEE700BF182B012039
S3150800D5001C2B0120042B0120082B012070B5144E7A
