S00B00006173702E73726563D5
S31508008000D0A80020D98100082D8200082D820008FA
S315080080102D8200082D8200082D8200082D82000876
S315080080200000000000000000000000001D8300089A
S315080080302D820008000000006B820008FDA80008D9
S31508008040FDA80008FDA80008FDA80008FDA800086E
S31508008050FDA80008FDA80008FDA80008FDA800085E
S31508008060FDA80008FDA80008FDA80008FDA800084E
S31508008070FDA80008FDA80008FDA80008FDA800083E
S31508008080FDA80008FDA80008FDA80008FDA800082E
S31508008090FDA80008FDA80008FDA80008FDA800081E
S315080080A0FDA80008FDA80008FDA80008FDA800080E
S315080080B0FDA80008FDA80008FDA80008FDA80008FE
S315080080C0FDA80008FDA80008FDA80008FDA80008EE
S315080080D0FDA80008FDA80008FDA80008FDA80008DE
S315080080E0FDA80008FDA80008FDA80008FDA80008CE
S315080080F0FDA80008FDA80008FDA80008FDA80008BE
S31508008100FDA80008FDA80008FDA80008FDA80008AD
S31508008110FDA80008FDA80008FDA80008FDA800089D
S31508008120FDA80008FDA80008FDA80008FDA800088D
S31508008130FDA80008FDA80008FDA80008FDA800087D
S31508008140FDA80008FDA80008FDA80008FDA800086D
S31508008150FDA80008FDA80008FDA80008FDA800085D
S31508008160FDA80008FDA80008FDA80008FDA800084D
S31508008170FDA80008FDA80008FDA80008FDA800083D
S31508008180FDA80008FDA80008FDA80008FDA800082D
S31508008190FDA80008FDA80008FDA80008FDA800081D
S315080081A0FDA80008FDA80008FDA80008FDA800080D
S315080081B0FDA80008FDA80008FDA80008FDA80008FD
S315080081C0FDA80008FDA80008FDA80008FDA80008ED
S315080081D0FDA80008FDA8000871B601F083FF00207D
S315080081E00D490E4A914203D2086004319142FBD3ED
S315080081F00B490C4A914206D20B4B086818600431A9
S3150800820004339142F9D300F005F802F0ABFBFEE720
S31508008210704700BF7047000000100020AC6D0120B9
S31508008220206102087069020800000020EFF311813E
S31508008230EFF3108251EA02211EF0040F05D0EFF386
S31508008240098020E9024002B501E002B56846744A91
S3150800825013680CB4EFF30583724951F8232090474D
S315080082600FBC016082F311881847102080F311882B
S315080082706D49086858B1EFF309821EF0100F01D155
S3150800828022ED108A22E9F00F8261C0F81CE06748E7
S3150800829000680860A0B1C16911F07F42B2F17F4F52
S315080082A01AD18269B2E8F00F11F0100F01D1B2ECC1
S315080082B0108A82F30988002071B680F3118808476E
S315080082C0EFF309805A495FF0807220E906001838F2
S315080082D080F30988DFF840F0426A4AB1554A5FF0F0
S315080082E080738069B0E8F00F20E90E00143807E0C3
S315080082F08069B0E8F00F5FF0807220E90600183850
S3150800830080F30988464801210160BFF34F8FDFF8E3
S3150800831008F0BDEC108A7047FDFFFFFF40480021BA
S315080083200160002080F31188A0692900B0E8F00FE9
S3150800833011F0100F01D1B0EC108A80F309880847B4
S315080083403D48016881F30888022080F31488BFF34A
S315080083506F8F3A49D1F814D034490968324A61B660
S315080083601BE0022383F31488BFF36F8F2F49096834
S315080083702D4A12E0EFF3148313F0040306D02DED13
S31508008380108A022383F31488BFF36F8F43622DE9A3
S31508008390F00FC0F81CE0C0F818D0116089B1CA699E
S315080083A012F07F40B0F17F4F02D10C00150000DFBC
S315080083B0D1F818D0BDE8F00F4B6A0BB1BDEC108AA6
S315080083C01047174800210160BFF34F8F002080F344
S315080083D01188BFF34F8F30BFFBE700BF104800215D
S315080083E00160BFF34F8F002080F311880E480168A3
S315080083F08A685068DFF848E0D2F808F0002181F36F
S315080084001488BFF36F8F02F0D9BA00BFA0F15300EA
S31508008410002800DC7047A0F131000028FBDC70471B
S315080084202C0B0120D42B0208400B0120440B012001
S31508008430C283000812830008DC2E0208442F0208B3
S315080084403DAE000881F0004102E000BF83F0004322
S3150800845030B54FEA41044FEA430594EA050F08BFD1
S3150800846090EA020F1FBF54EA000C55EA020C7FEA95
S31508008470645C7FEA655C00F0E2804FEA5454D4EB12
S315080084805555B8BF6D420CDD2C4480EA020281EADC
S31508008490030382EA000083EA010180EA020281EA14
S315080084A00303362D88BF30BD11F0004F4FEA013166
S315080084B04FF4801C4CEA113102D0404261EB410175
S315080084C013F0004F4FEA03334CEA133302D05242FB
S315080084D063EB430394EA050F00F0A780A4F10104B7
S315080084E0D5F1200E0DDB02FA0EFC22FA05F28018F1
S315080084F041F1000103FA0EF2801843FA05F35941D7
S315080085000EE0A5F120050EF1200E012A03FA0EFC55
S3150800851028BF4CF0020C43FA05F3C01851EBE3717F
S3150800852001F0004507D54FF0000EDCF1000C7EEB9C
S3150800853000006EEB0101B1F5801F1BD3B1F5001FDA
S315080085400CD349085FEA30004FEA3C0C04F10104F9
S315080085504FEA445212F5800F80F09A80BCF1004F22
S3150800856008BF5FEA500C50F1000041EB045141EAA4
S31508008570050130BD5FEA4C0C404141EB0101013C6D
S3150800858028BFB1F5801FE9D291F0000F04BF01465C
S315080085900020B1FA81F308BF2033A3F10B03B3F12E
S315080085A020020CDA0C3208DD02F1140CC2F10C02BE
S315080085B001FA0CF021FA02F10CE002F11402D8BF1C
S315080085C0C2F1200C01FA02F120FA0CFCDCBF41EAE8
S315080085D00C019040E41AA2BF01EB0451294330BDB7
S315080085E06FEA04041F3C1CDA0C340EDC04F1140494
S315080085F0C4F1200220FA04F001FA02F340EA03006B
S3150800860021FA04F345EA030130BDC4F10C04C4F1B0
S31508008610200220FA02F001FA04F340EA0300294690
S3150800862030BD21FA04F0294630BD94F0000F83F4DA
S31508008630801306BF81F480110134013D4EE77FEABD
S31508008640645C18BF7FEA655C29D094EA050F08BF09
S3150800865090EA020F05D054EA000C04BF19461046EA
S3150800866030BD91EA030F1EBF0021002030BD5FEA2E
S31508008670545C05D14000494128BF41F0004130BD56
S3150800868014F580043CBF01F5801130BD01F00045AA
S3150800869045F0FE4141F470014FF0000030BD7FEA1D
S315080086A0645C1ABF194610467FEA655C1CBF0B4618
S315080086B0024650EA013406BF52EA033591EA030F2F
S315080086C041F4002130BD00BF90F0000F04BF002127
S315080086D0704730B54FF4806404F132044FF000055A
S315080086E04FF0000150E700BF90F0000F04BF0021D3
S315080086F0704730B54FF4806404F1320410F0004539
S3150800870048BF40424FF000013EE700BF42004FEA33
S31508008710E2014FEA31014FEA02701FBF12F07F43B0
S3150800872093F07F4F81F06051704732F07F4208BF67
S31508008730704793F07F4F04BF41F40021704730B56E
S315080087404FF4607401F0004521F000411CE700BFBA
S3150800875050EA010208BF704730B54FF000050AE03D
S3150800876050EA010208BF704730B511F0004502D53E
S31508008770404261EB41014FF4806404F132045FEA40
S31508008780915C3FF4D8AE4FF003025FEADC0C18BFE9
S3150800879003325FEADC0C18BF033202EBDC02C2F1DB
S315080087A0200300FA03FC20FA02F001FA03FE40EA6D
S315080087B00E0021FA02F11444BDE600BF70B54FF071
S315080087C0FF0C4CF4E06C1CEA11541DBF1CEA13554F
S315080087D094EA0C0F95EA0C0F00F0DEF82C4481EAB7
S315080087E0030621EA4C5123EA4C5350EA013518BFD7
S315080087F052EA033541F4801143F4801338D0A0FBC4
S3150800880002CE4FF00005E1FB02E506F00042E0FB70
S3150800881003E54FF00006E1FB03569CF0000F18BF76
S315080088204EF0010EA4F1FF04B6F5007F64F540741E
S3150800883004D25FEA4E0E6D4146EB060642EAC621B1
S3150800884041EA55514FEAC52040EA5E504FEACE2E1E
S31508008850B4F1FD0C88BFBCF5E06F1ED8BEF1004F21
S3150800886008BF5FEA500E50F1000041EB045170BD9D
S3150800887006F0004646EA010140EA020081EA0301E1
S31508008880B4EB5C04C2BFD4EB0C0541EA045170BDDD
S3150800889041F480114FF0000E013C00F3AB8014F157
S315080088A0360FDEBF002001F0004170BDC4F10004A0
S315080088B0203C35DA0C341BDC04F11404C4F1200521
S315080088C000FA05F320FA04F001FA05F240EA02007C
S315080088D001F0004221F0004110EBD37021FA04F6B2
S315080088E042EB06015EEA430E08BF20EAD37070BD6C
S315080088F0C4F10C04C4F1200500FA04F320FA05F0CB
S3150800890001FA04F240EA020001F0004110EBD370CC
S3150800891041F100015EEA430E08BF20EAD37070BD3C
S31508008920C4F1200500FA05F24EEA020E20FA04F315
S3150800893001FA05F243EA020321FA04F001F00041C4
S3150800894021FA04F220EA020000EBD3705EEA430E35
S3150800895008BF20EAD37070BD94F0000F0FD101F064
S315080089600046400041EB010111F4801F08BF013C9D
S31508008970F7D041EA060195F0000F18BF704703F0DB
S315080089800046520043EB030313F4801F08BF013D62
S31508008990F7D043EA0603704794EA0C0F0CEA13551E
S315080089A018BF95EA0C0F0CD050EA410618BF52EAD8
S315080089B04306D1D181EA030101F000414FF00000DE
S315080089C070BD50EA410606BF1046194652EA4306EC
S315080089D019D094EA0C0F02D150EA013613D195EA60
S315080089E00C0F05D152EA03361CBF104619460AD1A8
S315080089F081EA030101F0004141F0FE4141F47001B2
S31508008A004FF0000070BD41F0FE4141F4780170BDA1
S31508008A1070B54FF0FF0C4CF4E06C1CEA11541DBF06
S31508008A201CEA135594EA0C0F95EA0C0F00F0A7F808
S31508008A30A4EB050481EA030E52EA03354FEA013135
S31508008A4000F088804FEA03334FF0805545EA131348
S31508008A5043EA12634FEA022245EA111545EA106510
S31508008A604FEA00260EF000419D4208BF964244F1A7
S31508008A70FD0404F5407402D25B084FEA3202B61AC6
S31508008A8065EB03055B084FEA32024FF480104FF49A
S31508008A90002CB6EB020E75EB030E22BFB61A75460E
S31508008AA040EA0C005B084FEA3202B6EB020E75EBA1
S31508008AB0030E22BFB61A754640EA5C005B084FEA09
S31508008AC03202B6EB020E75EB030E22BFB61A7546D6
S31508008AD040EA9C005B084FEA3202B6EB020E75EBE1
S31508008AE0030E22BFB61A754640EADC0055EA060EA2
S31508008AF018D04FEA051545EA16754FEA06164FEAE5
S31508008B00C30343EA52734FEAC2025FEA1C1CC0D190
S31508008B1011F4801F0BD141EA00014FF000004FF01D
S31508008B20004CB6E711F4801F04BF01430020B4F1DE
S31508008B30FD0C88BFBCF5E06F3FF6AFAEB5EB030C96
S31508008B4004BFB6EB020C5FEA500C50F1000041EB93
S31508008B50045170BD0EF0004E4EEA113114EB5C0460
S31508008B60C2BFD4EB0C0541EA045170BD41F4801133
S31508008B704FF0000E013C90E645EA060E8DE60CEA3B
S31508008B80135594EA0C0F08BF95EA0C0F3FF43BAF58
S31508008B9094EA0C0F0AD150EA01347FF434AF95EA0F
S31508008BA00C0F7FF425AF104619462CE795EA0C0FF3
S31508008BB006D152EA03353FF4FDAE1046194622E7C0
S31508008BC050EA410618BF52EA43067FF4C5AE50EA9A
S31508008BD041047FF40DAF52EA43057FF4EBAE12E78A
S31508008BE04FF0FF3C06E000BF4FF0010C02E000BF6B
S31508008BF04FF0010C4DF804CD4FEA410C7FEA6C5C4E
S31508008C004FEA430C18BF7FEA6C5C1BD001B050EAF0
S31508008C10410C0CBF52EA430C91EA030F02BF90EADB
S31508008C20020F0020704710F1000F91EA030F58BF9A
S31508008C30994208BF90422CBFD8176FEAE37040F0FC
S31508008C40010070474FEA410C7FEA6C5C02D150EA9A
S31508008C50013C07D14FEA430C7FEA6C5CD6D152EA55
S31508008C60033CD3D05DF8040B704700BF844610461A
S31508008C7062468C461946634600E000BF01B5FFF719
S31508008C80B7FF002848BF10F1000F01BD4DF808EDE9
S31508008C90FFF7F4FF0CBF012000205DF808FB00BFBA
S31508008CA04DF808EDFFF7EAFF34BF012000205DF814
S31508008CB008FB00BF4DF808EDFFF7E0FF94BF012061
S31508008CC000205DF808FB00BF4DF808EDFFF7CEFF62
S31508008CD094BF012000205DF808FB00BF4DF808EDA1
S31508008CE0FFF7C4FF34BF012000205DF808FB00BF72
S31508008CF04FEA410C7FEA6C5C02D150EA013C0AD18A
S31508008D004FEA430C7FEA6C5C02D152EA033C02D17B
S31508008D104FF0000070474FF0010070474A0011D22B
S31508008D2012F5001211D20DD56FF47873B3EB6252B7
S31508008D300ED44FEAC12343F0004343EA505323FAC3
S31508008D4002F070474FF00000704750EA013002D138
S31508008D504FF0FF3070474FF0000070477BB972B98B
S31508008D600029BEBF00204FF0004106E008BF0028DA
S31508008D701CBF6FF000414FF0FF3000F0A7B9ADF10E
S31508008D80080C6DE904CE002909DB002B1ADB00F07C
S31508008D9035F8DDF804E0DDE9022304B07047404207
S31508008DA061EB4101002B1BDB00F028F8DDF804E03D
S31508008DB0DDE9022304B0404261EB4101524263EB14
S31508008DC043037047524263EB430300F017F8DDF89C
S31508008DD004E0DDE9022304B0404261EB410170473B
S31508008DE0524263EB430300F009F8DDF804E0DDE9DD
S31508008DF0022304B0524263EB430370472DE9F04760
S31508008E00089D04468E46002B4DD18A42944669D960
S31508008E10B2FA82F252B101FA02F3C2F1200120FA43
S31508008E2001F10CFA02FC41EA030E94404FEA1C4891
S31508008E30210CBEFBF8F61FFA8CF708FB16E341EA8D
S31508008E40034306FB07F199420AD91CEB030306F113
S31508008E50FF3080F01F81994240F21C81023E634434
S31508008E605B1AA4B2B3FBF8F008FB103344EA0344D8
S31508008E7000FB07F7A7420AD91CEB040400F1FF33ED
S31508008E8080F00A81A74240F207816444023840EA2A
S31508008E900640E41B00261DB1D4400023C5E9004363
S31508008EA03146BDE8F0878B4209D9002D00F0EF80E6
S31508008EB00026C5E9000130463146BDE8F087B3FA19
S31508008EC083F6002E4AD18B4202D3824200F2F98001
S31508008ED0841A61EB030301209E46002DE0D0C5E904
S31508008EE0004EDDE702B9FFDEB2FA82F2002A40F050
S31508008EF09280A1EB0C014FEA1C471FFA8CFE012653
S31508008F00200CB1FBF7F307FB131140EA01410EFBF6
S31508008F1003F0884208D91CEB010103F1FF3802D29D
S31508008F20884200F2CB804346091AA4B2B1FBF7F097
S31508008F3007FB101144EA01440EFB00FEA64508D9BA
S31508008F401CEB040400F1FF3102D2A64500F2BB80F7
S31508008F500846A4EB0E0440EA03409CE7C6F1200746
S31508008F60B34022FA07FC4CEA030C20FA07F401FA8C
S31508008F7006F31C43F9404FEA1C4900FA06F3B1FB15
S31508008F80F9F8200C1FFA8CFE09FB181140EA01417A
S31508008F9008FB0EF0884202FA06F20BD91CEB010117
S31508008FA008F1FF3A80F08880884240F28580A8F16F
S31508008FB002086144091AA4B2B1FBF9F009FB1011C1
S31508008FC044EA014100FB0EFE8E4508D91CEB01015F
S31508008FD000F1FF346CD28E456AD90238614440EA02
S31508008FE00840A0FB0294A1EB0E01A142C846A64682
S31508008FF056D353D05DB1B3EB080261EB0E0101FA0B
S3150800900007F722FA06F3F1401F43C5E90071002667
S315080090103146BDE8F087C2F12003D8400CFA02FCBD
S3150800902021FA03F3914001434FEA1C471FFA8CFECD
S31508009030B3FBF7F007FB10360B0C43EA064300FBBD
S315080090400EF69E4204FA02F408D91CEB030300F15B
S31508009050FF382FD29E422DD9023863449B1B89B212
S31508009060B3FBF7F607FB163341EA034106FB0EF39B
S315080090708B4208D91CEB010106F1FF3816D28B4248
S3150800908014D9023E6144C91A46EA004638E72E4614
S31508009090284605E70646E3E61846F8E64B45A9D20C
S315080090A0B9EB020864EB0C0E0138A3E74646EAE77B
S315080090B0204694E74046D1E7D0467BE7023B614429
S315080090C032E7304609E76444023842E7704700BF92
S315080090D0844641EA000313F003036DD1403A41D3B5
S315080090E051F8043B40F8043B51F8043B40F8043B74
S315080090F051F8043B40F8043B51F8043B40F8043B64
S3150800910051F8043B40F8043B51F8043B40F8043B53
S3150800911051F8043B40F8043B51F8043B40F8043B43
S3150800912051F8043B40F8043B51F8043B40F8043B33
S3150800913051F8043B40F8043B51F8043B40F8043B23
S3150800914051F8043B40F8043B51F8043B40F8043B13
S3150800915051F8043B40F8043B51F8043B40F8043B03
S31508009160403ABDD2303211D351F8043B40F8043BA3
S3150800917051F8043B40F8043B51F8043B40F8043BE3
S3150800918051F8043B40F8043B103AEDD20C3205D3B3
S3150800919051F8043B40F8043B043AF9D2043208D0AB
S315080091A0D2071CBF11F8013B00F8013B01D30B881D
S315080091B003806046704700BF082A13D38B078DD0FB
S315080091C010F003038AD0C3F10403D21ADB071CBFCD
S315080091D011F8013B00F8013B80D331F8023B20F837
S315080091E0023B7BE7043AD9D3013A11F8013B00F870
S315080091F0013BF9D20B7803704B7843708B788370F8
S3150800920060467047000000000000000000000000F3
S315080092100000000000000000000000000000000040
S315080092200000000000000000000000000000000030
S315080092300000000000000000000000000000000020
S3150800924090F800F06DE9024520F007016FF0000C78
S3150800925010F0070491F820F040F049804FF0000420
S315080092606FF00700D1E9002391F840F000F10800FB
S3150800927082FA4CF2A4FA8CF283FA4CF3A2FA8CF333
S315080092804BBBD1E9022382FA4CF200F10800A4FA9A
S315080092908CF283FA4CF3A2FA8CF3E3B9D1E90423EE
S315080092A082FA4CF200F10800A4FA8CF283FA4CF325
S315080092B0A2FA8CF37BB9D1E9062301F1200182FADF
S315080092C04CF200F10800A4FA8CF283FA4CF3A2FAE5
S315080092D08CF3002BC6D0002A04BF04301A4612BAF3
S315080092E0B2FA82F2FDE8024500EBD2007047D1E9F6
S315080092F0002304F00305C4F100004FEAC50514F085
S31508009300040F91F840F00CFA05F562EA05021CBF55
S3150800931063EA050362464FF00004A9E710B5642026
S3150800932001F07AF81E481F4C01F030FD332000F09A
S31508009330CFFF4FF4FA714FF4DC7001F0BDF8204608
S3150800934001F024FD322000F0C3FF4FF4FA714FF408
S31508009350DC7001F0B1F8204601F018FD312000F06C
S31508009360B7FF4FF4FA714FF4DC7001F0A5F8204608
S3150800937001F00CFD00F09EFF4FF47A714FF45C701B
S3150800938001F09AF83C21084800F0BCFF074801F0B4
S31508009390FDFC00F08BFFBDE8104001F04FBD00BF9B
S315080093A040420F0020A10700D0270208C0C62D00A2
S315080093B02DE9F04FB0FBF1FC1D4601FB1C0385B0FF
S315080093C0D35CDDF838808DF8043001AFDDE90F96FF
S315080093D0BE46012400E09C46814260460AD8BCFB92
S315080093E0F1F301FB13CC013412F80CC00EF801CFCF
S315080093F00B2CF0D1B8F1000F2AD005B1013DB9F117
S31508009400000F01D02D20B047AC421BD2B9F1000F96
S3150800941014BF4FF0300B4FF0200BA24658460AF106
S31508009420010AB047AA45F9D3B8F1000F0AD1013CA1
S315080094303C442078B047BC4204F1FF34F9D105B06A
S31508009440BDE8F08FB9F1000FF1D12D20B047EEE756
S31508009450AC42DBD3EBE700BF2DE9F04F83468246EB
S315080094601BF8010B85B0002859D0DFF88091DFF88A
S3150800947080815D4F0E461446002507E0A047DA4670
S315080094800BF1010B9AF80000002848D02528F5D1E1
S31508009490042DF3D89AF80120302A46D00AF1020A98
S315080094A00020A2F13003092B4FF000030BD803EB81
S315080094B0830302EB43031AF8012BA2F130010929B1
S315080094C0A3F13003F3D96C2A2CD002F0DF0154291A
S315080094D028D0782A1DD8572A15D9583A202A18D8B4
S315080094E0DFE802F056171717171717171717176415
S315080094F06B17171717171717171717172917173768
S31508009500174817172900002A6AD0252A01D11046BC
S31508009510A0470AF1010B9AF800000028B6D105B059
S31508009520BDE8F08F1AF8012BD3E79AF8022001203C
S315080095300AF1030AB5E7CDE901040022009256F8BC
S31508009540250042461021FFF733FF01350AF1010BCA
S3150800955098E756F825B01BF8010B01350028D8D036
S31508009560A0479BF800000BF1010B0028F8D10AF17F
S31508009570010BD0E7CDE901040022009256F8250038
S315080095803A460A21FFF714FF01350AF1010B79E77C
S31508009590CDE901040022009256F825004A4610211A
S315080095A0FFF706FF01350AF1010B6BE716F82500F0
S315080095B0A04701350AF1010B64E756F82520002A71
S315080095C0CDE90104ABBF10465042002201220092A9
S315080095D00A213A46FFF7ECFE01350AF1010B9AE734
S315080095E0D3460AF1FF3A4DE72C2802081828020844
S315080095F0382802080268012A10B503460C4602D02C
S31508009600022A0BD010BD80680A4603F10C01FFF749
S3150800961023FF23460A20BDE8104018470A46024899
S3150800962003F10801F3E700BFE027020810B582B08E
S3150800963003460A460C460448019301A9FFF70CFFA6
S315080096400A20A04702B010BD0028020830B5012341
S31508009650036081600C789E4644B1BEF1050F05D8BB
S31508009660252C04D011F8014F002CF6D130BD4B78CB
S3150800967001F1020CA3F13001092905D81CF8013BB8
S31508009680A3F130010929F9D96C2B5BD003F0DF016E
S3150800969054291DD0002B00F0B480583BD9B220299C
S315080096A000F2B580202B00F2B280DFE803F040B06C
S315080096B0B0B0B0B0B0B0B0B0B04040B0B0B0B0B07C
S315080096C0B0B0B0B0B0B030B0B030B040B0B040001C
S315080096D0614611F8014B002C00F09780583CE5B222
S315080096E0202D7FD8202C7DD8DFE804F01C7C7C7CDC
S315080096F07C7C7C7C7C7C7C227F7C7C7C7C7C7C7CF3
S315080097007C7C7C7C127C7C127C1C7C7C1C006146EC
S315080097100EF1020352F8044B40F823400EF1010EF5
S315080097200C7899E7742B03D0542B64D08C46614689
S3150800973052F8044B0EF102030EF1010E40F82340D5
S315080097400C7889E7614611F8014B002C5DD0583C2E
S31508009750E3B2202B46D8202C44D801A353F824F092
S3150800976031970008E5970008E5970008E59700088F
S31508009770E5970008E5970008E5970008E5970008CB
S31508009780E5970008E5970008E5970008319700086F
S3150800979031970008E5970008E5970008E59700085F
S315080097A0E5970008E5970008E5970008E59700089B
S315080097B0E5970008E5970008E5970008E59700088B
S315080097C011970008E5970008E59700081197000823
S315080097D0E597000831970008E5970008E59700081F
S315080097E0319700089CF8014036E76C2BA0D0742B03
S315080097F09ED0542B9CD1073222F0070252F8084B10
S3150800980098E71CF8014C0CF1FF3C614624E79CF8EC
S315080098100040614620E700BF10B50C4888B04FF4F9
S31508009820004100F007FF0A4A106008B108B010BDF1
S315080098300849094B0291C02202246946CDE903234F
S31508009840009400F04FF900F073FCFEE700100020CA
S31508009850009000204C2802088C2802080EB410B587
S315080098608BB00DAA044652F8041B019202A8FFF712
S31508009870EDFE02A9204600F035F90BB0BDE8104010
S3150800988003B0704708B504490620FFF7E7FF03F061
S3150800989055FD01F06CFFFEE7A028020801F0C4B9E7
S315080098A0012001F00BBA00BF10B582B00C461A466B
S315080098B00449009403460020FFF7D0FF00F038FC67
S315080098C0FEE700BFBC280208704700BF704700BF0C
S315080098D0704700BF704700BF704700BF10B4074B02
S315080098E0074C00223F201F21C3E90042C3E9022298
S315080098F0C3E904205DF8044B996170470490002081
S3150800990000290208704700BF704700BF704700BFB4
S315080099100849094B10B4002201F11C0401F1380072
S31508009920C3E90A42C3E90012C3E914025DF8044B0D
S31508009930704700BF542902082094002000F032BB6B
S3150800994000F032BB00F032BB084600F031BB00BF66
S31508009950084600F02FBB00BF704700BF00F03EBBB3
S3150800996000F04EBB00F04EBB084600F04DBB00BFF2
S31508009970084600F059BB00BF704700BF704700BFDC
S3150800998000F078BB00F078BB00F078BB084600F022
S3150800999077BB00BF084600F075BB00BF704700BF25
S315080099A000F0B4B800F018B900F0DEB800F060BBFB
S315080099B02DE9F04F0D4689B0EFF3108772B6264CA5
S315080099C00126636986401E4223D0244AE368D2F8FA
S315080099D000908E46D16803F1010801EB431A204B2B
S315080099E0D3F800B0BEE80F00D446ACE80F009EE8F6
S315080099F00F00C8458CE80F0028BF0023CAF804B03A
S31508009A00C4F80C8028BFE360636899450BD9013315
S31508009A106360A3691E420ED1012F00D062B60020F2
S31508009A2009B0BDE8F08FE368A360236901332361B9
S31508009A30A3691E42F0D00A4B2C461E680FCC6D4611
S31508009A400FC594E80F0085E80F0006490196684699
S31508009A50FFF7D0FDE0E700BF0490002000290208C8
S31508009A60280B0120AD990008F0B583B0EFF31082FA
S31508009A7072B6012A29D0194C6568002605B3184A1A
S31508009A80A168D36803EB411E136801934F1C8446F3
S31508009A90BEE80F00ACE80F009EE80F008CE80F0048
S31508009AA0019B20699F4228BF002305F1FF35C4E9C1
S31508009AB0015728BFA360002323611EB103B0F0BD80
S31508009AC06FF0280062B603B0F0BD044C6568164610
S31508009AD0002DD4D16FF02800F0E700BF04900020D5
S31508009AE000290208FFF764BF00B583B003460122C8
S31508009AF00DF1070103488DF8073000F03FF903B070
S31508009B005DF804FB2094002000F0B2BA30B5124884
S31508009B10124D134C89B000F0E9F8124B029301225A
S31508009B20694605200092FFF7DDFF6846FFF79CFFB0
S31508009B30002809DB0CD121466846FFF75BFD68461D
S31508009B40FFF792FF0028F5DA286801F01FF9ECE71D
S31508009B502146FFF76BFDEEE7209400201029020846
S31508009B60E99A0008FC290208F0B5184D8BB003E005
S31508009B709DF8070000F07CFA0DF10701284600F071
S31508009B80F7F904460028F3D102A8FFF76DFF051E72
S31508009B900F4E104F0CDB6CB19DB9314602A8FFF78A
S31508009BA029FD02A8FFF760FF051E4FF00104F2DA4F
S31508009BB00BB0F0BD214632463846FFF74DFC002D66
S31508009BC0EBD031462846FFF731FDE6E72094002022
S31508009BD0099B00081C2A020810B50B4B0B4988B0D4
S31508009BE0D3E900230291012403200721CDE90301CB
S31508009BF00094694600240520CDE905420793FFF73E
S31508009C0071FF08B010BD00BF4C290208382A0208A7
S31508009C100EB400B58AB00CAA02A806490192FFF74D
S31508009C2015FD02A90020FFF75DFF0AB05DF804EBF9
S31508009C3003B07047942B02080A2970B50E460446ED
S31508009C4002D1C368DB0626D401F06EFA002846DB8B
S31508009C502268236A9269D6542268236A1569616A5A
S31508009C600133AB4201F101012362A5EB010504BFF3
S31508009C7000232362B5FA85F5012961624FEA551575
S31508009C8003D110680368DB68984701F061FA002879
S31508009C9025DB284670BD0D21FFF7CEFF051EF8DB34
S31508009CA0D2D0636A23B12368186803689B6898470B
S31508009CB023685B68186801F07FF9051EC4DA0A494B
S31508009CC02A460020FFF7A4FF05F13503DBB2042B73
S31508009CD005D8012202FA03F313F0150FD9D101238F
S31508009CE0A3606FF00405D4E7942B020870B5044608
S31508009CF001F0B8FA00283ED12368186803681B6883
S31508009D00984701F037FA002830DB65683DB16FF0F7
S31508009D10280501F05BFA002828DB284670BD40F2CA
S31508009D201153C4E90335C4E90555C4E90755656205
S31508009D3001F0FAF9002816DB236818680368012180
S31508009D401B6998472368186803680221DB6801269F
S31508009D509847C4E9016501F0FBF90028D9DAA6603D
S31508009D606FF00405D5E76FF00405D2E70123A36079
S31508009D706FF00405D1E76FF01805CEE72DE9F0413D
S31508009D8005460F46904601F06DFA002840F0898096
S31508009D906B68002B00F08880AE68002E7ED12B6899
S31508009DA05B68186801F008F9041E51DBB8F1000F6A
S31508009DB063D017F8011B2846FFF73EFF041E32DB67
S31508009DC00136B04525D0002CF3D06B6A23B12B6839
S31508009DD0186803689B6898472B685B68186801F0E1
S31508009DE0EBF8041EE5DA002031492246FFF710FF9A
S31508009DF004F13500C0B2042805D8012303FA00F09F
S31508009E0010F0150F01D10123AB6034462046BDE89A
S31508009E10F0816B6A63B12B68186803689B6898477A
S31508009E20002C33D00024002EEFD12046BDE8F08167
S31508009E30002CEAD12B685B68186801F05BF80028EB
S31508009E40E3DA0123AB606FF00404002EEDD0DCE703
S31508009E50174922463046FFF7DBFE04F13503DBB22D
S31508009E60042B05D8012202FA03F313F0150FCDD1FE
S31508009E700123AB606FF00404C8E76E6A2B68002EF6
S31508009E80D9D0186803689B68464698472B685B686C
S31508009E90186801F02FF80028C4DAD2E76FF0040436
S31508009EA0B4E76FF01804B1E76FF02804AEE700BF17
S31508009EB0942B0208406A704738B5456A0446B5B11E
S31508009EC00268C3699269D35C0B700168C3690A6941
S31508009ED001339342C36104BF0023C361436A9A42B4
S31508009EE00DD0013B636201250BB1284638BD2368B6
S31508009EF01868036801211B699847284638BD4B68CE
S31508009F00186800F0F7FF002801DB636AE9E7012318
S31508009F10A3606FF00405E8E7036810B5DA6804463D
S31508009F20806990421CD05A696369D1542268636972
S31508009F30D16801338B42636104BF00236361A3695F
S31508009F401BB10133A361012010BD9368186800F0A6
S31508009F50D1FF002806DBA3690133A3610120F3E7DB
S31508009F60002010BD0123A3606FF0040010BD00BFE0
S31508009F7043680BB1436A0BB9184670470268C36950
S31508009F809269D35C0B700268C36912690133934204
S31508009F90426AC36104BF0023C361013A01234262D6
S31508009FA018467047704700BF704700BF704700BF2C
S31508009FB0704700BF704700BF0148FFF77BBF00BF6F
S31508009FC02094002001460148FFF776BF2094002020
S31508009FD001460148FFF7A0BF2094002010B500F005
S31508009FE08BFA064C01E000F0D1FE022002F04CFB91
S31508009FF003462046002BF6D010BD00BF40420F0096
S3150800A000704700BF04F0A2BF012806D0022803D17A
S3150800A010034B01221A6070477047024B186070475D
S3150800A020B0980020B4980020012806D0022803D151
S3150800A030044B00221A6070477047034B00221A60CF
S3150800A040704700BFB0980020B49800200148FFF779
S3150800A05031BF00BF4894002001460148FFF72CBFD6
S3150800A0604894002001460148FFF756BF489400204F
S3150800A070704700BF704700BF704700BF704700BFFA
S3150800A080704700BF704700BF08B5FFF71DFCFFF714
S3150800A0901DFCFFF71DFCFFF71DFCFFF71DFCFFF776
S3150800A0A01DFCFFF72FFCFFF72FFCFFF72FFCFFF730
S3150800A0B02FFCFFF751FCFFF75FFCFFF75FFCBDE8DD
S3150800A0C00840FFF76BBC00BF08B500F08DFC00F038
S3150800A0D0F9FE00F0CBFF01F0D9F8BDE8084001F021
S3150800A0E0E9B800BF08B500F057F8024A024B1268F3
S3150800A0F01A6008BDD82E02080000002008B500F036
S3150800A10033FB0A4B1A6842F400721A601A6842F462
S3150800A11080621A601A6842F480721A6000F076F853
S3150800A120BDE80840002000F041B800BF003C0240EE
S3150800A13008B5EFF30883EFF309836B4600F08CFB51
S3150800A140FEE700BF08B500F087FBFEE700B5002074
S3150800A15083B000F02BF800240194019BB3F5801F0F
S3150800A16006DA019B01330193019BB3F5801FF8DBE7
S3150800A170002000F043F8EFE700207047034A044B3D
S3150800A1801068A3FB00308009704700BFD40B01207C
S3150800A190D34D6210704700BF034AD2F8883043F4A3
S3150800A1A07003C2F88830704700ED00E070B50446C9
S3150800A1B086B050B90F4B00901A6B42F001021A6331
S3150800A1C01B6B03F001030093009B0B4E012356F80B
S3150800A1D024002025022201A9CDE90332CDE9015345
S3150800A1E001F0F2FA56F824000022294601F0D4FBC1
S3150800A1F006B070BD0038024004000020024B202142
S3150800A20053F8200001F0CDBB0400002030B595B00E
S3150800A2100023244A0093116C234841F080511164AD
S3150800A220126C02F080520092009A0193026822F49E
S3150800A230404242F400420260026802F440420221AF
S3150800A240012401924FF480004FF48032CDE9074291
S3150800A250CDE90933CDE90C31082460220E90042398
S3150800A26007A8CDE90F42CDE91113019D139101F01D
S3150800A270A9FB80B902200F240023CDE902404FF440
S3150800A2808052052102A8CDE90432069301F070FD3B
S3150800A29020B915B030BDFFF759FFEBE7FFF756FFBA
S3150800A2A015B030BD003802400070004008B501F016
S3150800A2B015F8FEE710B5054C206803F04DF900B90E
S3150800A2C010BD2068BDE8104003F046B9B000002074
S3150800A2D010B50A490A4C203882B000EB80000144C8
S3150800A2E02068019103F054F9019908B902B010BD2C
S3150800A2F0206802B0BDE8104003F04AB90C300208E5
S3150800A300B00000202DE9F04F03788BB088468BB15A
S3150800A3100246C0F1010402E012F8013F5BB1203B9E
S3150800A3205E2B04EB0205F7D94FF0020A50460BB034
S3150800A330BDE8F08F1D46334B019093E80300324B7E
S3150800A340DFF8CC900690ADF81C1093E8030099F856
S3150800A350043008908DF80C30D9F80000ADF82410B8
S3150800A3604FF47A73029003FB08F800270DF10D0BE2
S3150800A370019804A90022BD42CABF03780023203BE6
S3150800A38003EB83034B449B5C01F8013B0132052A2E
S3150800A390F1D106AC08AE4FF0040C102002AA04A9AD
S3150800A3A011F8013B92F800E0034043FA0CF343EA44
S3150800A3B04E0302F8013B5A45F2D1144B02A918681C
S3150800A3C003F0E6F8824690B9404600F0DFFC0DF14E
S3150800A3D01D03A34204D014F8010F16F801CFDDE7D8
S3150800A3E0019B01370133BD420193C1DA9EE7074B52
S3150800A3F002A9186803F0CCF8824650460BB0BDE8AF
S3150800A400F08F00BF04300208A8270208B000002019
S3150800A4100C30020800000000214A1178814236D02B
S3150800A42008B51070FEF760F91E4B0022FEF7F0FA29
S3150800A4309FED170B41EC110B17F04AF81A4B51EC2C
S3150800A440100B0022FEF702F8184B0022FEF7E0FA7E
S3150800A45011A3D3E90023FEF7B1F9FEF75FFC82B238
S3150800A460134BC2F5FF417F3189B203F1800023F80F
S3150800A470021F8342FBD10F4B02F5FF427F3292B295
S3150800A48003F1800123F8022F8B42FBD108BD7047E8
S3150800A490000000000000244000000000C0FFDF406C
S3150800A4A0240B0120000059400000F03F0000224024
S3150800A4B0220A0120A20A012045F6C052904228BF6E
S3150800A4C010464028024638BF402210B509480C46B7
S3150800A4D09201802102F0A4FA002C09DB4FF47A706D
S3150800A4E004FB00F000F052FCBDE8104002F0BCBAD4
S3150800A4F010BD00BF240A012008B500F015FE054A64
S3150800A500054B106801221A7001F034FE00F020FE97
S3150800A510002008BD8C000020250B012038B5084C0A
S3150800A520084DAC4204D254F8043B9847AC42FAD3DF
S3150800A530054B01221A70BDE8384000F07FBC00BF09
S3150800A5401861020818610208260B0120024A1378CE
S3150800A550002BFCD0704700BF260B01204B6823F068
S3150800A56003037F2B10B526D89B10002203EB421C51
S3150800A57000EB8C0CDCF8744074B3C1E90240E1606E
S3150800A58001F10B0424F0030401F1080EA64502D0DC
S3150800A590FFF7CEFDFEE7CCF87410012101FA02F4AC
S3150800A5A001FA03F3016900EB820221430161516953
S3150800A5B00B43536110BDB3FA83F2C2F11A04E340A8
S3150800A5C083F02003C2F1190203EB421C00EB8C0C4A
S3150800A5D0DCF87440002CD0D1FFF7AAFDFEE700BFD7
S3150800A5E038B511F0030521D1083A22F00303104AC1
S3150800A5F00C46A3F10C01914213D8254643F00103FA
S3150800A60055F804296B602946FFF7A8FF6B6833F0F5
S3150800A610030308D0221D1344022243E901522046AF
S3150800A62038BD284638BDFFF783FDFEE7002038BD54
S3150800A630F4FFFF3F70B50E4610F0030104461CD127
S3150800A640C0E9020001616022143018F01BF804F119
S3150800A650700304F5476003F1800243F8044F934200
S3150800A660FBD19842F7D12546A6F6744204F6744102
S3150800A6702846FFF7B5FF284670BD0025F4E700BF5A
S3150800A6804FF0E02307491A69074822F001021A61C8
S3150800A690596199611A69002142F005021A6101603F
S3150800A6A0704700BFFF760100280B01204FF0E0231A
S3150800A6B000221A61704700BF034A136803F57A73CC
S3150800A6C0136000F03DBA00BF280B0120031F0B2BB7
S3150800A6D011D80E4B820853F822301A6800F003008E
S3150800A6E0C0004FF0FF0C0CFA00FC22EA0C02814075
S3150800A6F0114319607047A0F11003652BFAD823F0AF
S3150800A700030303F1604303F56443E6E7E83102080F
S3150800A710043803280BD8DFE800F01D140B024FF0AD
S3150800A720E022D2F8243D43F40023C2F8243D7047C2
S3150800A7304FF0E022D2F8243D43F48023C2F8243DAA
S3150800A74070474FF0E022D2F8243D43F40033C2F8B4
S3150800A750243D70474FF0E022D2F8243D43F480337D
S3150800A760C2F8243D704700BF10B4102383F3118844
S3150800A7703348344A0023012103601160BFF34F8F29
S3150800A7804FF0E0223049C2F8081DD2F8181D2F48AC
S3150800A79021F0FF01C2F8181DD2F8181D006821F42F
S3150800A7A07F41C2F8181DD2F8181D21F47F01C2F89E
S3150800A7B0181DD2F81C1D21F07F41C2F81C1DD2F8C5
S3150800A7C0201D21F0FF01C2F8201DD2F8201D21F41A
S3150800A7D07F0141F47001C2F8201DD2F8241D41F40E
S3150800A7E08031C2F8241DD2F8241D41F40031C2F884
S3150800A7F0241DD2F8241D41F48021C2F8241DD2F864
S3150800A800141D21F40071C2F8141DD2F8881D4FF0EA
S3150800A810404441F47001C2F8881DC2F8344F60B153
S3150800A82000EB80000A4A0B4C4000116944F82310DB
S3150800A8300A33834202F11802F7D15DF8044B7047D8
S3150800A840300B01202C0B012000800008C42F0208C1
S3150800A850442F02086009012082B0044B0193019B32
S3150800A86013B1019B02B0184702B0704795A10008C2
S3150800A870A0F10F0CBCF1660F70B520D80C4602F19A
S3150800A88010010F2918D80F2822D05342DBB2A0F1A5
S3150800A8901001C3F110034FEA511C01F01F020126F3
S3150800A8A01901154B964043F82C604FEA8C05FFF7C3
S3150800A8B00DFFE30706D470BDFFF73AFCFEE7FFF786
S3150800A8C037FCFEE705F1604505F561452E6070BD6C
S3150800A8D04FF0E02553422A69DBB222F00202C3F1A7
S3150800A8E010032A611901FFF7F1FEE207E3D52B6988
S3150800A8F043F002032B6170BD80E100E010B5EFF371
S3150800A9001184EFF30582054B53F822309847044B20
S3150800A91000221A6084F3118810BD00BFD42B0208E8
S3150800A9202C0B0120EFF30583C3F30803032B0FD089
S3150800A930052B07D1084B9A6A9A6A120406D59B6BAF
S3150800A940FFF7F6BB062B04BF034B9B6AFFF7F0BB6A
S3150800A950014BDB6AFFF7ECBB00ED00E0EFF3058384
S3150800A960FFF7E6BBF8B5FFF78FFBFFF7C7FB00F06D
S3150800A970BBF8FFF7A9FB0C4B1D6855B10B4E00241D
S3150800A980371F57F8343056F8340001349847AC422C
S3150800A990F7D1074A074B12681A6000F0CFF8064B42
S3150800A9A001221A60FDF7CCFCD02F0208B02D020850
S3150800A9B0280B0120D40B0120340B0120F8B5084BD5
S3150800A9C01D6855B1074E0024371F57F8343056F81E
S3150800A9D0340001349847AC42F7D1FFF7B3FB00BF08
S3150800A9E0D42F0208382F02082DE9F047234D244CAE
S3150800A9F024482549254B00222A602260012202604C
S3150800AA000A6003F18002C3E9003308339342FAD19E
S3150800AA101F4A204B15684FF0000AA3F800A05DB343
S3150800AA201D4CDFF87C801D4F564601E0AA4523D011
S3150800AA3054F8043B013B03EB830908EBC90903EB14
S3150800AA40430399F80F2007EBC3036FF30002C9F815
S3150800AA500830484689F80F2000F024F8D9F808305D
S3150800AA60C9F814601B68DB070AF1010ADED54846F7
S3150800AA7000F026F8AA45DBD1BDE8F087400B012097
S3150800AA80440B01203C0B0120380B01204C0B012004
S3150800AA90C42F0208480B0120D82F0208442F0208A9
S3150800AAA040090120C37B82680021017323F01E033D
S3150800AAB0127B427343F008038273C373704700BF67
S3150800AAC082685269203A10B40021054C826101223D
S3150800AAD0C46141625DF8044B027300F02BBC00BFF1
S3150800AAE0DD830008000000009FED0B7B0C4B0D4931
S3150800AAF00D4A0E4810B483ED007B0D4C00230B6005
S3150800AB000C4923600C4C04600B605DF8044B126022
S3150800AB10704700BFAFF3008000000000000000008F
S3150800AB20E00B0120D00B0120080A0120CC0B0120E4
S3150800AB30D80B0120DC0B0120003E14F4704700BF3F
S3150800AB402DE9F84FEFF314839B0702D5FFF7F0FAC8
S3150800AB50FEE7DFF8C4A0DAF80030002B55D1EFF392
S3150800AB601182102383F31288DFF8B0800123C8F816
S3150800AB700020CAF80030BFF34F8FDFF8A490DFF843
S3150800AB80A4B0234E234DC9F800300BF1040400F09D
S3150800AB902BFDDBF80010A14228D34FF0000C08E08B
S3150800ABA0D7E902309847DBF80010A1424FF0010CB4
S3150800ABB0EDD3DBF8047030683A682B68121A1B1A52
S3150800ABC09A42A1F104000ED8A042CBF80000E7D3C0
S3150800ABD00B682046196800F0CFFCDBF800305B688C
S3150800ABE003605860DCE7BCF1000FD0D1FFF7A6FF81
S3150800ABF00023C9F80030CAF80030BFF34F8FD8F8E1
S3150800AC00003083F31188BDE8F88FFFF791FAFEE765
S3150800AC10CC0B0120D00B01202C0B0120300B01207E
S3150800AC20D80B0120080A012070B582B0EFF314830F
S3150800AC30980719D51C4D2C68B4B91C4B1B689BB1D9
S3150800AC40102383F311881A4A012314602B60BFF37B
S3150800AC504F8F184E3068C37B59070AD49A0713D505
S3150800AC6064F34103C37306E06FF01804204602B08C
S3150800AC7070BD6FF0340400232B60BFF34F8F83F34E
S3150800AC801188204602B070BD0423037300F07AFBD6
S3150800AC903068019401AB0361074B32461968FDF72A
S3150800ACA069FB019CE7E700BF2C0B0120380B01204C
S3150800ACB0300B0120400B0120440B012070B52D4CB0
S3150800ACC02568002D53D1002822D033DD2A4B1B6876
S3150800ACD083422FDB294B013800EB800003EBC000D1
S3150800ACE0EFF31183102282F31288254E3360012375
S3150800ACF02360BFF34F8F037B8BB96FF028050023C2
S3150800AD002360BFF34F8F336883F31188284670BDDD
S3150800AD10EFF314839A070DD51A4B1868E0E723F06A
S3150800AD200203042B0DD0C37B9A0707D443F0020312
S3150800AD30C373E4E76FF01105284670BD6FF02A0566
S3150800AD40DDE700F091FB0F4A0F4B1068196888423F
S3150800AD50D5D0EFF314839B0702D5FDF70BFBCEE79F
S3150800AD604FF0E0234FF08052C3F8042DC7E76FF089
S3150800AD701805CBE72C0B0120C42F02084009012037
S3150800AD80300B0120400B0120440B0120EFF3148304
S3150800AD909A0725D570B5224D2B6886B0002B39D178
S3150800ADA0204A1268002A35D01F4A9042044634D8F1
S3150800ADB0102282F311881D4901220B602A60BFF315
S3150800ADC04F8F1B4E3068C37B5B070CD56FF0340082
S3150800ADD000232B60BFF34F8F83F3118806B070BD35
S3150800ADE06FF0180070470823037300F0CBFA336836
S3150800ADF0059301AA1A6102A80E4B019021460493F5
S3150800AE0000F02CFC0C4B306819683246FDF7B2FA94
S3150800AE100198DDE76FF01800E0E76FF01000DDE756
S3150800AE202C0B0120380B012000286BEE300B01207B
S3150800AE30400B0120A5B40008440B012008B5EFF328
S3150800AE4014839B0719D5194B1A68CAB1184B1A6887
S3150800AE506AB9184A116809B90121116016490A68C0
S3150800AE60F2B901221A6000F041FA144B1860144B2B
S3150800AE70186800F0C9FAFDF774FA6FF0180008BDF3
S3150800AE80EFF31180102282F312880B490122086021
S3150800AE901A60BFF34F8F064B1A68002AE7D1D8E726
S3150800AEA01209102A1CBF00220A60DAE72C0B0120BF
S3150800AEB0380B01203C0B0120300B0120440B0120EC
S3150800AEC0400B0120084B186868B1084B084A03EB89
S3150800AED000105168D960C3E901321B601033834200
S3150800AEE002F10C02F5D17047C02F0208D0A8002045
S3150800AEF0E02E0208F8B52A4C2568002D4DD1002809
S3150800AF0048DD284B1B68834244DB0138EFF3118385
S3150800AF10102282F31288244E336001232360BFF384
S3150800AF204F8F224A010102EB00138858834219D039
S3150800AF3007688F507B6000F097FA1D4A1D4B106812
S3150800AF401968884205D0EFF314839B0710D5FDF7DF
S3150800AF5011FA00232360BFF34F8F336883F31188F8
S3150800AF602846F8BD5A68934209D0FFF7E1F8FEE78C
S3150800AF704FF0E0234FF08052C3F8042DE9E7D3E9F8
S3150800AF80021289688A4202D20132DA60E1E76FF07A
S3150800AF902A05DEE76FF01105E2E76FF01805DFE72F
S3150800AFA02C0B0120C02F0208300B0120D0A800204E
S3150800AFB0400B0120440B0120EFF314839A0726D592
S3150800AFC030B5234C226883B0002A3BD1214B1B683D
S3150800AFD0002B37D0002838DD1F4B1B68834234DB33
S3150800AFE0102383F311881D4901230A602360BFF3E8
S3150800AFF04F8F1B4D2B68DB7B5B070CD41949431E0F
S3150800B00001EB0310C3688BB1013BC36005E06FF029
S3150800B0101802104670476FF0340200232360BFF30E
S3150800B0204F8F83F31188104603B030BD6A4640211E
S3150800B03000F076FA0C4B286819682A46FDF79AF943
S3150800B040009AEAE76FF01802EDE76FF01102EAE7F7
S3150800B0502C0B0120380B0120C02F0208300B0120D1
S3150800B060400B0120D0A80020440B01202DE9F8430D
S3150800B070154B1F682FB3154D154CDFF85890002651
S3150800B0804FF0010807E00136BE42636005F114057A
S3150800B09004F1180415D02B68256013F00203C4E9DF
S3150800B0A00494F0D020462B69C4F80480013640F891
S3150800B0B0083F00F0C5FABE4205F1140504F118046C
S3150800B0C0E9D1BDE8F88300BFBC2F0208C02B0208EF
S3150800B0D0B8980020D9B0000802688368D26813447B
S3150800B0E070B5044640F8083F00F0AAFA0C4D002354
S3150800B0F02B60BFF34F8F0B4E336883F31188236899
S3150800B100D3E9010290472B684BB9EFF3118210235C
S3150800B11083F31288012332602B60BFF34F8F70BD13
S3150800B1202C0B0120300B0120074B1A6852B9EFF39C
S3150800B1301180102282F312880449012208601A60DD
S3150800B140BFF34F8F002070472C0B0120300B0120D6
S3150800B150064B1A683AB100221A60BFF34F8F044BA8
S3150800B1601B6883F311880020704700BF2C0B012051
S3150800B170300B0120EFF314839B071BD50F4B186880
S3150800B180C0B910B4EFF31184102282F312880C4A66
S3150800B190012114601960BFF34F8F0A4C0A492060D9
S3150800B1A008601860BFF34F8F136883F311885DF842
S3150800B1B0044B70476FF01800704700BF2C0B012036
S3150800B1C0300B01203C0B0120380B012070B5EFF342
S3150800B1D014839B071DD51D4D2C68D4B9EFF3118236
S3150800B1E0102383F312881A4E012332602B60BFF3B3
S3150800B1F04F8F184A136033687BB11B09102B0CD08C
S3150800B20000232B60BFF34F8F336883F311882046E2
S3150800B21070BD6FF01804204670BD0F4B01221A60EE
S3150800B22000F064F80D4B0E4A186001461068C37B9F
S3150800B23003F00C030C2B04D08842E1D0FDF79AF8F2
S3150800B240DEE700F0E1F8FDF78CF800BF2C0B0120D3
S3150800B250300B01203C0B0120380B0120440B012048
S3150800B260400B0120EFF314839B0702D5054B1B689F
S3150800B2700BB101207047044B1868B0FA80F04009FA
S3150800B280704700BF2C0B0120380B0120074B70B507
S3150800B2901E6856B1064C0025D4E90112013554F84A
S3150800B2A00C0BFFF7E5FAB542F6D170BDC82F0208B8
S3150800B2B0C42D0208074B70B51D6855B1064E05EB3F
S3150800B2C04505002456F824000334FFF721FAAC425A
S3150800B2D0F8D170BDCC2F0208A827020808B50820A7
S3150800B2E004F092F9BDE80840FEF7DABA0E4B1B885F
S3150800B2F010B5ABB1DAB282B1002113F00F000B4AD8
S3150800B3000B4C08BFC3F30310024408BF043112F8FC
S3150800B310013C0B4454F8330010BD1B0A0821ECE726
S3150800B320FEF706FFFEE700BF480B0120F8310208CA
S3150800B3304C0B012090F80EC00E4B0F4A03EBCC01C4
S3150800B34010B44C6844600160206048600B4914885A
S3150800B3500968012303FA0CF32343138031B1084A21
S3150800B360136813B19B7B634500D910605DF8044BE5
S3150800B370704700BF4C0B0120480B0120380B0120F9
S3150800B380440B012038B5D0E90014827B1A4B2160A2
S3150800B3904C6053F8321003EBC204A14209D0174B94
S3150800B3A01A68824200D038BD154A12683AB1196047
S3150800B3B038BD6368994205D0FEF7BAFEFEE7FEF788
S3150800B3C0B7FEFEE70F4C0D4D2388012101FA02F264
S3150800B3D023EA02032A6823808242E4D1084A1268D3
S3150800B3E01AB12BB91846286038BDFEF7A1FEFEE74C
S3150800B3F0FFF77CFFF7E700BF4C0B0120440B012049
S3150800B400380B0120480B012010B5037BD9070446E9
S3150800B4101DD413F07C0F0CD163691BB1114B204668
S3150800B4201B6898472046FFF73DFBE37BDA0711D4F4
S3150800B43010BD13F0600F03D0D0E9003213605A60D4
S3150800B440236918680028E7D000F02CF9E4E7FFF72D
S3150800B45099FFE1E76FF30003E3732046BDE8104068
S3150800B460FFF72EBBE80B0120036910B504461868E0
S3150800B47010B100F017F9236900221A60237B13F034
S3150800B4807C0F0BD09B0702D50223237310BD012323
S3150800B49023732046BDE81040FFF74CBFFEF748FE71
S3150800B4A0FEE700BF08B5026900211160027B12F0B1
S3150800B4B07C0F29D0920722D502220273144A154B13
S3150800B4C012681B689A4205D04FF0E0234FF080526D
S3150800B4D0C3F8042D104B00221A60BFF34F8F0F4A92
S3150800B4E0116881F3118800BFEFF31180102181F3F1
S3150800B4F01288012110601960BFF34F8F08BD012221
S3150800B5000273FFF717FFD9E7FEF712FEFEE700BF43
S3150800B510400B0120440B01202C0B0120300B01208D
S3150800B52070B5144E33680446197318461546FFF766
S3150800B53029FFA36831681B680D610022DB072A60B2
S3150800B54006D46368C1E90043196061606C6070BD28
S3150800B5502368887B9C4203D105E01B689C4202D085
S3150800B5609A7B8242F9D95A68C1E90032116059605A
S3150800B5706C6070BD400B012070B5194C031B226826
S3150800B5809B1004EBC303934229D8164D2D68A1EBF3
S3150800B590050E10E01A6812681946521B0B1B9B1001
S3150800B5A0964504EBC3031AD90A68026050602268FC
S3150800B5B09A42084613D3191D9142EBD8D3E9006283
S3150800B5C012683668521BA6EB050C624524BF19465D
S3150800B5D062460B1B9B10964504EBC303E4D870BD6B
S3150800B5E0080A0120CC0B01200E490F4B70B40F4CF2
S3150800B5F018680B6822680E4D0860C31A99182160EE
S3150800B6002C680C480C4EA21A08449A42306002D2A2
S3150800B610A14202D3296070BC7047084A53680133B7
S3150800B6205360F7E7D40B0120280B0120D00B01202B
S3150800B630DC0B0120003E14F4CC0B0120E00B0120AA
S3150800B640054A136810B50446181D2168106000F0F5
S3150800B65063F80460606010BD080A012070B50446EE
S3150800B6600E46FFF7C1FF0C4B0C4D1B68286803F507
S3150800B6707A73991904302160286000F04DF8084B58
S3150800B6801B680460606013B90435A84200D070BD19
S3150800B690BDE87040FFF752BAD00B0120080A012016
S3150800B6A0D80B0120F8B5194D46682A682C46131F91
S3150800B6B044F8043BA34218D31368A64219680DD967
S3150800B6C0701BC010124B55F820701A683B68A1EB26
S3150800B6D0020C9B1A9C4505EB80000CD33046FFF7FD
S3150800B6E04BFF2B685B68036058600A4B1B680BB9F5
S3150800B6F0A64205D0F8BD37607E6000F00DF8F0E789
S3150800B700FFF772FFBDE8F840FFF718BA080A0120EC
S3150800B710CC0B0120D80B012030B50E4CA042844634
S3150800B72016D90D4B1D68A4F1040E491B03E0A44568
S3150800B730026050600CD9ACEB0E03DB1060465EF875
S3150800B74023200EEB830C13685B1B8B42EFD830BDAE
S3150800B750604630BD0C0A0120CC0B012008B501F06B
S3150800B7605DFF0028FBD1BDE80840FEF797B808B58D
S3150800B77001F03EFF03F05AFC012001F043FF0620CA
S3150800B78003F042FF002003F0DBFB082003F08EFFE6
S3150800B790B0B1062003F060FF002003F0D1FB0120C2
S3150800B7A001F030FF03F05AFC072003F02DFFFFF7E6
S3150800B7B0D5FF01F063FA0028F9D101F057FCF6E746
S3150800B7C0FFF7CCFFE1E700002DE9F04F6B4ADFF801
S3150800B7D0B481DFF8B49185B000230C6801279F4037
S3150800B7E007EA040537EA040440F0B5804C6824F0FB
S3150800B7F0100ABAF1020F16D14FEAD30E00EB8E0EDD
S3150800B80003F0070BDEF820604FEA8B0B4FF00F0CA6
S3150800B8100CFA0BFC26EA0C0C0E6906FA0BF646EA3D
S3150800B8200C06CEF82060D0F800B04FEA430E4FF071
S3150800B830030C0CFA0EFC6FEA0C062BEA0C0B04F050
S3150800B840030C0CFA0EFC0AF1FF3A4CEA0B0CBAF19F
S3150800B850010F0196C0F800C015D8D0F808C006EA4E
S3150800B8600C0CCE6806FA0EFA4AEA0C0CC0F808C0A8
S3150800B870D0F804C02CEA0707C4F3001C0CFA03FC32
S3150800B8804CEA07074760C768019E37408E6806FA84
S3150800B8900EF63E43C660E6005DD54FF0000BCDF8C8
S3150800B8A00CB0D8F84470364E47F48047C8F8447050
S3150800B8B0D8F8447007F480470397039F23F00307DB
S3150800B8C007F1804707F59C3703F0030ED7F808A061
S3150800B8D04FEA8E0E4FF00F0C0CFA0EFCB0422AEA15
S3150800B8E00C0C3FD006F58066B0423DD006F5806662
S3150800B8F0B0423BD006F58066B04239D006F5806680
S3150800B900B04237D0484537D006F50066B0420CBF7E
S3150800B9100626072606FA0EF646EA0C06BE601668DE
S3150800B920EF4314F4803F0CBF3E402E431660566822
S3150800B93014F4003F0CBF3E402E435660966814F43C
S3150800B940801F0CBF3E402E439660D668A40254BFA3
S3150800B9503E402E43D6600133102B7FF43EAF05B030
S3150800B960BDE8F08F5E46D5E70126D3E70226D1E784
S3150800B9700326CFE70426CDE70526CBE7003C0140A2
S3150800B98000000240003802400014024003691942D0
S3150800B99014BF0120002070470AB18161704709046D
S3150800B9A0FBE743695940416170470000044A516901
S3150800B9B0014208B502D0506101F0B6FC08BD00BFCF
S3150800B9C0003C01400368F7B50446D8073BD4236812
S3150800B9D0990700F1898023681E0700F1CA80236849
S3150800B9E05D072AD5002301938B4B8C4D1A6C42F0C8
S3150800B9F080521A641B6C03F080530193019B2B68D9
S3150800BA0043F480732B60FEF7B9FB06462B68DA050C
S3150800BA1040F1D380A368804D012B40F0D5802B6F71
S3150800BA2043F001032B67FEF7A9FB7B4E054641F25F
S3150800BA308837336F9B0740F1E880A269002A40F0F7
S3150800BA40F180002015E0744B9A6802F00C02042A73
S3150800BA5007D09A6802F00C02082A0CD15A685202DA
S3150800BA6009D56D4B1B689B03B1D56368002BAED116
S3150800BA70012003B0F0BD6268B2F5803F11D11A68A3
S3150800BA8042F480321A60FEF779FB634E0546336846
S3150800BA909F039CD4FEF772FB401B6428F7D903204A
S3150800BAA0E7E75D4DB2F5A02F2B6807D143F4802355
S3150800BAB02B602B6843F480332B60E4E723F4803350
S3150800BAC02B602B6823F480232B60002ADBD1FEF73A
S3150800BAD055FB06462B6898037FF579AFFEF74EFBB4
S3150800BAE0801B6428F6D9DAE74B4B9A6812F00C0FDC
S3150800BAF007D09A6802F00C02082A17D15B68590227
S3150800BB0014D4454B1A68920702D5E268012AAFD1C8
S3150800BB1019682369F82292FAA2F2B2FA82F29340DD
S3150800BB2021F0F8013C4A0B43136054E7E2683C4BAA
S3150800BB3082B101221A60FEF721FB374E05463368AB
S3150800BB409B0701D53168E4E7FEF718FB401B02287E
S3150800BB50F5D9A4E71A60FEF711FB2F4E05463368A0
S3150800BB609F077FF538AFFEF709FB401B0228F6D979
S3150800BB7095E762692A4B82B10122C3F8802EFEF747
S3150800BB80FDFA254E0546736F98073FF528AFFEF771
S3150800BB90F5FA401B0228F6D981E7C3F8802EFEF78E
S3150800BBA0EDFA1D4E0546736F99077FF518AFFEF738
S3150800BBB0E5FA401B0228F6D971E7FEF7DFFA801B83
S3150800BBC002287FF623AF6AE7052B04D12B6F43F0D3
S3150800BBD004032B6723E72A6F22F001022A672A6FDC
S3150800BBE022F004022A67002B7FF41DAFFEF7C6FA7F
S3150800BBF041F2883706462B6F98077FF51EAFFEF78A
S3150800BC00BDFA801BB842F6D949E7FEF7B7FA401BDA
S3150800BC10B8427FF60EAF42E7003802400070004097
S3150800BC2000004742304DAB6803F00C03082B3FF485
S3150800BC301FAF2E4B022A4FF000021A6646D1FEF7B6
S3150800BC409DFA06462B6899013AD4D4E9072111438F
S3150800BC50626A254D47F6C07393FAA3F3B3FA83F3E2
S3150800BC609A40A36A5B080A43013B4FF4403191FAB4
S3150800BC70A1F1B1FA81F18B401343E26A4FF070618A
S3150800BC8091FAA1F1B1FA81F18A401A43236B4FF078
S3150800BC90E04191FAA1F1B1FA81F18B4013436B604F
S3150800BCA0124B01221A66FEF769FA04462B689A01B6
S3150800BCB03FF5C7AEFEF762FA001B0228F6D9EEE694
S3150800BCC0FEF75CFA801B0228BCD9E8E6FEF756FAAE
S3150800BCD004462B689B017FF5B4AEFEF74FFA001BAE
S3150800BCE00228F6D9DBE600BF0038024000004742CA
S3150800BCF01C4A936803F00C03082B30D1516853682B
S3150800BD0013F4800F01F03F0147F6C0731BD050684B
S3150800BD10184093FAA3F3B3FA83F3D840124B584367
S3150800BD20B0FBF1F080000F4B5B684FF4403203F430
S3150800BD30403392FAA2F2B2FA82F2D34001335B00A0
S3150800BD40B0FBF3F070470948B0FBF1F150681840B2
S3150800BD5093FAA3F3B3FA83F3D8404843E3E70348D7
S3150800BD60704700BF0038024000093D000024F40077
S3150800BD70554B1A6802F00F028A422DE9F041044633
S3150800BD800D462FD32268960736D4D0073CD44E4B9F
S3150800BD901A6802F00F02AA4200F28680226851074A
S3150800BDA000F18A80130707D5484A2169936823F466
S3150800BDB0604343EAC1039360FFF79AFF434B9B68CE
S3150800BDC0F02203F0F00392FAA2F2B2FA82F2D3401A
S3150800BDD03F4AD35CD8403F4B18600F20FEF7CCF99A
S3150800BDE0002007E0CAB21A701B6803F00F038B42E3
S3150800BDF0C8D00120BDE8F0813449A0688B6823F0DB
S3150800BE00F00303438B60C0E76268304B012A1DD1FB
S3150800BE101B6813F4003FECD02C4EB36823F00303E1
S3150800BE201343B360FEF7AAF96368012B074641F28C
S3150800BE30883815D1B36803F00C03042BA7D0FEF796
S3150800BE409DF9C01B4045F5D90320D3E7911E01296A
S3150800BE501B6802D813F0007FDDE713F0020FDAE75C
S3150800BE60022B0AD1B36803F00C03082B8FD0FEF718
S3150800BE7085F9C01B4045F5D9E6E7032B0FD1B36812
S3150800BE8003F00C030C2B82D0FEF778F9C01B404553
S3150800BE90F5D9D9E7FEF772F9C01B4045D4D8B3687F
S3150800BEA013F00C0FF6D172E7EAB21A701B6803F0AA
S3150800BEB00F03AB429DD171E70449E0688B6823F410
S3150800BEC0E05303438B606DE7003C024000380240B4
S3150800BED0EC2F020800000020014B1868704700BFCD
S3150800BEE000000020084B1868084B9B684FF4E05286
S3150800BEF003F4E05392FAA2F2B2FA82F2D340044A69
S3150800BF00D35CD840704700BF0000002000380240CC
S3150800BF10FC2F0208084B1868084B9B684FF46042D0
S3150800BF2003F4604392FAA2F2B2FA82F2D340044AC8
S3150800BF30D35CD840704700BF00000020003802409C
S3150800BF40FC2F020838B5836804460D469BB10A489B
S3150800BF5004600220A07304F10C00984702380128F7
S3150800BF6001D9832D05D121462046BDE8384000F089
S3150800BF700BB80123A37338BD700D0120837BDB0743
S3150800BF8001D5FFF7DFBF70472DE9F8431C4F3D6821
S3150800BF90044688462B46A34204D00BB9BDE8F8836D
S3150800BFA01B68F8E7002CF9D0164EA37BD6F800904C
S3150800BFB063B10023A3738DB9A3683BB1444505D08B
S3150800BFC034602A46832104F10C0098473B68A34253
S3150800BFD00ED123683B60C6F80090DFE7A54204D07F
S3150800BFE0224687212846FFF7C9FF2D68E3E713464F
S3150800BFF0002BF0D01A68A242F9D122681A60EAE743
S3150800C000740D0120700D012038B5094B00221A70F5
S3150800C010084B1C68012504B938BDE37B2BB1E581C3
S3150800C020002282212046FFF78DFF2468F3E700BF30
S3150800C0306F0D0120740D0120014B1968FFF7A4BF8D
S3150800C040700D0120064B8A221A70064A00231370C7
S3150800C050054A1370054A1360054A1360704700BF06
S3150800C0606D0D01206C0D01206E0D0120740D01204F
S3150800C070700D0120F7B51C4E33780BB1FFF7C4FFDE
S3150800C0801A4D2C7894B11A4F1A493B780C225A4308
S3150800C0908818895CD0E90120013303F01F03013CAD
S3150800C0A03B702C70C0B9144B1C6824B933782878B7
S3150800C0B0184403B0F0BD33782BB1CDE90012FFF771
S3150800C0C0A3FFDDE900122046CDE90012FFF756FF6F
S3150800C0D0DDE900122468E8E7812904BF0123837398
S3150800C0E0FFF74CFFE2E700BF6F0D01206E0D012040
S3150800C0F06C0D0120EC0B0120740D0120F0B50B4DE1
S3150800C1002C78202C0FD00A4B0A4F1B7823440C2678
S3150800C11003F01F037343FE180134F954C6E90120DE
S3150800C1202C700020F0BD0120FCE700BF6E0D012039
S3150800C1306C0D0120EC0B012038B5034C2568FFF780
S3150800C1401DFF256038BD00BF700D0120084B19681A
S3150800C1500A4682420BD042B948B1016018600123F1
S3150800C160837382818121FFF7E7BF1268F1E7704781
S3150800C170740D012048B1837B013B012B05D80123AF
S3150800C180024AC3731370FDF78BBB70476F0D01200E
S3150800C190034B1B680BB1012018470E20704700BFE0
S3150800C1A0EC0D01204FF6FF73002908BF1846014B16
S3150800C1B0188070470A00002010B5054B027A4168BE
S3150800C1C00446188807F0A6FA2368BDE81040184701
S3150800C1D02C00002010B5054B027A416804461888E1
S3150800C1E000F050FB2368BDE8104018470A000020FD
S3150800C1F001460429104610B51A4602D0072913D05D
S3150800C20010BD0378F22BFBD18378112B06D0122BA5
S3150800C210F6D10A4B4FF6FF721A80F1E7032104F0B4
S3150800C2208DFA064B1880EBE7054B1B68002BE7D009
S3150800C2300146BDE810400220184700BF2C00002028
S3150800C240EC0D0120032938B51C460BD10648FCF72E
S3150800C250F7FF024685B21CB103492046FCF738FFB2
S3150800C260284638BD0025FBE70861020870B5137833
S3150800C270A03B1446072B23D8DFE803F012040B2251
S3150800C2802222224920462E4ABDE8704004210AF09F
S3150800C2904CB920462B4ABDE8704004210AF061B922
S3150800C2A0294CA37B052B13D1284BA189284804F1D7
S3150800C2B010020AF000F984F8400010B90623A373A7
S3150800C2C070BDA08906F0F2FA40F20943E381F7E768
S3150800C2D0062B18D104F12602A1891D4801230AF06C
S3150800C2E0F3F8A28984F8400038B904F126031849FE
S3150800C2F020460AF07FF80723E1E7104606F0D6FA4B
S3150800C30040F20953E2E7072BDAD10823D7E70221DF
S3150800C310204604F013FA0C4B9B898342D0D10D4D6D
S3150800C3202B68002BCCD00621204604F007FA2B6890
S3150800C330024604F108010320BDE87040184700BF13
S3150800C340900D0120A60D0120800D01201E3802083F
S3150800C3506DC20008E80D01200428F7B50146144609
S3150800C36040F0C48013783E2B13D0E22B59D0052B0E
S3150800C3701DD11046032104F0E1F95D4A1388834272
S3150800C3803FD14FF6FF7313805A4A13805A4A1380D7
S3150800C3900DE09378012B0AD19379012B17D110461A
S3150800C3A004F0CCF9524B1880002006F05BFA534D86
S3150800C3B053482C6001F054FB00232B60514B1B683B
S3150800C3C0002B00F0938003B0BDE8F04018474E4DAF
S3150800C3D0AB7B032BEBD1104604F0B0F94B4AA8818E
S3150800C3E001464B480AF018F885F8400010B90523AD
S3150800C3F0AB73DCE7A88906F059FA40F20933EB81FA
S3150800C400D5E7414D0321204604F098F9AB898342CC
S3150800C410CDD1284609F0FAFF4FF6FF73AB8100230A
S3150800C420E6E7394D9678D77A69460622201D04F044
S3150800C430D4F9AB7B012B25D1002EB8D11F2FB6D14D
S3150800C440324904F1110002F099FB0028AFD094F8A4
S3150800C450262095F848309A42A9D105F142060622C7
S3150800C4603146684616F0DCF80028A0D0BDF804303E
S3150800C4700098C5F84200A5F84630E37885F84130BB
S3150800C4800223B5E7022B92D1042E90D105F1420181
S3150800C490684604F04BF9002889D1637B092B17D12C
S3150800C4A095F8493004F10E0643B11422314605F1D8
S3150800C4B0490016F039F908B1012399E7154B3146B9
S3150800C4C004F1220251F8040B43F8040B9142F9D106
S3150800C4D006F032F995F841100F4806F037F985F855
S3150800C4E0400008B9032383E7042381E703B0F0BDBE
S3150800C4F0080000200A0000202C0000207C0D0120E6
S3150800C500FC0D0120780D0120800D01202E3802082F
S3150800C5106DC20008C90D0120C20D0120294B10B5B6
S3150800C5204FF6FF72284C9A8104F090F80FF058F8ED
S3150800C53004F0F6F82368984706F07AFC234904F0D5
S3150800C540C3FD6368984704F01FFEA368984704F084
S3150800C55027FE1F481F4B436004F0A8FD06F086FE21
S3150800C5600AF026F80CF010F803200BF0EFFFE0684D
S3150800C5700BF0F2FF20690BF0FBFF02200CF0D8F855
S3150800C58009F012FF14491548002208F08DFD06F03F
S3150800C590ABFF134806F0FAFF124806F0FBFF124BF2
S3150800C5A08122B3F8803040F29731012006F0F6FF79
S3150800C5B00E480F4900F010F9BDE810400D4807F085
S3150800C5C057B800BF800D0120043402082C32020837
S3150800C5D0E00D012059C3000845C20008443202088C
S3150800C5E0073202080D320208007D000891C10008D2
S3150800C5F0A5C10008F1C1000806F05CB808B506F048
S3150800C6007DF9003818BF012008BD000030B587B095
S3150800C610072200230192302104AA029300920846B9
S3150800C6201A460493ADF814300CF014FA1049114D5B
S3150800C630182006F0D1F81049104B0846B3F8803098
S3150800C6406B72FCF7FDFDC4B20246631C0A49EB7225
S3150800C65005F10D00FCF73CFD04F10D002946C0B2BA
S3150800C66006F0CAF8012007B0BDE8304006F0FAB86F
S3150800C670133202080C00002008610208007D000839
S3150800C680002006F0EFB8000038B90B4B18884FF6B3
S3150800C690FF73C01A18BF01207047012801D1074B44
S3150800C6A0F4E7022801D1064BF0E7032802D1054B2F
S3150800C6B09889ECE700207047080000200A0000204F
S3150800C6C02C000020800D0120014B1860704700BF28
S3150800C6D0780D012003460A4883605B7A012B05D151
S3150800C6E0084B4360084B198800F0CAB8022B05D1DD
S3150800C6F0064B4360064B198807F00AB8704700BF17
S3150800C700F00D0120D5C100080A000020B9C10008B3
S3150800C7102C000020014B1860704700BFEC0D01206B
S3150800C72038B5104D049B2D888D42044607D1BAB9F9
S3150800C7300D4A19461468BDF81420A04738BD0B4A9F
S3150800C74012888A420AD10021184603F0F7FF084BDF
S3150800C7501880084B01461B68204698470020EDE7DD
S3150800C7600B20EBE70C0E0120040E0120080E012019
S3150800C7700A0E0120000E012010B51C46134B1B881B
S3150800C7808B4208D12CB1124B00211A88204603F09F
S3150800C790E8FF022010BD0F4B1B888B4213D184B1D2
S3150800C7A0BDF80830092B0CD908F0EBFC4FF40071E2
S3150800C7B0033800F001FE002381B20322204600F070
S3150800C7C066FF0A20E6E70020E4E700BF080E01201E
S3150800C7D00A0E01200E0E012007B51E4B18601E4BCF
S3150800C7E01E4819600023ADF804300DF106024FF615
S3150800C7F0FF7301A9ADF8063007F07CFEBDF80610F8
S3150800C800174ABDF8040007F0B3FE164BBDF806102C
S3150800C8101880134ABDF8040007F0D2FE124B134ADB
S3150800C820BDF806101880BDF8040007F0A1FE104BED
S3150800C83018801048BDF804308380BDF80630C380E0
S3150800C8400D4B83600D4BC36008F01AFC03B05DF80E
S3150800C85004FB00BF040E0120000E01206638020802
S3150800C860463802080C0E0120080E01205638020828
S3150800C8700E0E0120100E012079C7000821C70008F6
S3150800C88008F040BC13460A460149098808F052BC1C
S3150800C8900C0E012070470000014B1868704700BF56
S3150800C8A0240E0120024B1B680A205843704700BF1C
S3150800C8B0240E0120024B1B684FF47A7058437047C8
S3150800C8C0240E0120054A10B514684FF47A711368CE
S3150800C8D01B1B4B438342FAD310BD00BF240E012015
S3150800C8E0024A1368013313600EF0ECB8240E0120D7
S3150800C8F0084A0949536F13F0805F06D001230B706D
S3150800C900536F43F080735367704713F0005318BF93
S3150800C9100223F4E700380240280E012008B560B962
S3150800C920BFF34F8F0849094BCA6802F4E062134304
S3150800C930CB60BFF34F8F00BFFDE772B600F096FBE2
S3150800C94000F0ACFAFAE700BF00ED00E00400FA05D3
S3150800C950F0B52F4E2F4F746830688DB0002501232F
S3150800C96007A9CDE90835079401900A95FEF72CFF2B
S3150800C97001982A46A1B2284CFFF70EF8F3692360FE
S3150800C980336A63604023C4E902354FF480624FF48A
S3150800C9900063C4E904234FF400514FF48073C4E9DB
S3150800C9A0061320464FF40033C4E90835C4E90A558E
S3150800C9B025630CF0C1FDB3683B6038460CF076FB86
S3150800C9C03369F268BC6003A93846CDE90335A76325
S3150800C9D00CF020FC114C7369A560C4E900352046AB
S3150800C9E04FF6FF73C4E903350DF0A6FB202305A90E
S3150800C9F02046CDE905350DF0D7FA20460DF015FB92
S3150800CA0096F92400103015F0A3FD0DB0F0BD00BF57
S3150800CA10DC3602082C0E0120400E0120A00E012053
S3150800CA20F0B50E4D85B0064603912868A9881746C5
S3150800CA300122FEF7B1FF0A48AC69B4FBF7F4013CE2
S3150800CA40C4600DF079FB04220092039BE96805484F
S3150800CA5032460CF03FFB05B0F0BD00BFDC360208DD
S3150800CA60A00E01202C0E012010B5064C0022A1882C
S3150800CA702068FEF791FFE1680348BDE810400CF016
S3150800CA8091BB00BFDC3602082C0E012001480CF0D1
S3150800CA9077BC00BF400E012082292DE9F0410646E9
S3150800CAA017D1574C2578A5B9564F5749387880F08D
S3150800CAB0010002F073F808B1544B1D70257845B98A
S3150800CAC03878534902F06AF818B1524B1D80012391
S3150800CAD0237033882BB1B22B40F08E80484F3B78B9
S3150800CAE023B9B22333800120BDE8F081494D4A4875
S3150800CAF02B880468412B31D006D8D3B13C2B23D0E0
S3150800CB0000232B80032340E0492B56D0562BF7D120
S3150800CB1042480EF077F828B3A36B13F0040F3B4B8B
S3150800CB2014BF042203221A70A36B23F48013A36391
S3150800CB3053E00CF0DDFDA36B384843F48023A36370
S3150800CB404FF47A710EF038F8A36B13F001080BD086
S3150800CB50324864210EF030F841232B802F480EF01E
S3150800CB6051F8E0B9002310E02C480EF04BF890B1CC
S3150800CB70A36B294823F48023A3630CF0C3FD234B3E
S3150800CB80A5F8008001221A700223012B8CBF00230E
S3150800CB9001233B70A5E73C232B800123F5E7A36B14
S3150800CBA01E4823F48023A363A36B43F40023A363E3
S3150800CBB064210EF001F849232B8018480EF022F85C
S3150800CBC00028CFD0A36B13F0020FA36B23F4002326
S3150800CBD0A36306D10D4B02221A700F480CF092FD82
S3150800CBE08EE7A36B0D4843F48013A36364210DF00D
S3150800CBF0E3FF56232B808BE700233380032073E75C
S3150800CC00DC0E0120C4150120B0150120B115012044
S3150800CC10DD0E0120DE0E0120E00E0120B4150120F4
S3150800CC2001480CF0E9BD00BFE00E0120024B187068
S3150800CC300248FFF79FBA00BFC41501203000002044
S3150800CC4008B50A480A4B0B49C0F8C4320022C3F893
S3150800CC50FC0302F0DDFF0848FFF778FA0648FFF7FD
S3150800CC6089FABDE8084000F001B900BFE0120120CA
S3150800CC70E00E01201002002030000020014B187839
S3150800CC80704700BFB1150120014B0020187070478E
S3150800CC90EC16012021280ED022281CD0202808D1E5
S3150800CCA0104B0A681A600A791A714A795A718A7990
S3150800CCB09A71002070470B4A13680B70180A48705F
S3150800CCC0180C1B0ECB7013790B7153794B71937932
S3150800CCD088708B71EDE74B88034A03F001031370E4
S3150800CCE0E7E700BF40000020EC160120014B0020BA
S3150800CCF0187070476D17012070B506460D4600245A
S3150800CD002B68A34203D8044B0020187070BD305D11
S3150800CD10FDF75EF90134F3E72D17012010B50E492A
S3150800CD200E4C0F4880220DF07AFE0E490E488022DE
S3150800CD300DF075FE00220D49204602F02CFF0C4925
S3150800CD40204602F030FF0B4B002018700A4B187073
S3150800CD500A4B187010BD00BFD0150120E012012043
S3150800CD60C815012058160120501601202E1701203B
S3150800CD70ED1601202D1701206D170120EC16012054
S3150800CD8003882DE9F0410546ABB140F221129342E2
S3150800CD9057D1822924D12D4F2D480DF021FF3B78FC
S3150800CDA033B32C4C2378ABB92B4802F01AFF88B959
S3150800CDB0012323700EE02949274802F041FF28493C
S3150800CDC0254802F0E1FE244802F04DFF20480121E3
S3150800CDD00DF0F2FE40F221132B800120BDE8F08110
S3150800CDE08829FAD11A480DF00DFF0028F5D0D2E7A8
S3150800CDF01C4C26687EB12268002AD2D01A491648E9
S3150800CE0002F0C9FE144802F0D4FE0028C9D1012355
S3150800CE103B702060C5E7FDF7CFF83F28206004D9AE
S3150800CE203F232360DFF8408007E00028E3D0F9E7D6
S3150800CE3008EB0600FDF7C6F8013623689E42F7D3CD
S3150800CE40D9E7002303800320C8E700BF6D17012038
S3150800CE50D81601202D170120E0120120CC00002051
S3150800CE6048000020E81601202E1701200148FFF788
S3150800CE706DB900BF5C000020074B45F255521A6099
S3150800CE8004225A6040F2DC529A604AF6AA221A60D4
S3150800CE904CF6CC421A60704700300040024B4AF606
S3150800CEA0AA221A60704700BF003000407047000091
S3150800CEB07FB502230122CDE9012305480593002207
S3150800CEC001A9CDE90322FEF77FFC07B05DF804FB54
S3150800CED0000002407FB54FF400720223CDE901231A
S3150800CEE00023CDE903330648032301A90593FEF77A
S3150800CEF06BFC044AD36A5B08136407B05DF804FB4D
S3150800CF0000080240000401407FB54FF400420223A6
S3150800CF10CDE901230023CDE903330648092301A9F6
S3150800CF200593FEF751FC044AD36A5B08936307B07E
S3150800CF305DF804FB000402400018004008B50648E6
S3150800CF404FF40071FEF722FD0038BDE8084018BF0F
S3150800CF500120FFF76BBE00BF000002407047704714
S3150800CF607FB502680D4B9A4215D10223029303211D
S3150800CF700723CDE9041318230948019301A90023BF
S3150800CF800393FEF721FC602301930548012301A9B9
S3150800CF900393FEF719FC07B05DF804FB0044004054
S3150800CFA0000C02400EF042BC0EF046BC0EF04ABC25
S3150800CFB030B50268264B9A4287B046D1002403232F
S3150800CFC0CDE903434FF480651123224801A9CDE931
S3150800CFD00153FEF7F9FB1F4D0A2401224FF4806125
S3150800CFE02846FEF7D9FC0120FFF76CFC00224FF417
S3150800CFF080612846FEF7D0FC0120FFF763FC013C60
S3150800D000EBD11223029304230DEB03011148059378
S3150800D010FEF7DAFB082301A90E48019309230593B5
S3150800D020FEF7D2FB322015F093FA312015F090FA6C
S3150800D030094B04941020CDE9010301A9054805947C
S3150800D040FEF7C2FB1A2015F083FA07B030BD00BF01
S3150800D0500058004000040240000011100FF03CB9CF
S3150800D0600FF040B91020FEF7A1BC0000024B4FF0AC
S3150800D07000529A61704700BF000002407FB5102237
S3150800D0800323CDE901230448002301A90393FEF7EE
S3150800D0909BFB07B05DF804FB00000240FFF7F6BCF7
S3150800D0A0012010F0B7B8032010F0B4B8002010F033
S3150800D0B0B1B8022010F0AEB8052010F0ABB80420C5
S3150800D0C010F0A8B82DE9F04F00248BB0DFF8F090E7
S3150800D0D009944FF0100B5A460646214601A8012529
S3150800D0E00327CDE9074415F0CDFA05A94846CDE949
S3150800D0F00557FEF769FB0A2301A93046CDE9013534
S3150800D1004FF00208CDE903540BF03EFF05A9484647
S3150800D110CDE905870794FEF757FB0B2301A930468F
S3150800D120CDE90138CDE903540BF02EFF05A92348B4
S3150800D13007944FF0080ACDE90557FEF745FB01A904
S3150800D1403046CDE901A7CDE903540BF01DFFCDE923
S3150800D15005A7DFF870A0079405A95046FEF734FB2B
S3150800D16004230DEB03013046CDE9023501970494FB
S3150800D1700BF00AFF05A94846CDE905B70794FEF75F
S3150800D18023FB0E22052301A93046CDE90123CDE96B
S3150800D19003540BF0F9FE05A95046CDE90587079417
S3150800D1A0FEF712FB062301A93046CDE902350195A3
S3150800D1B004940BF0E9FE0BB0BDE8F08F00040240C2
S3150800D1C000080240000002400DF034BE00200FF0B7
S3150800D1D067BE00200FF06EBEF0B502681E4B9A427D
S3150800D1E087B004460DD1E0210223CDE901130020C2
S3150800D1F00323CDE9030301A9052318480593FEF780
S3150800D200E3FA2268164B9A4224D116484FF4805600
S3150800D21001270025032401A9CDE90167CDE90354B7
S3150800D220FEF7D2FA0F483A463146FEF7B5FB4FF4F9
S3150800D23000520223CDE901230A48052301A90593D3
S3150800D240CDE90354FEF7C0FA0C230748019301A958
S3150800D250FEF7BAFA07B0F0BD003001400000024000
S3150800D26000380040000402400008024000200FF089
S3150800D2702BBE0DF047BF0DF039BF0DF03DBF0000C6
S3150800D2800268034B9A4201D10DF04EBF704700BFAA
S3150800D290003800400368054A934201D10FF01EBECC
S3150800D2A0034A934201D10DF033BF70470030014065
S3150800D2B0003800400268034B9A4201D10DF036BF90
S3150800D2C0704700BF0038004010B54FF4C05286B012
S3150800D2D00223CDE9012300240323CDE9034301A951
S3150800D2E00A230C480593FEF76FFA0B4B094803947B
S3150800D2F04FF40071CDE9011301A9FEF765FA532031
S3150800D30015F026F9272015F023F9FFF717FE06B0C2
S3150800D31010BD00BF0000024000003110FFF780BCBE
S3150800D3204FF40070FEF742BB102801D10EF0F2BF91
S3150800D330B0F5007F01D1FFF701BE704730B5184A36
S3150800D340536943F4007387B0536162B6154B1648A8
S3150800D3501A6B42F4C00242F01F021A63196C134A90
S3150800D3600A431A645A6C42F4A34242F043025A64CE
S3150800D3705A6B42F080025A634FF400540023012589
S3150800D38001A9CDE903330593CDE90145FEF71CFA5A
S3150800D39005482A462146FEF7FFFA07B030BD00BF0A
S3150800D3A000ED00E000380240000002405F405AE00D
S3150800D3B00028B8BF404270478842A8BF0846704751
S3150800D3C0002804D002DC4FF0FF3070470120704778
S3150800D3D08A4208B505DA074B074A08485B21FCF775
S3150800D3E063FA824203DB81420A46B8BF0246104608
S3150800D3F008BD00BF3A370208EC370208453702086D
S3150800D4000A1E08B505DC054B054A06487221FCF7D5
S3150800D4104BFABDE808405142FFF7DABF6337020806
S3150800D420D837020845370208F8B580EAE07581EA78
S3150800D430E177A5EBE075A7EBE17785FB0757B7F52D
S3150800D440004F06D3214B224A40F20D112148FCF722
S3150800D4502BFA22B9204B1E4A4FF48771F6E782EA67
S3150800D460E27C2E0C46EA0746ACEBE27CADB2B6FB94
S3150800D470FCF700280CFB176445EA0444B4BF4FF0D8
S3150800D480FF3501250029B4BF4FF0FF360126002AD3
S3150800D49006FB05F54FEAE273B4BF4FF0FF360126E7
S3150800D4A080FB01017543B4FBFCF4FBF757FC44EA27
S3150800D4B007446C43E5178D4208BF844204D0074BE6
S3150800D4C0034A40F22311C1E72046F8BD6F37020828
S3150800D4D0BC37020845370208863702088D37020826
S3150800D4E030B490F824408C4222D9944220D990F83E
S3150800D4F02550013D042D08D8DFE805F0030C150773
S3150800D5000C00D24314440A46E1B284692468A4464E
