S00B00006173702E73726563D5
S31508008000E8B80020D98100082D8200082D820008D2
S315080080102D8200082D8200082D8200082D82000876
S315080080200000000000000000000000001D8300089A
S315080080302D820008000000006B82000859B3000872
S3150800804059B3000859B3000859B3000859B30008D2
S3150800805059B3000859B3000859B3000859B30008C2
S3150800806059B3000859B3000859B3000859B30008B2
S3150800807059B3000859B3000859B3000859B30008A2
S3150800808059B3000859B3000859B3000859B3000892
S3150800809059B3000859B3000859B3000859B3000882
S315080080A059B3000859B3000859B3000859B3000872
S315080080B059B3000859B3000859B3000859B3000862
S315080080C059B3000859B3000859B3000859B3000852
S315080080D059B3000859B3000859B3000859B3000842
S315080080E059B3000859B3000859B3000859B3000832
S315080080F059B3000859B3000859B3000859B3000822
S3150800810059B3000859B3000859B3000859B3000811
S3150800811059B3000859B3000859B3000859B3000801
S3150800812059B3000859B3000859B3000859B30008F1
S3150800813059B3000859B3000859B3000859B30008E1
S3150800814059B3000859B3000859B3000859B30008D1
S3150800815059B3000859B3000859B3000859B30008C1
S3150800816059B3000859B3000859B3000859B30008B1
S3150800817059B3000859B3000859B3000859B30008A1
S3150800818059B3000859B3000859B3000859B3000891
S3150800819059B3000859B3000859B3000859B3000881
S315080081A059B3000859B3000859B3000859B3000871
S315080081B059B3000859B3000859B3000859B3000861
S315080081C059B3000859B3000859B3000859B3000851
S315080081D059B3000859B3000871B602F059FA0020DD
S315080081E00D490E4A914203D2086004319142FBD3ED
S315080081F00B490C4A914206D20B4B086818600431A9
S3150800820004339142F9D300F005F803F0D9F8FEE7F4
S31508008210704700BF7047000000100020F48E012050
S315080082202C870208948F020800000020EFF31181C2
S31508008230EFF3108251EA02211EF0040F05D0EFF386
S31508008240098020E9024002B501E002B56846744A91
S3150800825013680CB4EFF30583724951F8232090474D
S315080082600FBC016082F311881847102080F311882B
S315080082706D49086858B1EFF309821EF0100F01D155
S3150800828022ED108A22E9F00F8261C0F81CE06748E7
S3150800829000680860A0B1C16911F07F42B2F17F4F52
S315080082A01AD18269B2E8F00F11F0100F01D1B2ECC1
S315080082B0108A82F30988002071B680F3118808476E
S315080082C0EFF309805A495FF0807220E906001838F2
S315080082D080F30988DFF840F0426A4AB1554A5FF0F0
S315080082E080738069B0E8F00F20E90E00143807E0C3
S315080082F08069B0E8F00F5FF0807220E90600183850
S3150800830080F30988464801210160BFF34F8FDFF8E3
S3150800831008F0BDEC108A7047FDFFFFFF40480021BA
S315080083200160002080F31188A0692900B0E8F00FE9
S3150800833011F0100F01D1B0EC108A80F309880847B4
S315080083403D48016881F30888022080F31488BFF34A
S315080083506F8F3A49D1F814D034490968324A61B660
S315080083601BE0022383F31488BFF36F8F2F49096834
S315080083702D4A12E0EFF3148313F0040306D02DED13
S31508008380108A022383F31488BFF36F8F43622DE9A3
S31508008390F00FC0F81CE0C0F818D0116089B1CA699E
S315080083A012F07F40B0F17F4F02D10C00150000DFBC
S315080083B0D1F818D0BDE8F00F4B6A0BB1BDEC108AA6
S315080083C01047174800210160BFF34F8F002080F344
S315080083D01188BFF34F8F30BFFBE700BF104800215D
S315080083E00160BFF34F8F002080F311880E480168A3
S315080083F08A685068DFF848E0D2F808F0002181F36F
S315080084001488BFF36F8F03F007B800BFA0F15300BD
S31508008410002800DC7047A0F131000028FBDC70471B
S31508008420042B0120404F0208182B01201C2B012089
S31508008430C28300081283000848520208B052020894
S3150800844061B9000881F0004102E000BF83F00043F3
S3150800845030B54FEA41044FEA430594EA050F08BFD1
S3150800846090EA020F1FBF54EA000C55EA020C7FEA95
S31508008470645C7FEA655C00F0E2804FEA5454D4EB12
S315080084805555B8BF6D420CDD2C4480EA020281EADC
S31508008490030382EA000083EA010180EA020281EA14
S315080084A00303362D88BF30BD11F0004F4FEA013166
S315080084B04FF4801C4CEA113102D0404261EB410175
S315080084C013F0004F4FEA03334CEA133302D05242FB
S315080084D063EB430394EA050F00F0A780A4F10104B7
S315080084E0D5F1200E0DDB02FA0EFC22FA05F28018F1
S315080084F041F1000103FA0EF2801843FA05F35941D7
S315080085000EE0A5F120050EF1200E012A03FA0EFC55
S3150800851028BF4CF0020C43FA05F3C01851EBE3717F
S3150800852001F0004507D54FF0000EDCF1000C7EEB9C
S3150800853000006EEB0101B1F5801F1BD3B1F5001FDA
S315080085400CD349085FEA30004FEA3C0C04F10104F9
S315080085504FEA445212F5800F80F09A80BCF1004F22
S3150800856008BF5FEA500C50F1000041EB045141EAA4
S31508008570050130BD5FEA4C0C404141EB0101013C6D
S3150800858028BFB1F5801FE9D291F0000F04BF01465C
S315080085900020B1FA81F308BF2033A3F10B03B3F12E
S315080085A020020CDA0C3208DD02F1140CC2F10C02BE
S315080085B001FA0CF021FA02F10CE002F11402D8BF1C
S315080085C0C2F1200C01FA02F120FA0CFCDCBF41EAE8
S315080085D00C019040E41AA2BF01EB0451294330BDB7
S315080085E06FEA04041F3C1CDA0C340EDC04F1140494
S315080085F0C4F1200220FA04F001FA02F340EA03006B
S3150800860021FA04F345EA030130BDC4F10C04C4F1B0
S31508008610200220FA02F001FA04F340EA0300294690
S3150800862030BD21FA04F0294630BD94F0000F83F4DA
S31508008630801306BF81F480110134013D4EE77FEABD
S31508008640645C18BF7FEA655C29D094EA050F08BF09
S3150800865090EA020F05D054EA000C04BF19461046EA
S3150800866030BD91EA030F1EBF0021002030BD5FEA2E
S31508008670545C05D14000494128BF41F0004130BD56
S3150800868014F580043CBF01F5801130BD01F00045AA
S3150800869045F0FE4141F470014FF0000030BD7FEA1D
S315080086A0645C1ABF194610467FEA655C1CBF0B4618
S315080086B0024650EA013406BF52EA033591EA030F2F
S315080086C041F4002130BD00BF90F0000F04BF002127
S315080086D0704730B54FF4806404F132044FF000055A
S315080086E04FF0000150E700BF90F0000F04BF0021D3
S315080086F0704730B54FF4806404F1320410F0004539
S3150800870048BF40424FF000013EE700BF42004FEA33
S31508008710E2014FEA31014FEA02701FBF12F07F43B0
S3150800872093F07F4F81F06051704732F07F4208BF67
S31508008730704793F07F4F04BF41F40021704730B56E
S315080087404FF4607401F0004521F000411CE700BFBA
S3150800875050EA010208BF704730B54FF000050AE03D
S3150800876050EA010208BF704730B511F0004502D53E
S31508008770404261EB41014FF4806404F132045FEA40
S31508008780915C3FF4D8AE4FF003025FEADC0C18BFE9
S3150800879003325FEADC0C18BF033202EBDC02C2F1DB
S315080087A0200300FA03FC20FA02F001FA03FE40EA6D
S315080087B00E0021FA02F11444BDE600BF70B54FF071
S315080087C0FF0C4CF4E06C1CEA11541DBF1CEA13554F
S315080087D094EA0C0F95EA0C0F00F0DEF82C4481EAB7
S315080087E0030621EA4C5123EA4C5350EA013518BFD7
S315080087F052EA033541F4801143F4801338D0A0FBC4
S3150800880002CE4FF00005E1FB02E506F00042E0FB70
S3150800881003E54FF00006E1FB03569CF0000F18BF76
S315080088204EF0010EA4F1FF04B6F5007F64F540741E
S3150800883004D25FEA4E0E6D4146EB060642EAC621B1
S3150800884041EA55514FEAC52040EA5E504FEACE2E1E
S31508008850B4F1FD0C88BFBCF5E06F1ED8BEF1004F21
S3150800886008BF5FEA500E50F1000041EB045170BD9D
S3150800887006F0004646EA010140EA020081EA0301E1
S31508008880B4EB5C04C2BFD4EB0C0541EA045170BDDD
S3150800889041F480114FF0000E013C00F3AB8014F157
S315080088A0360FDEBF002001F0004170BDC4F10004A0
S315080088B0203C35DA0C341BDC04F11404C4F1200521
S315080088C000FA05F320FA04F001FA05F240EA02007C
S315080088D001F0004221F0004110EBD37021FA04F6B2
S315080088E042EB06015EEA430E08BF20EAD37070BD6C
S315080088F0C4F10C04C4F1200500FA04F320FA05F0CB
S3150800890001FA04F240EA020001F0004110EBD370CC
S3150800891041F100015EEA430E08BF20EAD37070BD3C
S31508008920C4F1200500FA05F24EEA020E20FA04F315
S3150800893001FA05F243EA020321FA04F001F00041C4
S3150800894021FA04F220EA020000EBD3705EEA430E35
S3150800895008BF20EAD37070BD94F0000F0FD101F064
S315080089600046400041EB010111F4801F08BF013C9D
S31508008970F7D041EA060195F0000F18BF704703F0DB
S315080089800046520043EB030313F4801F08BF013D62
S31508008990F7D043EA0603704794EA0C0F0CEA13551E
S315080089A018BF95EA0C0F0CD050EA410618BF52EAD8
S315080089B04306D1D181EA030101F000414FF00000DE
S315080089C070BD50EA410606BF1046194652EA4306EC
S315080089D019D094EA0C0F02D150EA013613D195EA60
S315080089E00C0F05D152EA03361CBF104619460AD1A8
S315080089F081EA030101F0004141F0FE4141F47001B2
S31508008A004FF0000070BD41F0FE4141F4780170BDA1
S31508008A1070B54FF0FF0C4CF4E06C1CEA11541DBF06
S31508008A201CEA135594EA0C0F95EA0C0F00F0A7F808
S31508008A30A4EB050481EA030E52EA03354FEA013135
S31508008A4000F088804FEA03334FF0805545EA131348
S31508008A5043EA12634FEA022245EA111545EA106510
S31508008A604FEA00260EF000419D4208BF964244F1A7
S31508008A70FD0404F5407402D25B084FEA3202B61AC6
S31508008A8065EB03055B084FEA32024FF480104FF49A
S31508008A90002CB6EB020E75EB030E22BFB61A75460E
S31508008AA040EA0C005B084FEA3202B6EB020E75EBA1
S31508008AB0030E22BFB61A754640EA5C005B084FEA09
S31508008AC03202B6EB020E75EB030E22BFB61A7546D6
S31508008AD040EA9C005B084FEA3202B6EB020E75EBE1
S31508008AE0030E22BFB61A754640EADC0055EA060EA2
S31508008AF018D04FEA051545EA16754FEA06164FEAE5
S31508008B00C30343EA52734FEAC2025FEA1C1CC0D190
S31508008B1011F4801F0BD141EA00014FF000004FF01D
S31508008B20004CB6E711F4801F04BF01430020B4F1DE
S31508008B30FD0C88BFBCF5E06F3FF6AFAEB5EB030C96
S31508008B4004BFB6EB020C5FEA500C50F1000041EB93
S31508008B50045170BD0EF0004E4EEA113114EB5C0460
S31508008B60C2BFD4EB0C0541EA045170BD41F4801133
S31508008B704FF0000E013C90E645EA060E8DE60CEA3B
S31508008B80135594EA0C0F08BF95EA0C0F3FF43BAF58
S31508008B9094EA0C0F0AD150EA01347FF434AF95EA0F
S31508008BA00C0F7FF425AF104619462CE795EA0C0FF3
S31508008BB006D152EA03353FF4FDAE1046194622E7C0
S31508008BC050EA410618BF52EA43067FF4C5AE50EA9A
S31508008BD041047FF40DAF52EA43057FF4EBAE12E78A
S31508008BE04FF0FF3C06E000BF4FF0010C02E000BF6B
S31508008BF04FF0010C4DF804CD4FEA410C7FEA6C5C4E
S31508008C004FEA430C18BF7FEA6C5C1BD001B050EAF0
S31508008C10410C0CBF52EA430C91EA030F02BF90EADB
S31508008C20020F0020704710F1000F91EA030F58BF9A
S31508008C30994208BF90422CBFD8176FEAE37040F0FC
S31508008C40010070474FEA410C7FEA6C5C02D150EA9A
S31508008C50013C07D14FEA430C7FEA6C5CD6D152EA55
S31508008C60033CD3D05DF8040B704700BF844610461A
S31508008C7062468C461946634600E000BF01B5FFF719
S31508008C80B7FF002848BF10F1000F01BD4DF808EDE9
S31508008C90FFF7F4FF0CBF012000205DF808FB00BFBA
S31508008CA04DF808EDFFF7EAFF34BF012000205DF814
S31508008CB008FB00BF4DF808EDFFF7E0FF94BF012061
S31508008CC000205DF808FB00BF4DF808EDFFF7CEFF62
S31508008CD094BF012000205DF808FB00BF4DF808EDA1
S31508008CE0FFF7C4FF34BF012000205DF808FB00BF72
S31508008CF04FEA410C7FEA6C5C02D150EA013C0AD18A
S31508008D004FEA430C7FEA6C5C02D152EA033C02D17B
S31508008D104FF0000070474FF0010070474A0011D22B
S31508008D2012F5001211D20DD56FF47873B3EB6252B7
S31508008D300ED44FEAC12343F0004343EA505323FAC3
S31508008D4002F070474FF00000704750EA013002D138
S31508008D504FF0FF3070474FF0000070477BB972B98B
S31508008D600029BEBF00204FF0004106E008BF0028DA
S31508008D701CBF6FF000414FF0FF3000F0A7B9ADF10E
S31508008D80080C6DE904CE002909DB002B1ADB00F07C
S31508008D9035F8DDF804E0DDE9022304B07047404207
S31508008DA061EB4101002B1BDB00F028F8DDF804E03D
S31508008DB0DDE9022304B0404261EB4101524263EB14
S31508008DC043037047524263EB430300F017F8DDF89C
S31508008DD004E0DDE9022304B0404261EB410170473B
S31508008DE0524263EB430300F009F8DDF804E0DDE9DD
S31508008DF0022304B0524263EB430370472DE9F04760
S31508008E00089D04468E46002B4DD18A42944669D960
S31508008E10B2FA82F252B101FA02F3C2F1200120FA43
S31508008E2001F10CFA02FC41EA030E94404FEA1C4891
S31508008E30210CBEFBF8F61FFA8CF708FB16E341EA8D
S31508008E40034306FB07F199420AD91CEB030306F113
S31508008E50FF3080F01F81994240F21C81023E634434
S31508008E605B1AA4B2B3FBF8F008FB103344EA0344D8
S31508008E7000FB07F7A7420AD91CEB040400F1FF33ED
S31508008E8080F00A81A74240F207816444023840EA2A
S31508008E900640E41B00261DB1D4400023C5E9004363
S31508008EA03146BDE8F0878B4209D9002D00F0EF80E6
S31508008EB00026C5E9000130463146BDE8F087B3FA19
S31508008EC083F6002E4AD18B4202D3824200F2F98001
S31508008ED0841A61EB030301209E46002DE0D0C5E904
S31508008EE0004EDDE702B9FFDEB2FA82F2002A40F050
S31508008EF09280A1EB0C014FEA1C471FFA8CFE012653
S31508008F00200CB1FBF7F307FB131140EA01410EFBF6
S31508008F1003F0884208D91CEB010103F1FF3802D29D
S31508008F20884200F2CB804346091AA4B2B1FBF7F097
S31508008F3007FB101144EA01440EFB00FEA64508D9BA
S31508008F401CEB040400F1FF3102D2A64500F2BB80F7
S31508008F500846A4EB0E0440EA03409CE7C6F1200746
S31508008F60B34022FA07FC4CEA030C20FA07F401FA8C
S31508008F7006F31C43F9404FEA1C4900FA06F3B1FB15
S31508008F80F9F8200C1FFA8CFE09FB181140EA01417A
S31508008F9008FB0EF0884202FA06F20BD91CEB010117
S31508008FA008F1FF3A80F08880884240F28580A8F16F
S31508008FB002086144091AA4B2B1FBF9F009FB1011C1
S31508008FC044EA014100FB0EFE8E4508D91CEB01015F
S31508008FD000F1FF346CD28E456AD90238614440EA02
S31508008FE00840A0FB0294A1EB0E01A142C846A64682
S31508008FF056D353D05DB1B3EB080261EB0E0101FA0B
S3150800900007F722FA06F3F1401F43C5E90071002667
S315080090103146BDE8F087C2F12003D8400CFA02FCBD
S3150800902021FA03F3914001434FEA1C471FFA8CFECD
S31508009030B3FBF7F007FB10360B0C43EA064300FBBD
S315080090400EF69E4204FA02F408D91CEB030300F15B
S31508009050FF382FD29E422DD9023863449B1B89B212
S31508009060B3FBF7F607FB163341EA034106FB0EF39B
S315080090708B4208D91CEB010106F1FF3816D28B4248
S3150800908014D9023E6144C91A46EA004638E72E4614
S31508009090284605E70646E3E61846F8E64B45A9D20C
S315080090A0B9EB020864EB0C0E0138A3E74646EAE77B
S315080090B0204694E74046D1E7D0467BE7023B614429
S315080090C032E7304609E76444023842E7704700BF92
S315080090D0844641EA000313F003036DD1403A41D3B5
S315080090E051F8043B40F8043B51F8043B40F8043B74
S315080090F051F8043B40F8043B51F8043B40F8043B64
S3150800910051F8043B40F8043B51F8043B40F8043B53
S3150800911051F8043B40F8043B51F8043B40F8043B43
S3150800912051F8043B40F8043B51F8043B40F8043B33
S3150800913051F8043B40F8043B51F8043B40F8043B23
S3150800914051F8043B40F8043B51F8043B40F8043B13
S3150800915051F8043B40F8043B51F8043B40F8043B03
S31508009160403ABDD2303211D351F8043B40F8043BA3
S3150800917051F8043B40F8043B51F8043B40F8043BE3
S3150800918051F8043B40F8043B103AEDD20C3205D3B3
S3150800919051F8043B40F8043B043AF9D2043208D0AB
S315080091A0D2071CBF11F8013B00F8013B01D30B881D
S315080091B003806046704700BF082A13D38B078DD0FB
S315080091C010F003038AD0C3F10403D21ADB071CBFCD
S315080091D011F8013B00F8013B80D331F8023B20F837
S315080091E0023B7BE7043AD9D3013A11F8013B00F870
S315080091F0013BF9D20B7803704B7843708B788370F8
S3150800920060467047000000000000000000000000F3
S315080092100000000000000000000000000000000040
S315080092200000000000000000000000000000000030
S315080092300000000000000000000000000000000020
S3150800924090F800F06DE9024520F007016FF0000C78
S3150800925010F0070491F820F040F049804FF0000420
S315080092606FF00700D1E9002391F840F000F10800FB
S3150800927082FA4CF2A4FA8CF283FA4CF3A2FA8CF333
S315080092804BBBD1E9022382FA4CF200F10800A4FA9A
S315080092908CF283FA4CF3A2FA8CF3E3B9D1E90423EE
S315080092A082FA4CF200F10800A4FA8CF283FA4CF325
S315080092B0A2FA8CF37BB9D1E9062301F1200182FADF
S315080092C04CF200F10800A4FA8CF283FA4CF3A2FAE5
S315080092D08CF3002BC6D0002A04BF04301A4612BAF3
S315080092E0B2FA82F2FDE8024500EBD2007047D1E9F6
S315080092F0002304F00305C4F100004FEAC50514F085
S31508009300040F91F840F00CFA05F562EA05021CBF55
S3150800931063EA050362464FF00004A9E7000000006F
S3150800932001F0FF01102A2BDB10F0070F08D010F808
S31508009330013B013A8B422DD010F0070F42B3F6D10C
S31508009340F0B441EA012141EA014122F007047FF025
S3150800935000070023F0E80256083C85EA010586EA7C
S31508009360010685FA47F5A3FA87F586FA47F6A5FAB8
S3150800937087F68EB9EED1F0BC01F0FF0102F00702C4
S3150800938032B110F8013B013A83EA010313B1F8D16F
S315080093900020704701387047002D06BF3546033850
S315080093A0073815F0010F07D1013015F4807F02BF89
S315080093B0013015F4C03F0130F0BC0138704700BFDA
S315080093C010B513481AF056FE12481AF053FE104804
S315080093D01AF050FE442001F00FFB044601E002F0AB
S315080093E067FA204601F02AFB034642F21070002B6A
S315080093F0F5D045224121422000F044FA06481AF0E9
S3150800940039FE022002F042FCBDE8104002F0A8BA7C
S31508009410A04A0208C44A0208E84A02082DE9F04FA1
S31508009420B0FBF1FC1D4601FB1C0385B0D35CDDF8DF
S3150800943038808DF8043001AFDDE90F96BE46012469
S3150800944000E09C46814260460AD8BCFBF1F301FB6A
S3150800945013CC013412F80CC00EF801CF0B2CF0D146
S31508009460B8F1000F2AD005B1013DB9F1000F01D0BE
S315080094702D20B047AC421BD2B9F1000F14BF4FF0F4
S31508009480300B4FF0200BA24658460AF1010AB047A6
S31508009490AA45F9D3B8F1000F0AD1013C3C4420781B
S315080094A0B047BC4204F1FF34F9D105B0BDE8F08FEE
S315080094B0B9F1000FF1D12D20B047EEE7AC42DBD36E
S315080094C0EBE700BF2DE9F04F834682461BF8010BF8
S315080094D085B0002859D0DFF88091DFF880815D4F8C
S315080094E00E461446002507E0A047DA460BF1010BA5
S315080094F09AF80000002848D02528F5D1042DF3D87D
S315080095009AF80120302A46D00AF1020A0020A2F170
S315080095103003092B4FF000030BD803EB830302EB50
S3150800952043031AF8012BA2F130010929A3F13003EC
S31508009530F3D96C2A2CD002F0DF01542928D0782AD6
S315080095401DD8572A15D9583A202A18D8DFE802F024
S315080095505617171717171717171717646B171717AD
S31508009560171717171717171729171737174817171A
S315080095702900002A6AD0252A01D11046A0470AF1F7
S31508009580010B9AF800000028B6D105B0BDE8F08FA7
S315080095901AF8012BD3E79AF8022001200AF1030AE8
S315080095A0B5E7CDE901040022009256F825004246A7
S315080095B01021FFF733FF01350AF1010B98E756F83A
S315080095C025B01BF8010B01350028D8D0A0479BF819
S315080095D000000BF1010B0028F8D10AF1010BD0E7C6
S315080095E0CDE901040022009256F825003A460A21E0
S315080095F0FFF714FF01350AF1010B79E7CDE90104FC
S315080096000022009256F825004A461021FFF706FF69
S3150800961001350AF1010B6BE716F82500A04701355D
S315080096200AF1010B64E756F82520002ACDE9010462
S31508009630ABBF104650420022012200920A213A4648
S31508009640FFF7ECFE01350AF1010B9AE7D3460AF15A
S31508009650FF3A4DE7484B0208344B0208544B0208C0
S315080096600268012A10B503460C4602D0022A0BD01E
S3150800967010BD80680A4603F10C01FFF723FF234655
S315080096800A20BDE8104018470A46024803F10801B7
S31508009690F3E700BFFC4A020810B582B003460A4643
S315080096A00C460448019301A9FFF70CFF0A20A047BE
S315080096B002B010BD1C4B020830B50123036081605F
S315080096C00C789E4644B1BEF1050F05D8252C04D06A
S315080096D011F8014F002CF6D130BD4B7801F1020C80
S315080096E0A3F13001092905D81CF8013BA3F1300183
S315080096F00929F9D96C2B5BD003F0DF0154291DD059
S31508009700002B00F0B480583BD9B2202900F2B5806E
S31508009710202B00F2B280DFE803F040B0B0B0B0B062
S31508009720B0B0B0B0B04040B0B0B0B0B0B0B0B0B00B
S31508009730B0B030B0B030B040B0B04000614611F8BB
S31508009740014B002C00F09780583CE5B2202D7FD8BD
S31508009750202C7DD8DFE804F01C7C7C7C7C7C7C7C1F
S315080097607C7C7C227F7C7C7C7C7C7C7C7C7C7C7C82
S31508009770127C7C127C1C7C7C1C0061460EF1020368
S3150800978052F8044B40F823400EF1010E0C7899E785
S31508009790742B03D0542B64D08C46614652F8044B84
S315080097A00EF102030EF1010E40F823400C7889E70A
S315080097B0614611F8014B002C5DD0583CE3B2202BD2
S315080097C046D8202C44D801A353F824F09D970008C6
S315080097D051980008519800085198000851980008B7
S315080097E051980008519800085198000851980008A7
S315080097F051980008519800089D9700089D97000801
S315080098005198000851980008519800085198000886
S315080098105198000851980008519800085198000876
S315080098205198000851980008519800087D9700083B
S3150800983051980008519800087D970008519800082B
S315080098409D97000851980008519800089D970008B0
S315080098509CF8014036E76C2BA0D0742B9ED0542B75
S315080098609CD1073222F0070252F8084B98E71CF8F9
S31508009870014C0CF1FF3C614624E79CF80040614628
S3150800988020E700BF70B5054610460C4601F06AF899
S315080098900F4B104E024628461A6001F0E5F80346BB
S315080098A02046336001F0E0F80B4C012203461146CE
S315080098B03068236001F0FAF801220021206801F0DF
S315080098C0F5F80649064A00230B60136070BD00BF11
S315080098D0001000200810002010100020041000209E
S315080098E00C100020294B10B5186801F065F807EE32
S315080098F0900A9FED277A274BDFED276AF8EEE77A7D
S3150800990037EE677AD3ED007A77EE277AF4EEE67AC1
S31508009910F1EE10FA27DDC3ED006AF1EE047A1F4B6B
S315080099209FED1F6AD3ED006A83ED007AE7EE067AAB
S315080099301C4A77EE666A9FED1C6A1068E6EE867A20
S31508009940FDEEE77A17EE903A1CB204F13C0101F0FD
S31508009950BBF8164BC4F13C01186801F0B5F8BDE830
S31508009960104001F0FDBFDFED126AF4EEE67AF1EE83
S3150800997010FA04D5C3ED006AF9EE047ACFE7DFEDF5
S315080099800D6AC3ED007A67EEA67AC8E700100020D4
S3150800999000003442041000200000FA430C10002096
S315080099A0CDCCCC3E08100020CDCCCC3D10100020EC
S315080099B00000FAC30AD7233C4FF0FF30704700BFB8
S315080099C00338042804D84FF400534B60002070472E
S315080099D0024B09221A604FF0FF307047F08E0120C3
S315080099E0002070470338042805D9044B09221A6059
S315080099F04FF0FF3070470120704700BFF08E0120FE
S31508009A0008B5C31E042B05D8023800F05FF940EAF2
S31508009A10E07008BD024B09221A604FF0FF3008BDFE
S31508009A20F08E012008B5C31E042B05D8023800F0B5
S31508009A302BF940EAE07008BD024B09221A604FF084
S31508009A40FF3008BDF08E012010B50C4888B04FF4E1
S31508009A50004101F0F9F90A4A106008B108B010BDD2
S31508009A600849094B0291C02202246946CDE903231D
S31508009A70009400F0E9F900F031FEFEE7002000202E
S31508009A8000A00020684B0208A04B020810B582B05F
S31508009A900120019102F022F8054B0199186801F09E
S31508009AA0F9F90446012001F0B7FF204602B010BDBF
S31508009AB000A0002010B5012082B0CDE9002102F0F7
S31508009AC00DF8064BDDE90021186801F07FFA044617
S31508009AD0012001F0A1FF204602B010BD00A0002021
S31508009AE000B583B00120019101F0F8FF054B0199FB
S31508009AF0186801F007FA012003B05DF804EB01F0DD
S31508009B008BBF00BF00A000200EB410B58BB00DAA05
S31508009B10044652F8041B019202A8FFF7CDFD02A9DC
S31508009B20204600F091F90BB0BDE8104003B070472D
S31508009B3008B504490620FFF7E7FF04F04FFF02F0D7
S31508009B4008FFFEE7B44B020801F000BE012001F051
S31508009B5047BE00BF10B582B00C461A4604490094A9
S31508009B6003460020FFF7D0FF00F0B8FDFEE700BF70
S31508009B70D04B0208704700BF704700BF704700BF50
S31508009B80704700BF704700BF10B4074B074C002250
S31508009B903F201F21C3E90042C3E90222C3E904208A
S31508009BA05DF8044B9961704704A00020284C020810
S31508009BB0704700BF704700BF704700BF406800F09D
S31508009BC047BA00BF406800F08BBA00BF406800F093
S31508009BD067BB00BF406800F0C7BA00BF406800F026
S31508009BE00FBC00BF406800F021BC00BF0849094B04
S31508009BF010B4002201F11C0401F13800C3E90A423D
S31508009C00C3E90012C3E914025DF8044B704700BFAC
S31508009C10944C020820A4002000F098BC00F098BCE0
S31508009C2000F098BC084600F097BC00BF084600F054
S31508009C3095BC00BF704700BF00F0A4BC00F0B4BCE0
S31508009C4000F0B4BC084600F0B3BC00BF084600F0FC
S31508009C50BFBC00BF704700BF704700BF00F0DEBC46
S31508009C6000F0DEBC00F0DEBC084600F0DDBC00BF3C
S31508009C70084600F0DBBC00BF704700BF00F0F8B82C
S31508009C8000F05CB900F022B970B504460D461646D8
S31508009C9002F018F9A8B9002C10DD0B4B5A68A2423D
S31508009CA00CDB04F180441B68013C324653F824005F
S31508009CB0036829469B68BDE8704018476FF0110095
S31508009CC070BD6FF0180070BD204C020870B50446D0
S31508009CD00D46164602F0F6F8A8B9002C10DD0B4B17
S31508009CE05A68A2420CDB04F180441B68013C3246E8
S31508009CF053F8240003682946DB68BDE87040184716
S31508009D006FF0110070BD6FF0180070BD204C02088E
S31508009D1000F082BC2DE9F04F0D4689B0EFF31087AD
S31508009D2072B6264C0126636986401E4223D0244A11
S31508009D30E368D2F800908E46D16803F1010801EB7A
S31508009D40431A204BD3F800B0BEE80F00D446ACE85F
S31508009D500F009EE80F00C8458CE80F0028BF0023B7
S31508009D60CAF804B0C4F80C8028BFE3606368994554
S31508009D700BD901336360A3691E420ED1012F00D0AF
S31508009D8062B6002009B0BDE8F08FE368A3602369D6
S31508009D9001332361A3691E42F0D00A4B2C461E6884
S31508009DA00FCC6D460FC594E80F0085E80F000649ED
S31508009DB001966846FFF754FCE0E700BF04A00020C0
S31508009DC0284C0208002B0120119D0008F0B583B02D
S31508009DD0EFF3108272B6012A29D0194C656800265D
S31508009DE005B3184AA168D36803EB411E13680193AB
S31508009DF04F1C8446BEE80F00ACE80F009EE80F0033
S31508009E008CE80F00019B20699F4228BF002305F1BB
S31508009E10FF35C4E9015728BFA360002323611EB19B
S31508009E2003B0F0BD6FF0280062B603B0F0BD044C75
S31508009E3065681646002DD4D16FF02800F0E700BFFC
S31508009E4004A00020284C0208FFF764BF00B583B0C1
S31508009E50034601220DF1070103488DF8073000F08B
S31508009E6083F903B05DF804FB20A4002000F0D4BBFE
S31508009E7030B51248124D134C89B000F0E9F8124B70
S31508009E8002930122694605200092FFF7DDFF684626
S31508009E90FFF79CFF002809DB0CD121466846FFF72F
S31508009EA0DFFB6846FFF792FF0028F5DA286801F01D
S31508009EB0FFFCECE72146FFF7EFFBEEE720A40020C6
S31508009EC0384C02084D9E0008544D0208F0B5184D4E
S31508009ED08BB003E09DF8070000F09EFB0DF107012B
S31508009EE0284600F019FB04460028F3D102A8FFF71C
S31508009EF06DFF051E0F4E104F0CDB6CB19DB9314638
S31508009F0002A8FFF7ADFB02A8FFF760FF051E4FF09A
S31508009F100104F2DA0BB0F0BD214632463846FFF7A7
S31508009F20D1FA002DEBD031462846FFF7B5FBE6E718
S31508009F3020A400206D9E0008744D020810B50B4B36
S31508009F400B4988B0D3E90023029101240320072195
S31508009F50CDE903010094694600240520CDE90542B0
S31508009F600793FFF771FF08B010BD00BF744C0208D5
S31508009F70904D02080EB400B58AB00CAA02A806498C
S31508009F800192FFF799FB02A90020FFF75DFF0AB0CF
S31508009F905DF804EB03B07047EC4E02080A2970B569
S31508009FA00E46044602D1C368DB0626D401F0ECFE51
S31508009FB0002846DB2268236A9269D6542268236AF7
S31508009FC01569616A0133AB4201F101012362A5EB10
S31508009FD0010504BF00232362B5FA85F501296162EC
S31508009FE04FEA551503D110680368DB68984701F0F6
S31508009FF0DFFE002825DB284670BD0D21FFF7CEFFC2
S3150800A000051EF8DBD2D0636A23B123681868036893
S3150800A0109B68984723685B68186801F05FFD051E12
S3150800A020C4DA0A492A460020FFF7A4FF05F13503DA
S3150800A030DBB2042B05D8012202FA03F313F0150F3D
S3150800A040D9D10123A3606FF00405D4E7EC4E0208CA
S3150800A05070B5044601F036FF00283ED1236818681B
S3150800A06003681B68984701F0B5FE002830DB656871
S3150800A0703DB16FF0280501F0D9FE002828DB2846F7
S3150800A08070BD40F21153C4E90335C4E90555C4E966
S3150800A0900755656201F078FE002816DB2368186804
S3150800A0A0036801211B699847236818680368022119
S3150800A0B0DB6801269847C4E9016501F079FE0028A6
S3150800A0C0D9DAA6606FF00405D5E76FF00405D2E784
S3150800A0D00123A3606FF00405D1E76FF01805CEE7FA
S3150800A0E070B5044601F0EEFE002835D1054601F0AC
S3150800A0F071FE002833DB63683BB96FF0280601F070
S3150800A10095FE00282BDB304670BD01F03DFE236826
S3150800A1100646186803685B689847656001F048FE5C
S3150800A12023685B6800281868ACBFF60F012601F0A3
S3150800A1302FFD23689B680028186806DB01F028FDB8
S3150800A140002804DB002EDAD001E001F021FD01230E
S3150800A150A3606FF00406D2E76FF01806D3E7012371
S3150800A160A3606FF00406CEE72DE9F04105460F46D9
S3150800A170904601F0A7FE002840F089806B68002B06
S3150800A18000F08880AE68002E7ED12B685B68186860
S3150800A19001F0A4FC041E51DBB8F1000F63D017F8D8
S3150800A1A0011B2846FFF7FAFE041E32DB0136B045CE
S3150800A1B025D0002CF3D06B6A23B12B681868036886
S3150800A1C09B6898472B685B68186801F087FC041E33
S3150800A1D0E5DA002031492246FFF7CCFE04F13500C6
S3150800A1E0C0B2042805D8012303FA00F010F0150FB1
S3150800A1F001D10123AB6034462046BDE8F0816B6A85
S3150800A20063B12B68186803689B689847002C33D09D
S3150800A2100024002EEFD12046BDE8F081002CEAD1BB
S3150800A2202B685B68186801F0F7FB0028E3DA01235E
S3150800A230AB606FF00404002EEDD0DCE71749224628
S3150800A2403046FFF797FE04F13503DBB2042B05D839
S3150800A250012202FA03F313F0150FCDD10123AB60E7
S3150800A2606FF00404C8E76E6A2B68002ED9D0186808
S3150800A27003689B68464698472B685B68186801F030
S3150800A280CBFB0028C4DAD2E76FF00404B4E76FF01A
S3150800A2901804B1E76FF02804AEE700BFEC4E0208D9
S3150800A2A02DE9F04F83B004468846914601F00AFE30
S3150800A2B0002840F099806368002B00F09B80A56811
S3150800A2C0002D40F09480B9F1000F31D02F460126B9
S3150800A2D0AA4636B123689B68186801F0FFFB051E7D
S3150800A2E04CDB01F051FD002858DB21682269CE6855
S3150800A2F0A5694869531CB34214BF19465146013D26
S3150800A30010F802B0A561216101F052FDB5FA85F693
S3150800A31000284FEA561641DB08F801BBE368DB075D
S3150800A32007F1010708D4B945D3D1002D40D13D46E0
S3150800A330284603B0BDE8F08F23685B68186801F00B
S3150800A340CDFB021E3DDB59462046FFF727FE0028B7
S3150800A350EDDB08D0636A002BE5D02368186803682C
S3150800A3609B689847DFE723685B68186801F054FB29
S3150800A3700028EFDA0123A3603D46D9E71F492A469C
S3150800A3800020FFF7F7FD05F13503DBB2042B05D8EE
S3150800A390012202FA03F313F0150F03D10123A36078
S3150800A3A06FF00405002FC2D1284603B0BDE8F08F30
S3150800A3B023689B68186801F02FFB0028DADB3D4606
S3150800A3C0B6E70E4901920020FFF7D4FD019A02F183
S3150800A3D03503DBB2042BCDD8012202FA03F313F0BE
S3150800A3E0150FC7D03D46A3E76FF01805A0E76FF035
S3150800A3F004059DE76FF028059AE700BFEC4E0208B2
S3150800A40038B504460D4601F05DFD28B9636833B1D9
S3150800A410A06838B9E56038BD6FF0180038BD6FF030
S3150800A420280038BD6FF0040038BD00BF38B50446B3
S3150800A4300D4601F047FD40B963684BB1A06850B9B5
S3150800A440A269636AC5E9002338BD6FF0180038BDF4
S3150800A4506FF0280038BD6FF0040038BD406A7047B9
S3150800A46038B5456A0446B5B10268C3699269D35CD2
S3150800A4700B700168C3690A6901339342C36104BF5B
S3150800A4800023C361436A9A420DD0013B63620125EA
S3150800A4900BB1284638BD23681868036801211B6973
S3150800A4A09847284638BD4B68186801F0B5FA002861
S3150800A4B001DB636AE9E70123A3606FF00405E8E7B7
S3150800A4C0036810B5DA680446806990421CD05A6958
S3150800A4D06369D15422686369D16801338B42636129
S3150800A4E004BF00236361A3691BB10133A361012083
S3150800A4F010BD9368186801F08FFA002806DBA36977
S3150800A5000133A3610120F3E7002010BD0123A360F6
S3150800A5106FF0040010BD00BF43680BB1436A0BB966
S3150800A520184670470268C3699269D35C0B70026863
S3150800A530C369126901339342426AC36104BF0023A7
S3150800A540C361013A0123426218467047704700BF4B
S3150800A550704700BF704700BF704700BF704700BF15
S3150800A5600148FFF77BBF00BF20A400200146014831
S3150800A570FFF776BF20A4002001460148FFF7A0BFD9
S3150800A58020A4002010B500F067F9064C01E001F0A0
S3150800A5908FF9022003F06AF903462046002BF6D00D
S3150800A5A010BD00BF40420F00704700BF06F0D0BF85
S3150800A5B0012806D0022803D1034B01221A607047EE
S3150800A5C07047024B18607047B0A80020B4A8002056
S3150800A5D0012806D0022803D1044B00221A607047CE
S3150800A5E07047034B00221A60704700BFB0A80020CE
S3150800A5F0B4A800200148FFF731BF00BF48A40020D7
S3150800A60001460148FFF72CBF48A40020014601482F
S3150800A610FFF756BF48A40020704700BF704700BF29
S3150800A620704700BF704700BF704700BF704700BF44
S3150800A63008B5FFF79FFAFFF79FFAFFF79FFAFFF7AC
S3150800A6409FFAFFF79FFAFFF79FFAFFF7B1FAFFF7AE
S3150800A650B1FAFFF7B1FAFFF7C9FAFFF7EBFAFFF716
S3150800A660F9FAFFF7F9FABDE80840FFF705BB00BF9E
S3150800A67001F006B808B500F0E5FE01F0B5F901F0FD
S3150800A680CFFA01F033FCBDE8084001F043BC00BF37
S3150800A69008B500F057F8024A024B12681A6008BD5E
S3150800A6A0445202080000002008B500F08BFD0A4B52
S3150800A6B01A6842F400721A601A6842F480621A60D4
S3150800A6C01A6842F480721A6000F076F8BDE808400D
S3150800A6D0002000F041B800BF003C024008B5EFF387
S3150800A6E00883EFF309836B4600F0E4FDFEE700BF3D
S3150800A6F008B500F0DFFDFEE700B5002083B000F0E6
S3150800A7002BF800240194019BB3F5801F06DA019B00
S3150800A71001330193019BB3F5801FF8DB002000F09D
S3150800A72043F8EFE700207047034A044B1068A3FB81
S3150800A73000308009704700BFAC2B0120D34D621052
S3150800A740704700BF034AD2F8883043F47003C2F852
S3150800A7508830704700ED00E070B5044686B050B901
S3150800A7600F4B00901A6B42F001021A631B6B03F041
S3150800A77001030093009B0B4E012356F82400202565
S3150800A780022201A9CDE90332CDE9015302F00EF9FF
S3150800A79056F824000022294602F0F0F906B070BDEA
S3150800A7A00038024004000020024B202153F8200004
S3150800A7B002F0E9B90400002030B595B00023244A18
S3150800A7C00093116C234841F080511164126C02F019
S3150800A7D080520092009A0193026822F4404242F4A1
S3150800A7E000420260026802F44042022101240192FA
S3150800A7F04FF480004FF48032CDE90742CDE90933A2
S3150800A800CDE90C31082460220E90042307A8CDE96F
S3150800A8100F42CDE91113019D139102F0C5F980B9D4
S3150800A82002200F240023CDE902404FF4805205216F
S3150800A83002A8CDE90432069302F08CFB20B915B0C4
S3150800A84030BDFFF759FFEBE7FFF756FF15B030BDF0
S3150800A850003802400070004008B501F095FA054A34
S3150800A860054B106801221A7002F076FD01F0A0FA75
S3150800A870002008BDB40000206C2A012010B503880A
S3150800A880B3F5806F18BFC3F38702438882B008BF49
S3150800A890FF22B3F5806F8DF8042018BFC3F3870233
S3150800A8A0838808BFFF220C46B3F5806F14BFC3F335
S3150800A8B08703FF2301A88DF805208DF8063004F0DC
S3150800A8C013F9E078032820D9A378032B21D9B4F803
S3150800A8D000C0BCF1270F25D9214AC3F1C80103FBE3
S3150800A8E001F182FB0123CA17C2EB6312D2B2C0F18F
S3150800A8F0C8031B49A27000FB03F381FB0301DB17A6
S3150800A900C3EB6113E37002B010BD00220021218061
S3150800A910EDE7C3F1C80203FB02F26423B2FBF3F2CC
S3150800A920D2B2F3E7ACF114021421120292FBF1F24F
S3150800A930D2B24FF0640E02FB02F20EFB02F10914CA
S3150800A940C1F1C801C3F1C8020CFB01F103FB02F215
S3150800A950B1FBFEF192FBFEF289B2D2B2D7E700BF95
S3150800A9601F85EB5170B53D2188B001F0FBFB04AAA9
S3150800A9700521064601F05CFC60B9DDE90402069B88
S3150800A980ADF8080001A902A8ADF80A20ADF80C3008
S3150800A990FFF774FF064C074D062344F8043B0FCD1A
S3150800A9A00FC495E8030084E80300304608B070BD7C
S3150800A9B0702A01200800002000B585B06A460521E6
S3150800A9C001F036FC98B9DDE90023029913440B44DB
S3150800A9D06422A0F1553002FB03F300F1004080FB2E
S3150800A9E00312D817C0EB622005B05DF804FB0020FF
S3150800A9F005B05DF804FB00BF10B53F218AB001F031
S3150800AA00B1FB02AA0621044601F012FC0499089A31
S3150800AA10094B0398DA609142C3E9001007DA01AAE4
S3150800AA200421204601F004FC20460AB010BD00248B
S3150800AA3020460AB010BD00BFEC2A012000B583B03D
S3150800AA4001AA042101F0F4FB50B90198054B1B68D3
S3150800AA5004338342ACBF0020012003B05DF804FB39
S3150800AA604042F3E7EC2A012070B582B000240121A8
S3150800AA700646019401F0AEFCC82520B111E000F0AD
S3150800AA8017FF013D0CD001A9304605F05FF80446D2
S3150800AA90082C4CF25030F2D014B9019802B070BDAF
S3150800AAA0204604F053FB002002B070BD10B51346D3
S3150800AAB04FF47A7205F076F8044608B9204610BDB8
S3150800AAC004F044FB204610BD10B5006801F036FAC4
S3150800AAD0044608B9204610BD04F038FB204610BDD0
S3150800AAE038B5084C084DAC4204D254F8043B984794
S3150800AAF0AC42FAD3054B01221A70BDE8384000F083
S3150800AB002FBF00BF2487020824870208FC2A0120D9
S3150800AB10024A1378002BFCD0704700BFFC2A01209C
S3150800AB204B6823F003037F2B10B526D89B10002211
S3150800AB3003EB421C00EB8C0CDCF8744074B3C1E9DF
S3150800AB400240E16001F10B0424F0030401F1080E50
S3150800AB50A64502D0FFF7C2FDFEE7CCF87410012126
S3150800AB6001FA02F401FA03F3016900EB82022143B8
S3150800AB70016151690B43536110BDB3FA83F2C2F107
S3150800AB801A04E34083F02003C2F1190203EB421CC6
S3150800AB9000EB8C0CDCF87440002CD0D1FFF79EFD3E
S3150800ABA0FEE700BF70B5D1E90245FDB10CB3E5601B
S3150800ABB0AC6003EB421500EB85056E6F8E4200D044
S3150800ABC070BDA0426C67FBD100EB82050124696960
S3150800ABD004FA03F321EA03036B61002BF0D103693E
S3150800ABE004FA02F223EA0202026170BDFFF776FD5B
S3150800ABF0FEE7FFF773FDFEE738B551B37F291AD88C
S3150800AC008B10002200EB820465694FF0FF3404FACA
S3150800AC1003F32B4020D10369013294401C4019D01C
S3150800AC2094FAA4F2B2FA82F200EB82035B699BB94A
S3150800AC30FFF754FDFEE7B1FA81F3C3F11A020123C7
S3150800AC409340013B0B44B3FA83F4012CC4F1190277
S3150800AC5019D10024204638BD002B93FAA3F3B3FA82
S3150800AC6083F308BF4FF0FF3303EB421400EB840471
S3150800AC70646F002CEED0656825F00305A94208D953
S3150800AC80FFF72CFDFEE7C4F11A04E34083F0200326
S3150800AC90B8E72146FFF786FFDCE700BF421802F156
S3150800ACA00F0302F10C0C23F003039C4510B502D0E8
S3150800ACB0FFF714FDFEE7436823F00303A3EB010E39
S3150800ACC001EB0E049C42AEF1040E02D0FFF706FD1E
S3150800ACD0FEE7936803F0030343EA0E03936023F049
S3150800ACE003030B2B02F1040216D9436803F003038E
S3150800ACF019434160536833F0030310D06344104688
S3150800AD0043F8042C53F8041941F0020159605368BA
S3150800AD1043F00103536010BDFFF7E0FCFEE7FFF7C1
S3150800AD20DDFCFEE738B54B68DC071CD50C4623F07E
S3150800AD30030302F110018B4200D238BD05461146C5
S3150800AD402046FFF7ABFF636833F003030ED0426873
S3150800AD50234442F002025C60014642602846BDE890
S3150800AD603840FFF7DDBEFFF7B9FCFEE7FFF7B6FC94
S3150800AD70FEE700BF4B6833F0030370B526D001F138
S3150800AD80080633441C1F0D4623D06368DA071BD513
S3150800AD9023F003037F2B1FD89B1000222146FFF7C1
S3150800ADA001FF6A6832F0030302D1FFF797FCFEE75A
S3150800ADB06368043223F0030313446B6033F0030320
S3150800ADC014D01E4446F8045C284670BDFFF786FC7E
S3150800ADD0FEE7FFF783FCFEE7B3FA83F2C2F11A0136
S3150800ADE0CB4083F02003C2F11902D7E7FFF776FCC0
S3150800ADF0FEE700BF38B511F0030521D1083A22F065
S3150800AE000303104A0C46A3F10C01914213D82546B8
S3150800AE1043F0010355F804296B602946FFF780FEC5
S3150800AE206B6833F0030308D0221D1344022243E95A
S3150800AE300152204638BD284638BDFFF74FFCFEE7CD
S3150800AE40002038BDF4FFFF3F70B50E4610F0030131
S3150800AE5004461CD1C0E9020001616022143019F0D1
S3150800AE6069F804F1700304F5476003F1800243F8BA
S3150800AE70044F9342FBD19842F7D12546A6F6744271
S3150800AE8004F674412846FFF7B5FF284670BD00252D
S3150800AE90F4E700BF30B5044683B039B9002120462F
S3150800AEA0FFF7AAFE40B3FFF719FCFEE7CA1C22F01B
S3150800AEB00302B2F1804FF1D20C2A38BF0C22114698
S3150800AEC00192FFF799FE019A0546A8B10146204668
S3150800AED0FFF728FF6B6833F0030310D005F108006D
S3150800AEE0034453F8042922F002025A606B6823F0DF
S3150800AEF001036B6003B030BD002003B030BDFFF71F
S3150800AF00EDFBFEE7A9B351F8043C13F0010270B556
S3150800AF100C462BD133F0030342D00546081FA1F196
S3150800AF200806C6500344586840F00200586051F8B5
S3150800AF30043C43F00103980741F8043C26D551F830
S3150800AF40086C002E3CD07368D9072CD523F0030370
S3150800AF507F2B2BD89B1031462846FFF723FE7268B5
S3150800AF6032F0030306D1FFF7B9FBFEE7FFF7B6FB9E
S3150800AF70FEE7704754F8043C23F0030313440433F4
S3150800AF80736033F003031ED033445E6031462846AF
S3150800AF90FFF7F0FE01462846BDE87040FFF7C0BD42
S3150800AFA0FFF79CFBFEE7FFF799FBFEE7B3FA83F290
S3150800AFB0C2F11A00C34083F02003C2F11902CAE79E
S3150800AFC0FFF78CFBFEE7FFF789FBFEE7002942D077
S3150800AFD02DE9F04383B0002A62D051F8043C33F0DF
S3150800AFE003070C462ED0D11C21F00301B1F1804F86
S3150800AFF00546A4F1080828D20C2938BF0C21DB071E
S3150800B0000E4625D48F422AD2E359D907A4F104095A
S3150800B01005D523F00303391D0B44B34228D2114644
S3150800B02028460192FFF736FF0646E8B1019ABA426A
S3150800B030214628BF3A46FEF74BF821462846FFF731
S3150800B04061FF11E0FFF74AFBFEE713F0010305D0A5
S3150800B050FFF744FBFEE71146FFF71CBF1E4606F145
S3150800B06010039F4228D22646304603B0BDE8F08337
S3150800B0704146FFF77FFE54F8043C33F0030318D02B
S3150800B0809944D9F8043023F00203C9F8043054F877
S3150800B090047C27F0010344F8043C27F00307DEE7A5
S3150800B0A00192FFF72FFF019A1646304603B0BDE816
S3150800B0B0F083FFF713FBFEE731464046FFF7EEFD48
S3150800B0C0436823F00203014643602846FFF752FE11
S3150800B0D0014628462646FFF723FDC5E74FF0E0233D
S3150800B0E007491A69074822F001021A6159619961EC
S3150800B0F01A69002142F005021A610160704700BF13
S3150800B100FF760100002B01204FF0E02300221A6190
S3150800B110704700BF034A136803F57A73136000F09B
S3150800B1203BBA00BF002B0120031F0B2B11D80E4B77
S3150800B130820853F822301A6800F00300C0004FF066
S3150800B140FF0C0CFA00FC22EA0C028140114319603C
S3150800B1507047A0F11003652BFAD823F0030303F117
S3150800B160604303F56443E6E78C5302080438032872
S3150800B1700BD8DFE800F01D140B024FF0E022D2F8DE
S3150800B180243D43F40023C2F8243D70474FF0E022E3
S3150800B190D2F8243D43F48023C2F8243D70474FF08B
S3150800B1A0E022D2F8243D43F40033C2F8243D704728
S3150800B1B04FF0E022D2F8243D43F48033C2F8243D10
S3150800B1C0704700BF10B4102383F311883348344AFC
S3150800B1D00023012103601160BFF34F8F4FF0E02277
S3150800B1E03049C2F8081DD2F8181D2F4821F0FF0172
S3150800B1F0C2F8181DD2F8181D006821F47F41C2F85C
S3150800B200181DD2F8181D21F47F01C2F8181DD2F8AE
S3150800B2101C1D21F07F41C2F81C1DD2F8201D21F00B
S3150800B220FF01C2F8201DD2F8201D21F47F0141F448
S3150800B2307001C2F8201DD2F8241D41F48031C2F8ED
S3150800B240241DD2F8241D41F40031C2F8241DD2F879
S3150800B250241D41F48021C2F8241DD2F8141D21F4BE
S3150800B2600071C2F8141DD2F8881D4FF0404441F40D
S3150800B2707001C2F8881DC2F8344F60B100EB800037
S3150800B2800A4A0B4C4000116944F823100A338342DA
S3150800B29002F11802F7D15DF8044B7047082B01201C
S3150800B2A0042B01200080000848530208B052020807
S3150800B2B07829012082B0044B0193019B13B1019BAD
S3150800B2C002B0184702B0704741A70008A0F10F0C5A
S3150800B2D0BCF1660F70B520D80C4602F110010F2993
S3150800B2E018D80F2822D05342DBB2A0F11001C3F1BF
S3150800B2F010034FEA511C01F01F0201261901154BD4
S3150800B300964043F82C604FEA8C05FFF70DFFE307DC
S3150800B31006D470BDFFF7E2F9FEE7FFF7DFF9FEE7AF
S3150800B32005F1604505F561452E6070BD4FF0E025D5
S3150800B33053422A69DBB222F00202C3F110032A61E2
S3150800B3401901FFF7F1FEE207E3D52B6943F0020383
S3150800B3502B6170BD80E100E010B5EFF31184EFF3C7
S3150800B3600582054B53F822309847044B00221A6091
S3150800B37084F3118810BD00BF404F0208042B01203A
S3150800B380EFF30583C3F30803032B0FD0052B07D16F
S3150800B390084B9A6A9A6A120406D59B6BFFF79EB900
S3150800B3A0062B04BF034B9B6AFFF798B9014BDB6A70
S3150800B3B0FFF794B900ED00E0EFF30583FFF78EB9C8
S3150800B3C0F8B5FFF735F9FFF76FF900F0B9F8FFF7A9
S3150800B3D051F90C4B1D6855B10B4E0024371F57F811
S3150800B3E0343056F8340001349847AC42F7D1074A4E
S3150800B3F0074B12681A6000F0CDF8064B01221A6056
S3150800B400FCF79EFF545302081C510208002B01202A
S3150800B410AC2B01200C2B0120F8B5084B1D6855B143
S3150800B420074E0024371F57F8343056F834000134D5
S3150800B4309847AC42F7D1FFF75BF900BF58530208AB
S3150800B440A45202082DE9F047234D244C24482549E7
S3150800B450254B00222A602260012202600A6003F15D
S3150800B4608002C3E9003308339342FAD11F4A204BBE
S3150800B47015684FF0000AA3F800A05DB31D4CDFF86D
S3150800B4807C801D4F564601E0AA4523D054F8043B5C
S3150800B490013B03EB830908EBC90903EB430399F85E
S3150800B4A00F2007EBC3036FF30002C9F808304846BC
S3150800B4B089F80F2000F024F8D9F80830C9F8146084
S3150800B4C01B68DB070AF1010ADED5484600F026F8B4
S3150800B4D0AA45DBD1BDE8F087182B01201C2B0120DB
S3150800B4E0142B0120102B0120242B0120485302087D
S3150800B4F0202B01205C530208B0520208582901206B
S3150800B500C37B82680021017323F01E03127B4273FA
S3150800B51043F008038273C373704700BF8268526999
S3150800B520203A10B40021054C82610122C4614162AF
S3150800B5305DF8044B027300F0BFBF00BFDD8300084F
S3150800B5409FED0B7B0C4B0D490D4A0E4810B483ED4D
S3150800B550007B0D4C00230B600C4923600C4C0460E7
S3150800B5600B605DF8044B1260704700BFAFF30080B4
S3150800B5700000000000000000B82B0120A82B0120C5
S3150800B580482A0120A42B0120B02B0120B42B01202E
S3150800B590003E14F4704700BF2DE9F84FEFF314830B
S3150800B5A09B0702D5FFF79AF8FEE7DFF8C4A0DAF89A
S3150800B5B00030002B55D1EFF31182102383F3128844
S3150800B5C0DFF8B0800123C8F80020CAF80030BFF3BE
S3150800B5D04F8FDFF8A490DFF8A4B0234E234DC9F8A7
S3150800B5E000300BF1040401F0F1F8DBF80010A14279
S3150800B5F028D34FF0000C08E0D7E902309847DBF86B
S3150800B6000010A1424FF0010CEDD3DBF8047030684E
S3150800B6103A682B68121A1B1A9A42A1F104000ED82E
S3150800B620A042CBF80000E7D30B682046196801F062
S3150800B63095F8DBF800305B6803605860DCE7BCF11E
S3150800B640000FD0D1FFF7A6FF0023C9F80030CAF8CB
S3150800B6500030BFF34F8FD8F8003083F31188BDE868
S3150800B660F88FFFF73BF8FEE7A42B0120A82B012053
S3150800B670042B0120082B0120B02B0120482A012089
S3150800B68070B52C4C2568002D50D1002826D042DDF7
S3150800B690294B1B6883423EDB284B013800EB8000B0
S3150800B6A003EBC000EFF31183102282F31288244EB5
S3150800B6B0336001232360BFF34F8F037BE3B18368B5
S3150800B6C01B68990711D56FF02A0500232360BFF37D
S3150800B6D04F8F336883F31188284670BDEFF31483C0
S3150800B6E09A0718D5174B1868DCE7C37BDA07EAD43C
S3150800B6F043F00103C373E8E7FFF710FF114A124B43
S3150800B700106819688842E0D0EFF314839B0706D5C2
S3150800B710FCF730FED9E76FF01105284670BD4FF0EB
S3150800B720E0234FF08052C3F8042DCEE76FF01805DA
S3150800B730D2E700BF042B01204853020858290120EC
S3150800B740082B0120182B01201C2B012070B582B074
S3150800B750EFF31483980719D51C4D2C68B4B91C4B04
S3150800B7601B689BB1102383F311881A4A01231460BE
S3150800B7702B60BFF34F8F184E3068C37B59070AD426
S3150800B7809A0713D564F34103C37306E06FF01804F0
S3150800B790204602B070BD6FF0340400232B60BFF35F
S3150800B7A04F8F83F31188204602B070BD04230373BC
S3150800B7B000F0AAFE3068019401AB0361074B3246DC
S3150800B7C01968FCF7D7FD019CE7E700BF042B0120A9
S3150800B7D0102B0120082B0120182B01201C2B0120DF
S3150800B7E070B52D4C2568002D53D1002822D033DDA5
S3150800B7F02A4B1B6883422FDB294B013800EB80005C
S3150800B80003EBC000EFF31183102282F31288254E52
S3150800B810336001232360BFF34F8F037B8BB96FF02F
S3150800B820280500232360BFF34F8F336883F31188FD
S3150800B830284670BDEFF314839A070DD51A4B18687E
S3150800B840E0E723F00203042B0DD0C37B9A0707D445
S3150800B85043F00203C373E4E76FF01105284670BD91
S3150800B8606FF02A05DDE700F0C1FE0F4A0F4B10689E
S3150800B87019688842D5D0EFF314839B0702D5FCF7E5
S3150800B88079FDCEE74FF0E0234FF08052C3F8042D40
S3150800B890C7E76FF01805CBE7042B012048530208C9
S3150800B8A058290120082B0120182B01201C2B0120C8
S3150800B8B0EFF314839A0725D570B5224D2B6886B009
S3150800B8C0002B39D1204A1268002A35D01F4A9042E7
S3150800B8D0044634D8102282F311881D4901220B60D0
S3150800B8E02A60BFF34F8F1B4E3068C37B5B070CD5AE
S3150800B8F06FF0340000232B60BFF34F8F83F311885A
S3150800B90006B070BD6FF0180070470823037300F087
S3150800B910FBFD3368059301AA1A6102A80E4B019034
S3150800B9202146049300F08CFF0C4B306819683246A8
S3150800B930FCF720FD0198DDE76FF01800E0E76FF0EF
S3150800B9401000DDE7042B0120102B012000286BEEE8
S3150800B950082B0120182B012029C600081C2B0120C2
S3150800B96008B5EFF314839B0719D5194B1A68CAB1A2
S3150800B970184B1A686AB9184A116809B90121116081
S3150800B98016490A68F2B901221A6000F071FD144BD3
S3150800B9901860144B186800F0F9FDFCF7E2FC6FF02C
S3150800B9A0180008BDEFF31180102282F312880B49A4
S3150800B9B0012208601A60BFF34F8F064B1A68002AE7
S3150800B9C0E7D1D8E71209102A1CBF00220A60DAE775
S3150800B9D0042B0120102B0120142B0120082B0120F9
S3150800B9E01C2B0120182B0120084B186868B1084B3E
S3150800B9F0084A03EB00105168D960C3E901321B609D
S3150800BA001033834202F10C02F5D170474453020801
S3150800BA10E8B800204C520208F8B52A4C2568002DD3
S3150800BA204DD1002848DD284B1B68834244DB01388A
S3150800BA30EFF31183102282F31288244E3360012318
S3150800BA402360BFF34F8F224A010102EB0013885887
S3150800BA50834219D007688F507B6000F0C7FD1D4AE6
S3150800BA601D4B10681968884205D0EFF314839B07AD
S3150800BA7010D5FCF77FFC00232360BFF34F8F336894
S3150800BA8083F311882846F8BD5A68934209D0FEF711
S3150800BA9025FEFEE74FF0E0234FF08052C3F8042D51
S3150800BAA0E9E7D3E9021289688A4202D20132DA60EA
S3150800BAB0E1E76FF02A05DEE76FF01105E2E76FF0C0
S3150800BAC01805DFE7042B012044530208082B012040
S3150800BAD0E8B80020182B01201C2B0120EFF3148353
S3150800BAE09A0726D530B5234C226883B0002A3BD165
S3150800BAF0214B1B68002B37D0002838DD1F4B1B68ED
S3150800BB00834234DB102383F311881D4901230A601D
S3150800BB102360BFF34F8F1B4D2B68DB7B5B070CD471
S3150800BB201949431E01EB0310C3688BB1013BC3607F
S3150800BB3005E06FF01802104670476FF034020023D4
S3150800BB402360BFF34F8F83F31188104603B030BDCF
S3150800BB506A46402100F0A6FD0C4B286819682A465B
S3150800BB60FCF708FC009AEAE76FF01802EDE76FF0B9
S3150800BB701102EAE7042B0120102B01204453020886
S3150800BB80082B0120182B0120E8B800201C2B0120C7
S3150800BB90F8B5EFF314839B072ED51B4E35685DBBAE
S3150800BBA000282DDD194B1B68834229DB0138EFF38A
S3150800BBB01183102282F31288154F3B6001233360EC
S3150800BBC0BFF34F8F134C04EB0014204600F096FD8C
S3150800BBD0A368114A5B68E360104B106819688842CD
S3150800BBE001D0FCF7C7FB00233360BFF34F8F3B68D8
S3150800BBF083F311882846F8BD6FF018052846F8BD66
S3150800BC006FF01105FAE700BF042B01204453020820
S3150800BC10082B0120E8B80020182B01201C2B012036
S3150800BC202DE9F843154B1F682FB3154D154CDFF852
S3150800BC30589000264FF0010807E00136BE426360BF
S3150800BC4005F1140504F1180415D02B68256013F0C6
S3150800BC500203C4E90494F0D020462B69C4F8048092
S3150800BC60013640F8083F00F0DDFDBE4205F1140537
S3150800BC7004F11804E9D1BDE8F88300BF405302086F
S3150800BC80184F0208B8A8002039BD00082DE9F0436E
S3150800BC9083B0EFF314839B0736D5234E35689DBBD7
S3150800BCA000283EDD214B1B6883423ADB441EEFF336
S3150800BCB01183102282F31288DFF874800121C8F8F4
S3150800BCC000303160BFF34F8FDFF8689004EB440013
S3150800BCD009EBC00204FA01F75368C000D3B908306B
S3150800BCE0516048443C4459F83430196900F0A8FDBD
S3150800BCF000233360BFF34F8FD8F8003083F31188E1
S3150800BD00284603B0BDE8F0836FF01805284603B04F
S3150800BD10BDE8F08308304844019000F0B5FD01986D
S3150800BD20E0E76FF01105F1E7042B01204053020804
S3150800BD30082B0120B8A8002002688368D26813443B
S3150800BD4070B5044640F8083F00F06CFD0C4D002322
S3150800BD502B60BFF34F8F0B4E336883F3118823682C
S3150800BD60D3E9010290472B684BB9EFF311821023F0
S3150800BD7083F31288012332602B60BFF34F8F70BDA7
S3150800BD80042B0120082B0120074B1A6852B9EFF340
S3150800BD901180102282F312880449012208601A6071
S3150800BDA0BFF34F8F00207047042B0120082B01207A
S3150800BDB0064B1A683AB100221A60BFF34F8F044B3C
S3150800BDC01B6883F311880020704700BF042B0120ED
S3150800BDD0082B0120EFF314839B071BD50F4B18681C
S3150800BDE0C0B910B4EFF31184102282F312880C4AFA
S3150800BDF0012114601960BFF34F8F0A4C0A4920606D
S3150800BE0008601860BFF34F8F136883F311885DF8D5
S3150800BE10044B70476FF01800704700BF042B0120D1
S3150800BE20082B0120142B0120102B012070B5EFF3ED
S3150800BE3014839B071DD51D4D2C68D4B9EFF31182C9
S3150800BE40102383F312881A4E012332602B60BFF346
S3150800BE504F8F184A136033687BB11B09102B0CD01F
S3150800BE6000232B60BFF34F8F336883F31188204676
S3150800BE7070BD6FF01804204670BD0F4B01221A6082
S3150800BE8000F0F6FA0D4B0E4A186001461068C37B9F
S3150800BE9003F00C030C2B04D08842E1D0FCF76AFAB5
S3150800BEA0DEE700F073FBFCF75CFA00BF042B012009
S3150800BEB0082B0120142B0120102B01201C2B0120FC
S3150800BEC0182B0120EFF314839B0702D5054B1B683B
S3150800BED00BB101207047044B1868B0FA80F040098E
S3150800BEE0704700BF042B0120102B0120074B70B5AB
S3150800BEF01E6856B1064C0025D4E90112013554F8DE
S3150800BF000C0BFFF7E3F9B542F6D170BD4C530208A6
S3150800BF1030510208074B70B51D6855B1064E05EB42
S3150800BF204505002456F824000334FFF71FF9AC42F0
S3150800BF30F8D170BD505302087C4A020810B5044671
S3150800BF4082B0084602F0BEFD002102460190204656
S3150800BF5003F0E6F8019A08B902B010BD00212046A0
S3150800BF6002B0BDE8104003F0DBB800BF10B5054CC1
S3150800BF70206803F0E5FA00B910BD2068BDE8104056
S3150800BF8003F0DEBAD800002010B50A490A4C20385A
S3150800BF9082B000EB800001442068019103F0ECFABE
S3150800BFA0019908B902B010BD206802B0BDE810407A
S3150800BFB003F0E2BA9C530208D800002000000000F3
S3150800BFC0214A1178814236D008B51070FCF78CFBEF
S3150800BFD01E4B0022FCF71CFD9FED170B41EC110BC5
S3150800BFE016F00AFE1A4B51EC100B0022FCF72EFA3B
S3150800BFF0184B0022FCF70CFD11A3D3E90023FCF72C
S3150800C000DDFBFCF78BFE82B2134BC2F5FF417F3195
S3150800C01089B203F1800023F8021F8342FBD10F4B3C
S3150800C02002F5FF427F3292B203F1800123F8022F14
S3150800C0308B42FBD108BD7047000000000000244079
S3150800C04000000000C0FFDF40C02C0120000059405E
S3150800C0500000F03F00002240BE2B01203E2C0120AC
S3150800C06045F6C052904228BF10464028024638BFBF
S3150800C070402210B509480C469201802102F020F8AA
S3150800C080002C09DB4FF47A7004FB00F0FFF710FC74
S3150800C090BDE8104002F038B810BD00BFC02B012023
S3150800C0A070B504460E4601E0FFF702FC314620460D
S3150800C0B003F0EDF9082805464FF47A70F4D02DB34D
S3150800C0C0237A582B40D06420FFF77AFF244D207A34
S3150800C0D0FFF75AFF4FF4FA714FF47070FFF7C0FF7D
S3150800C0E0FFF744FF2846FFF7E3FB207AFFF74CFFEC
S3150800C0F04FF4FA7140F20230FFF7B2FFFFF736FF4E
S3150800C1002846FFF7D5FBE2E7FFF7D2FB204603F008
S3150800C110D0F9082803464FF47A70F5D063B1204663
S3150800C12003F0CDF901E0FFF7C3FB204603F0C1F9A0
S3150800C13008284FF47A70F6D023681B783D2B0BD06D
S3150800C1403E2B03D0252B07D0284670BD4CF2503025
S3150800C150FFF7AEFB284670BD47F23050F8E700BF40
S3150800C160F049020030B5044683B00D4601E0FFF7FA
S3150800C1709FFB01A9204601F0D9FE082803464CF288
S3150800C1805030F4D013B3582C4AD06420FFF718FF68
S3150800C190264D2046FFF7F8FE4FF4FA714FF47070FB
S3150800C1A0FFF75EFFFFF7E2FE2846FFF781FB204612
S3150800C1B0FFF7EAFE4FF4FA7140F20230FFF750FF3C
S3150800C1C0FFF7D4FE2846FFF773FBE2E701980268FB
S3150800C1D01278AA4225D05C2D23D0582C23D064206F
S3150800C1E0FFF7EEFE114D2046FFF7CEFE4FF4FA712B
S3150800C1F04FF47070FFF734FFFFF7B8FE2846FFF7D5
S3150800C20057FB2046FFF7C0FE4FF4FA7140F20230A2
S3150800C210FFF726FFFFF7AAFE2846FFF749FBE2E7E6
S3150800C220002003B030BD1846FBE700BFF049020006
S3150800C230F0B590F809C08C4583B00446164627D059
S3150800C2400D46FFF72DFF18B3237A582B77D06420B5
S3150800C250FFF7B6FE5E4D207AFFF796FE4FF4FA71A9
S3150800C2604FF47070FFF7FCFEFFF780FE2846FFF7D5
S3150800C2701FFB207AFFF788FE4FF4FA7140F202306E
S3150800C280FFF7EEFEFFF772FE2846FFF711FBE2E71F
S3150800C29001A9204603F0F2F820B3237A582B00F0C0
S3150800C2A086806420FFF78CFE494D207AFFF76CFEE6
S3150800C2B04FF4FA714FF47070FFF7D2FEFFF756FE8F
S3150800C2C02846FFF7F5FA207AFFF75EFE4FF4FA7173
S3150800C2D040F20230FFF7C4FEFFF748FE2846FFF794
S3150800C2E0E7FAE2E7617A0DF103030DF1020220464F
S3150800C2F003F0AEF880B3237A582B5FD06420FFF79B
S3150800C3005FFE334D207AFFF73FFE4FF4FA714FF484
S3150800C3107070FFF7A5FEFFF729FE2846FFF7C8FA53
S3150800C320207AFFF731FE4FF4FA7140F20230FFF738
S3150800C33097FEFFF71BFE2846FFF7BAFAE2E7637A8D
S3150800C340AB4206D02946204603B0BDE8F040FFF7C9
S3150800C350A7BE002003B0F0BD9DF8025065B3019F4B
S3150800C3609DF80300791C013D00F00300334651FA9D
S3150800C37085F53A463C4610E0012814BF97F9006057
S3150800C380B4F900601E60A94203F1040304F1020433
S3150800C39002F104020F46DCD00131022804D003283A
S3150800C3A0EAD116681E60EEE716681E60EBE701A97B
S3150800C3B0204603F063F8CDE70320CBE7617A0DF159
S3150800C3C003030DF10202204603F042F8C2E700BF5C
S3150800C3D0F049020030B5044683B001E0FFF768FA79
S3150800C3E001A9204601F0A2FD082805464CF2503066
S3150800C3F0F4D015B3582C31D06420FFF7E1FD1B4D5E
S3150800C4002046FFF7C1FD4FF4FA714FF47070FFF73D
S3150800C41027FEFFF7ABFD2846FFF74AFA2046FFF747
S3150800C420B3FD4FF4FA7140F20230FFF719FEFFF739
S3150800C4309DFD2846FFF73CFAE2E7019803685B781A
S3150800C440DC070ED55A0709D513F0080F437A14BF2F
S3150800C450042102218B4201D0FFF722FE284603B0B1
S3150800C46030BD0525284603B030BD00BFF04902009F
S3150800C4700E4B1B8810B5ABB1DAB282B1002113F0AE
S3150800C4800F000B4A0B4C08BFC3F30310024408BF46
S3150800C490043112F8013C0B4454F8330010BD1B0A52
S3150800C4A00821ECE7FEF71AF9FEE700BF202B01206A
S3150800C4B078550208242B012090F80EC00E4B0F4A1F
S3150800C4C003EBCC0110B44C684460016020604860FE
S3150800C4D00B4914880968012303FA0CF323431380D4
S3150800C4E031B1084A136813B19B7B634500D91060C4
S3150800C4F05DF8044B704700BF242B0120202B012038
S3150800C500102B01201C2B012038B5D0E90014827BA2
S3150800C5101A4B21604C6053F8321003EBC204A14257
S3150800C52009D0174B1A68824200D038BD154A1268DE
S3150800C5303AB1196038BD6368994205D0FEF7CEF85E
S3150800C540FEE7FEF7CBF8FEE70F4C0D4D23880121D9
S3150800C55001FA02F223EA02032A6823808242E4D11E
S3150800C560084A12681AB12BB91846286038BDFEF772
S3150800C570B5F8FEE7FFF77CFFF7E700BF242B01209D
S3150800C5801C2B0120102B0120202B012010B5037B2A
S3150800C590D90704461DD413F07C0F0CD163691BB16F
S3150800C5A0114B20461B6898472046FEF7A9FFE37BF8
S3150800C5B0DA0711D410BD13F0600F03D0D0E90032AA
S3150800C5C013605A60236918680028E7D000F05CF900
S3150800C5D0E4E7FFF799FFE1E76FF30003E37320460B
S3150800C5E0BDE81040FEF79ABFC42C0120036910B5B8
S3150800C5F00446186810B100F047F9236900221A604A
S3150800C600237B13F07C0F0BD09B0702D502232373E1
S3150800C61010BD012323732046BDE81040FFF74CBF29
S3150800C620FEF75CF8FEE700BF08B502690021116055
S3150800C630027B12F07C0F29D0920722D502220273C0
S3150800C640144A154B12681B689A4205D04FF0E0232E
S3150800C6504FF08052C3F8042D104B00221A60BFF326
S3150800C6604F8F0F4A116881F3118800BFEFF31180CD
S3150800C670102181F31288012110601960BFF34F8FD2
S3150800C68008BD01220273FFF717FFD9E7FEF726F860
S3150800C690FEE700BF182B01201C2B0120042B0120CC
S3150800C6A0082B012070B5144E3368044619731846D2
S3150800C6B01546FFF729FFA36831681B680D6100223C
S3150800C6C0DB072A6006D46368C1E900431960616024
S3150800C6D06C6070BD2368887B9C4203D105E01B68AB
S3150800C6E09C4202D09A7B8242F9D95A68C1E9003243
S3150800C6F0116059606C6070BD182B01202DE9F0415E
S3150800C7000568A842044618D06FF0320802260127A9
S3150800C7102B692A6818682260546010B100F0B4F8D2
S3150800C7202B69C3F800802B7B13F07C0F10D09B0776
S3150800C73009D52E732568AC42EAD163689C420AD0B3
S3150800C740FDF7CCFFFEE72F732846FFF7B5FEF1E7A6
S3150800C750FDF7C4FFFEE7BDE8F08100BF70B5194CD0
S3150800C760031B22689B1004EBC303934229D8164D7A
S3150800C7702D68A1EB050E10E01A6812681946521BBF
S3150800C7800B1B9B10964504EBC3031AD90A68026073
S3150800C790506022689A42084613D3191D9142EBD875
S3150800C7A0D3E9006212683668521BA6EB050C62458F
S3150800C7B024BF194662460B1B9B10964504EBC30320
S3150800C7C0E4D870BD482A0120A42B01200E490F4B3E
S3150800C7D070B40F4C18680B6822680E4D0860C31AAF
S3150800C7E0991821602C680C480C4EA21A08449A42E3
S3150800C7F0306002D2A14202D3296070BC7047084A51
S3150800C800536801335360F7E7AC2B0120002B012056
S3150800C810A82B0120B42B0120003E14F4A42B0120E0
S3150800C820B82B0120054A136810B50446181D21685F
S3150800C830106000F063F80460606010BD482A0120AB
S3150800C84070B504460E46FFF7C1FF0C4B0C4D1B682E
S3150800C850286803F57A73991904302160286000F076
S3150800C8604DF8084B1B680460606013B90435A8428C
S3150800C87000D070BDBDE87040FEF78CBEA82B012025
S3150800C880482A0120B02B0120F8B5194D46682A68B8
S3150800C8902C46131F44F8043BA34218D31368A64238
S3150800C8A019680DD9701BC010124B55F820701A68FC
S3150800C8B03B68A1EB020C9B1A9C4505EB80000CD348
S3150800C8C03046FFF74BFF2B685B68036058600A4BDE
S3150800C8D01B680BB9A64205D0F8BD37607E6000F02C
S3150800C8E00DF8F0E7FFF772FFBDE8F840FEF752BE15
S3150800C8F0482A0120A42B0120B02B012030B50E4C6C
S3150800C900A042844616D90D4B1D68A4F1040E491B96
S3150800C91003E0A445026050600CD9ACEB0E03DB10B3
S3150800C92060465EF823200EEB830C13685B1B8B4274
S3150800C930EFD830BD604630BD4C2A0120A42B01201B
S3150800C94008B502F08DFE0028FBD1BDE80840FDF7CA
S3150800C950FBB808B502F06EFE04F06AFE012002F08C
S3150800C96073FE062005F052F9002004F0EBFD0820BE
S3150800C97005F09EF9B0B1062005F070F9002004F024
S3150800C980E1FD012002F060FE04F06AFE072005F0D2
S3150800C9903DF9FFF7D5FF01F0C1FC0028F9D101F0F8
S3150800C9A0B5FEF6E7FFF7CCFFE1E700002DE9F04F0B
S3150800C9B06B4ADFF8B481DFF8B49185B000230C68C0
S3150800C9C001279F4007EA040537EA040440F0B580CA
S3150800C9D04C6824F0100ABAF1020F16D14FEAD30EAA
S3150800C9E000EB8E0E03F0070BDEF820604FEA8B0B88
S3150800C9F04FF00F0C0CFA0BFC26EA0C0C0E6906FA23
S3150800CA000BF646EA0C06CEF82060D0F800B04FEADE
S3150800CA10430E4FF0030C0CFA0EFC6FEA0C062BEAD9
S3150800CA200C0B04F0030C0CFA0EFC0AF1FF3A4CEA64
S3150800CA300B0CBAF1010F0196C0F800C015D8D0F852
S3150800CA4008C006EA0C0CCE6806FA0EFA4AEA0C0C7E
S3150800CA50C0F808C0D0F804C02CEA0707C4F3001CC5
S3150800CA600CFA03FC4CEA07074760C768019E374083
S3150800CA708E6806FA0EF63E43C660E6005DD54FF0B0
S3150800CA80000BCDF80CB0D8F84470364E47F4804702
S3150800CA90C8F84470D8F8447007F480470397039F92
S3150800CAA023F0030707F1804707F59C3703F0030EC9
S3150800CAB0D7F808A04FEA8E0E4FF00F0C0CFA0EFCB2
S3150800CAC0B0422AEA0C0C3FD006F58066B0423DD04B
S3150800CAD006F58066B0423BD006F58066B04239D08E
S3150800CAE006F58066B04237D0484537D006F5006669
S3150800CAF0B0420CBF0626072606FA0EF646EA0C06CC
S3150800CB00BE601668EF4314F4803F0CBF3E402E43C8
S3150800CB101660566814F4003F0CBF3E402E4356601C
S3150800CB20966814F4801F0CBF3E402E439660D66864
S3150800CB30A40254BF3E402E43D6600133102B7FF427
S3150800CB403EAF05B0BDE8F08F5E46D5E70126D3E7D0
S3150800CB500226D1E70326CFE70426CDE70526CBE74D
S3150800CB60003C014000000240003802400014024028
S3150800CB700369194214BF0120002070470AB1816178
S3150800CB8070470904FBE74369594041617047000053
S3150800CB90044A5169014208B502D0506101F014FFF8
S3150800CBA008BD00BF003C01400368F7B50446D80736
S3150800CBB03BD42368990700F1898023681E0700F192
S3150800CBC0CA8023685D072AD5002301938B4B8C4DB9
S3150800CBD01A6C42F080521A641B6C03F0805301935E
S3150800CBE0019B2B6843F480732B60FDF79DFD064679
S3150800CBF02B68DA0540F1D380A368804D012B40F0FD
S3150800CC00D5802B6F43F001032B67FDF78DFD7B4E17
S3150800CC10054641F28837336F9B0740F1E880A269E1
S3150800CC20002A40F0F180002015E0744B9A6802F063
S3150800CC300C02042A07D09A6802F00C02082A0CD1C2
S3150800CC405A68520209D56D4B1B689B03B1D56368B8
S3150800CC50002BAED1012003B0F0BD6268B2F5803F6B
S3150800CC6011D11A6842F480321A60FDF75DFD634EF1
S3150800CC70054633689F039CD4FDF756FD401B642880
S3150800CC80F7D90320E7E75D4DB2F5A02F2B6807D14A
S3150800CC9043F480232B602B6843F480332B60E4E74E
S3150800CCA023F480332B602B6823F480232B60002A1F
S3150800CCB0DBD1FDF739FD06462B6898037FF579AF7A
S3150800CCC0FDF732FD801B6428F6D9DAE74B4B9A68E4
S3150800CCD012F00C0F07D09A6802F00C02082A17D136
S3150800CCE05B68590214D4454B1A68920702D5E26864
S3150800CCF0012AAFD119682369F82292FAA2F2B2FA88
S3150800CD0082F2934021F0F8013C4A0B43136054E742
S3150800CD10E2683C4B82B101221A60FDF705FD374EE9
S3150800CD20054633689B0701D53168E4E7FDF7FCFC47
S3150800CD30401B0228F5D9A4E71A60FDF7F5FC2F4E2B
S3150800CD40054633689F077FF538AFFDF7EDFC401BB6
S3150800CD500228F6D995E762692A4B82B10122C3F8FF
S3150800CD60802EFDF7E1FC254E0546736F98073FF5C3
S3150800CD7028AFFDF7D9FC401B0228F6D981E7C3F88E
S3150800CD80802EFDF7D1FC1D4E0546736F99077FF57A
S3150800CD9018AFFDF7C9FC401B0228F6D971E7FDF765
S3150800CDA0C3FC801B02287FF623AF6AE7052B04D154
S3150800CDB02B6F43F004032B6723E72A6F22F0010247
S3150800CDC02A672A6F22F004022A67002B7FF41DAF18
S3150800CDD0FDF7AAFC41F2883706462B6F98077FF5C0
S3150800CDE01EAFFDF7A1FC801BB842F6D949E7FDF74F
S3150800CDF09BFC401BB8427FF60EAF42E70038024064
S3150800CE000070004000004742304DAB6803F00C0349
S3150800CE10082B3FF41FAF2E4B022A4FF000021A666A
S3150800CE2046D1FDF781FC06462B6899013AD4D4E928
S3150800CE3007211143626A254D47F6C07393FAA3F397
S3150800CE40B3FA83F39A40A36A5B080A43013B4FF49B
S3150800CE50403191FAA1F1B1FA81F18B401343E26AAC
S3150800CE604FF0706191FAA1F1B1FA81F18A401A4343
S3150800CE70236B4FF0E04191FAA1F1B1FA81F18B40B1
S3150800CE8013436B60124B01221A66FDF74DFC0446EC
S3150800CE902B689A013FF5C7AEFDF746FC001B022832
S3150800CEA0F6D9EEE6FDF740FC801B0228BCD9E8E679
S3150800CEB0FDF73AFC04462B689B017FF5B4AEFDF7F7
S3150800CEC033FC001B0228F6D9DBE600BF0038024017
S3150800CED0000047421C4A936803F00C03082B30D124
S3150800CEE05168536813F4800F01F03F0147F6C07389
S3150800CEF01BD05068184093FAA3F3B3FA83F3D840CB
S3150800CF00124B5843B0FBF1F080000F4B5B684FF4AF
S3150800CF10403203F4403392FAA2F2B2FA82F2D340D4
S3150800CF2001335B00B0FBF3F070470948B0FBF1F141
S3150800CF305068184093FAA3F3B3FA83F3D8404843EA
S3150800CF40E3E70348704700BF0038024000093D0088
S3150800CF500024F400554B1A6802F00F028A422DE9A4
S3150800CF60F04104460D462FD32268960736D4D007DB
S3150800CF703CD44E4B1A6802F00F02AA4200F2868091
S3150800CF802268510700F18A80130707D5484A2169A4
S3150800CF90936823F4604343EAC1039360FFF79AFF5B
S3150800CFA0434B9B68F02203F0F00392FAA2F2B2FA1E
S3150800CFB082F2D3403F4AD35CD8403F4B18600F20DB
S3150800CFC0FDF7B0FB002007E0CAB21A701B6803F031
S3150800CFD00F038B42C8D00120BDE8F0813449A06810
S3150800CFE08B6823F0F00303438B60C0E76268304B1D
S3150800CFF0012A1DD11B6813F4003FECD02C4EB368F0
S3150800D00023F003031343B360FDF78EFB6368012B1C
S3150800D010074641F2883815D1B36803F00C03042B90
S3150800D020A7D0FDF781FBC01B4045F5D90320D3E700
S3150800D030911E01291B6802D813F0007FDDE713F063
S3150800D040020FDAE7022B0AD1B36803F00C03082BA8
S3150800D0508FD0FDF769FBC01B4045F5D9E6E7032BE2
S3150800D0600FD1B36803F00C030C2B82D0FDF75CFBE1
S3150800D070C01B4045F5D9D9E7FDF756FBC01B40450F
S3150800D080D4D8B36813F00C0FF6D172E7EAB21A7067
S3150800D0901B6803F00F03AB429DD171E70449E068B2
S3150800D0A08B6823F4E05303438B606DE7003C024032
S3150800D0B0003802407453020800000020014B18682B
S3150800D0C0704700BF00000020084B1868084B9B6893
S3150800D0D04FF4E05203F4E05392FAA2F2B2FA82F263
S3150800D0E0D340044AD35CD840704700BF00000020F4
S3150800D0F00038024084530208084B1868084B9B689E
S3150800D1004FF4604203F4604392FAA2F2B2FA82F252
S3150800D110D340044AD35CD840704700BF00000020C3
S3150800D120003802408453020838B5836804460D4621
S3150800D1309BB10A4804600220A07304F10C009847CA
S3150800D1400238012801D9832D05D121462046BDE89C
S3150800D150384000F00BB80123A37338BD4C2E0120CC
S3150800D160837BDB0701D5FFF7DFBF70472DE9F8435F
S3150800D1701C4F3D68044688462B46A34204D00BB98B
S3150800D180BDE8F8831B68F8E7002CF9D0164EA37B98
S3150800D190D6F8009063B10023A3738DB9A3683BB199
S3150800D1A0444505D034602A46832104F10C0098478B
S3150800D1B03B68A3420ED123683B60C6F80090DFE7C0
S3150800D1C0A54204D0224687212846FFF7C9FF2D68C5
S3150800D1D0E3E71346002BF0D01A68A242F9D1226879
S3150800D1E01A60EAE7502E01204C2E012038B5094B6B
S3150800D1F000221A70084B1C68012504B938BDE37B68
S3150800D2002BB1E581002282212046FFF78DFF246895
S3150800D210F3E700BF4B2E0120502E0120014B196861
S3150800D220FFF7A4BF4C2E0120064B8A221A70064A25
S3150800D23000231370054A1370054A1360054A1360E4
S3150800D240704700BF492E0120482E01204A2E012092
S3150800D250502E01204C2E0120F7B51C4E33780BB109
S3150800D260FFF7C4FF1A4D2C7894B11A4F1A493B7828
S3150800D2700C225A438818895CD0E90120013303F04F
S3150800D2801F03013C3B702C70C0B9144B1C6824B9B1
S3150800D29033782878184403B0F0BD33782BB1CDE93C
S3150800D2A00012FFF7A3FFDDE900122046CDE90012C0
S3150800D2B0FFF756FFDDE900122468E8E7812904BF75
S3150800D2C001238373FFF74CFFE2E700BF4B2E0120D3
S3150800D2D04A2E0120482E0120C82C0120502E01205C
S3150800D2E0F0B50B4D2C78202C0FD00A4B0A4F1B7823
S3150800D2F023440C2603F01F037343FE180134F95424
S3150800D300C6E901202C700020F0BD0120FCE700BF13
S3150800D3104A2E0120482E0120C82C012038B5034C7E
S3150800D3202568FFF71DFF256038BD00BF4C2E01207C
S3150800D330084B19680A4682420BD042B948B10160C7
S3150800D34018600123837382818121FFF7E7BF126882
S3150800D350F1E77047502E012048B1837B013B012B32
S3150800D36005D80123024AC3731370FCF7EFBB704755
S3150800D3704B2E0120034B1B680BB1012018470E20CA
S3150800D380704700BFC82E01204FF6FF73002908BF5B
S3150800D3901846014B188070472200002010B5054B2F
S3150800D3A0027A41680446188808F0B6FC2368BDE886
S3150800D3B0104018474400002010B5054B027A416812
S3150800D3C00446188800F050FB2368BDE8104018474B
S3150800D3D02200002001460429104610B51A4602D03C
S3150800D3E0072913D010BD0378F22BFBD18378112BB4
S3150800D3F006D0122BF6D10A4B4FF6FF721A80F1E7C8
S3150800D400032105F09DFC064B1880EBE7054B1B68CE
S3150800D410002BE7D00146BDE810400220184700BFA0
S3150800D42044000020C82E0120032938B51C460BD11C
S3150800D4300648FBF705FF024685B21CB1034920469C
S3150800D440FBF746FE284638BD0025FBE71487020889
S3150800D45070B51378A03B1446072B23D8DFE803F0F2
S3150800D46012040B222222224920462E4ABDE8704089
S3150800D47004210BF05CBB20462B4ABDE87040042112
S3150800D4800BF071BB294CA37B052B13D1284BA18923
S3150800D490284804F110020BF010FB84F8400010B97C
S3150800D4A00623A37370BDA08907F002FD40F2094365
S3150800D4B0E381F7E7062B18D104F12602A1891D4856
S3150800D4C001230BF003FBA28984F8400038B904F164
S3150800D4D02603184920460BF08FFA0723E1E7104682
S3150800D4E007F0E6FC40F20953E2E7072BDAD10823F6
S3150800D4F0D7E70221204605F023FC0C4B9B89834283
S3150800D500D0D10D4D2B68002BCCD00621204605F036
